:02000004C0DE5C
:1000000080B501F0C1FF002080BD2DE9F0410E4612
:10001000DDF8188040211C46154607461CF0BCF848
:1000200007F1300080E830010120387030467E60F2
:1000300000F002F8BDE8F08180B54FF480711AF04D
:100040008EF9002808BF80BD1AF080FB80B582B011
:10005000816AC1B1426A013912F8013B81628DF8AF
:100060000730437C426223B1C168827C0131C160A8
:100070002AB940680DF10701012200F00DF89DF842
:10008000070002B080BD034878441BF04BF9012003
:100090001AF05CFB4756020010B582B013460A46C0
:1000A0004FF0000C00210446CDF800C0CDF804C08C
:1000B0001AF049F920B920461AF041F902B010BDF2
:1000C0001AF044FBB0B50446806A90421FD315462F
:1000D00029B1626A084611462A461CF062F8607C23
:1000E00008B1A07C20B96068616A2A46FFF7D4FF96
:1000F000606AA16A28446062607C0028A1EB050068
:10010000A06208BFB0BDE0682844E060B0BD03480D
:1001100078441BF007F901201AF018FBA44A0200EA
:100120002DE9F0418CB0E846064640461D4617468C
:100130000C461CF091F80104ADF82C0007D00A9889
:100140000021ADF82C101BF065FE03250FE068467A
:100150001BF060FE0A903046C6E90947F56200F0E0
:1001600019F8014605460A4878441BF0DBF81BF0F5
:1001700047FE404502D10A981BF04CFEBDF82C000A
:10018000002802BF28460CB0BDE8F0811AF0DEFA64
:10019000D55B02002DE9F04581B0474C47497C44CE
:1001A000794488464649074679448A4607E000BFB5
:1001B00020461BF0B7F802260025002D77D097F8CF
:1001C0003C00C02802D139780C29F1D0022807D090
:1001D000012808D139780B29EAD0022803D100BFC1
:1001E00039780C29E4D0C02804D13878092801D105
:1001F000B86AD0B3B86AD8B1787C30B9384600F064
:1002000097F8042818BF0646D6D1396BB1B13846E5
:10021000884705462C4878441BF084F8022D0ED3FD
:100220002CD0032D2CD1294878441BF07BF83CE0DE
:1002300050461BF077F800250026BEE700250DB1DB
:100240000125BAE739781F4878441BF06BF897F816
:100250003C10012919D002291DD0C02921D13846CE
:1002600000F0D4F80028EBD01FE0786B002580F870
:10027000C25040461BF056F802269EE701269BE737
:10028000134878441BF04EF80FE0384600F020F990
:100290000028D5D009E0384600F07AF90028CFD000
:1002A00003E00C4878441BF03DF8032684E7F0B2E5
:1002B00001B0BDE8F08500BFB36802007D640200B4
:1002C000BA6802005E5802008B710200C46D020021
:1002D000E46E020014710200B0B58CB06C460546A5
:1002E00020461BF0B9FF0104ADF82C0007D00A9896
:1002F0000021ADF82C101BF08DFD032507E06846AA
:100300001BF088FD0A902846FFF744FF05461BF0C6
:1003100077FDA04202D10A981BF07CFDBDF82C00AD
:10032000002802BF28460CB0B0BD1AF00FFA00003A
:100330002DE9F04583B0044600F118052F48002749
:10034000784480462E480DF107067844824601E045
:100350000020F8B9A06AF8B12046FFF777FE216ABD
:100360004A1C214422620876216A2846324602F05D
:1003700008F828B19DF8070038B103200127E8E705
:10038000206A0528E4D1504600E040461AF0CAFF32
:100390000120DEE703282CD1F8071ED004F1080164
:1003A00004F1100302AA284602F008F8E8B1029905
:1003B000002000294FF0000106D1D4E909120139CB
:1003C0000132C4E909120121E06020620120A17418
:1003D0006074042003B0BDE8F0850A4878441AF040
:1003E000A1FF002003B0BDE8F085074878441AF06B
:1003F00099FF032003B0BDE8F08500BFA5530200BC
:10040000FF5902001F530200CD56020010B50446EA
:10041000007806280CDC032817DC012828D00228E5
:1004200034D003284BD1204600F05AF9002010BDEB
:10043000092815DC07282ED0082831D009283ED1FC
:10044000204600F0A7FA002010BD04282DD0052872
:1004500030D0062833D1204600F0D8F9002010BD56
:100460000A3802282BD2204600F06EFA002010BD78
:10047000204600F0F5F894F82C00C0071CBF0020BF
:1004800010BD207801302070002010BD204600F003
:10049000FBF8002010BD204600F0EAF9002010BD56
:1004A000204600F017FA002010BD204600F048F961
:1004B000002010BD204600F073F9002010BD034855
:1004C00078441AF02FFF012010BD00BF54570200DE
:1004D00010B50446007805280CDC022817DD032837
:1004E00027D004282AD005284AD1204600F028F930
:1004F000002010BD072813DD082824D0092827D0A4
:100500000A283DD1204600F0AFFA002010BD012896
:1005100023D0022834D1204600F0B6F8002010BDC8
:10052000062828D007282BD1204600F06FF900209C
:1005300010BD204600F064FA002010BD204600F0F7
:10054000CFF8002010BD204600F092F9002010BD29
:10055000204600F0BFF9002010BD204600F080F8D2
:1005600094F82C00C0071CBF002010BD207801307B
:100570002070002010BD204600F072FA002010BD4F
:10058000024878441AF0CEFE012010BD92560200B7
:1005900010B50446007805280CDD082817DC06286D
:1005A00029D007282CD0082851D1204600F02EF958
:1005B000002010BD022815DD032826D0042829D0EC
:1005C000052844D1204600F0BFF9002010BD0928BD
:1005D00025D00A2828D00B2839D1204600F044FA2B
:1005E000002010BD012824D0022830D1204600F080
:1005F0004BF8002010BD204600F0A2F8002010BDEE
:10060000204600F02DFA002010BD204600F0F8F939
:10061000002010BD204600F063F8002010BD2046E9
:1006200000F026F9002010BD204600F053F900200C
:1006300010BD204600F014F894F82C00C0071CBF31
:10064000002010BD207801302070002010BD03482C
:1006500078441AF067FE012010BD00BFC4550200A7
:1006600080B5017C39B1816802784161511C01700B
:100670000021417480BD034878441AF053FE0120E4
:100680001AF064F81D62020010B50446007CC8B977
:10069000A068212819D2E168884208D9A36A421AC1
:1006A00020460021934238BF1A46FFF70BFDD4E9DC
:1006B0000201814218BF10BD207801302070002057
:1006C000607410BD0448784401E0044878441AF08E
:1006D00029FE01201AF03AF83F4E0200BD6A0200DE
:1006E00010B50446007CE8B9A06821281DD2E16855
:1006F000884209D9421AA06A616B904238BF02460B
:1007000063312046FFF7DEFCD4E90201814218BFC5
:1007100010BD616B227881F88300501C207000208E
:10072000607410BD0448784401E0044878441AF02D
:10073000F9FD01201AF00AF8516302009E440200FC
:1007400010B50446007CE8B9A16821291DD2E068F3
:10075000814209D90A1AA16A636B914238BF0A46DD
:1007600019182046FFF7AEFCD4E90201814218BFF8
:1007700010BD616B227881F82000501C2070002091
:10078000607410BD0448784401E0044878441AF0CD
:10079000C9FD012019F0DAFF80680200F241020071
:1007A00010B50446007CF8B9A168212923D2E0687D
:1007B00081420BD9636B0A1AA16A1844914238BF6F
:1007C0000A4600F121012046FFF77CFCD4E9020132
:1007D000814218BF10BD616B227881F84100501C26
:1007E00020700020607410BD064878441AF09AFD0D
:1007F000012019F0ABFF044878441AF093FD012062
:1008000019F0A4FF65490200D15C020010B504464E
:10081000007CF8B9A16815291FD2E06881420BD984
:10082000636B0A1AA16A1844914238BF0A4600F164
:10083000A5012046FFF746FCD4E90201814218BF1A
:1008400010BD616B227881F8B900501C2070002027
:10085000607410BD0448784401E0044878441AF0FC
:1008600061FD012019F072FF423F0200A03D02002D
:1008700010B50446007CF8B9A16821291FD2E068B0
:1008800081420BD9636B0A1AA16A1844914238BF9E
:100890000A4600F142012046FFF714FCD4E90201A8
:1008A000814218BF10BD616B227881F86200501C34
:1008B00020700020607410BD0448784401E00448B2
:1008C00078441AF02FFD012019F040FF664C020019
:1008D000CB46020010B50446184878441AF022FDB1
:1008E000207C20BBD4E90201884211D9A36A421AB4
:1008F000934238BF1A46012A06D1606A007818B9B7
:10090000606B002180F8C31020460021FFF7DAFB5E
:10091000D4E90201814218BF10BD094878441AF099
:1009200001FD2078013020700020607410BD054862
:1009300078441AF0F7FC012019F008FF8B540200EC
:100940002F5802007668020010B50446007CB8B942
:10095000D4E90201884208D9A36A421A204600213C
:10096000934238BF1A46FFF7ADFBD4E9020181423A
:1009700018BF10BD2078013020700020607410BDB9
:10098000034878441AF0CEFC012019F0DFFE00BFC6
:10099000AF52020010B50446007C10BBA1680929C3
:1009A00022D2E06881420ED9636B0A1AA16A184408
:1009B000914238BF0A4600F1BA012046082A28BFF2
:1009C0000822FFF77FFBD4E90201814218BF10BD66
:1009D000616B227881F8C200501C20700020607486
:1009E00010BD0548784401E0044878441AF09AFCA8
:1009F000012019F0ABFE00BFBB3F020040440200E3
:100A000010B50446007CE8B9A06821281DD2E16831
:100A1000884209D9421AA06A616B904238BF0246E7
:100A200084312046FFF74EFBD4E90201814218BF12
:100A300010BD616B227881F8A400501C207000204A
:100A4000607410BD0448784401E0044878441AF00A
:100A500069FC012019F07AFE6D5E02004848020030
:100A600080B5FFF79DFE80BD10B50446007CB8B18F
:100A7000D4E90201884208D9A36A421A204600211B
:100A8000934238BF1A46FFF71DFBD4E902018142A9
:100A900018BF10BD2078013020700020607410BD98
:100AA000034878441AF03EFC012019F04FFE00BFC5
:100AB000CC46020070B50D462021144606461BF0B8
:100AC0006BFBC6E9055470BD70B50D461821144680
:100AD00006461BF061FBC6E9035470BD80B52021BA
:100AE0001BF05AFB80BD80B518211BF055FB80BD63
:100AF0002DE9F0410E46DDF8188020211C461546F0
:100B000007461BF049FBC7E90365C7E90548BDE88F
:100B1000F08100002DE9F04D82B00F463821984653
:100B2000924606461BF038FB174809EB000505F115
:100B3000A704204600F02AF84C35002828464FF03C
:100B4000000B18BF5C46B46000F020F8002808BF16
:100B5000AB46C6F80CB086F8207001F0D7FACDE9A4
:100B60000001684606F1100401F0F8FA014620463B
:100B70000B221BF0ACFB0A98C6E909A8F0620B989F
:100B8000306302B0BDE8F08D180000000178002944
:100B90001EBF012080F001007047411C002200BFF1
:100BA0005A2A4FF0000038BF012003D08B5C01327D
:100BB000002BF5D080F001007047000070B52D4E7D
:100BC0000C4609EB0601012281F8E4206269054622
:100BD0002B48042178441AF0A5FB274819F8001087
:100BE000032906D22846214600F058F800254DB9C1
:100BF00012E037D12846214600F0A2F8002818BF9D
:100C000000254DB11D4819F8000028B11E48784450
:100C10001AF088FB002070BD3DB11C4814217844B7
:100C20002A461AF07FFB012070BD194878441AF05B
:100C300079FB184809EB060178441AF073FB40F27F
:100C40000110214600F0FAF8032838BF70BD1248A1
:100C500009EB0604784421461AF064FB042084F86A
:100C6000E40070BD074878441AF05CFB00201BF0DC
:100C700097F800BF500300000F0000000D000000B7
:100C80006C69020043430200176402001E4902001F
:100C9000853B02008C4302008243020070B5224E65
:100CA000044609EB06000D4600F1440120461422DB
:100CB0001BF092FAC8B96A699178D37810785578A0
:100CC00041EA032109EB060340EA05209B6D40EA57
:100CD0000140984217D1194878441AF023FB09EBD8
:100CE0000600042180F8E41070BD104814217844F7
:100CF00022461AF017FB09EB060000F144020C48EB
:100D0000142178440BE00B48042178441AF00AFBC4
:100D100009EB060000F158020748042178441AF054
:100D200001FB00201BF03CF850030000715402004E
:100D3000C85602008E610200425302000B570200A7
:100D40002DE9F04D84B03C4A8B467A445168054603
:100D5000084602921AF0CAFE0646B0FA80F0002E4B
:100D60004FEA501160D00027002411E0019C029945
:100D70000134E7B207EB470001EBC00040681AF00E
:100D8000B5FE0646B0FA80F0002E4FEA50114BD067
:100D9000002DCDE90014E9D0029907EB470001EBE3
:100DA000C007039717F8080F0028DFD04FF000089E
:100DB00056F82800DBF814A01AF098FE0178827823
:100DC000C378407842EA032241EA002040EA024028
:100DD0009AF800109AF802209AF803309AF8014025
:100DE00042EA032241EA042141EA0241814206D15A
:100DF0000398006858B11AF079FE804738B9002D81
:100E0000B4D0387808F101088045D1D3AEE709485D
:100E1000039909EB0004093120461E221BF057FA02
:100E20000420009984F8E4000120884304B0BDE860
:100E3000F08D00BF50030000466A02002DE9F04526
:100E400091B00546AE48DFF8C082484409EB08027D
:100E50001090AC4892F8E4208A464844022A494659
:100E60000F900AD8AA4878441AF05CFA09EB0800F7
:100E700090F8E40011B0BDE8F085B5F5827F14DA92
:100E800040F2011085422AD0B5F5817F3ED040F274
:100E90000310854240F0BB809E4878441AF042FA25
:100EA000012148468AF81E104AE038D040F2051069
:100EB00085423DD0B5F5837F40F0A98096487844BF
:100EC0001AF030FA484610A9CAF800100FA909EB29
:100ED0000800CAF8041000F144021C213BE08F48CE
:100EE00078441AF01FFA48464FF48371AAF80010AC
:100EF00010A90FAA09EB08000AF1040C00F1440341
:100F0000A0278CE88E001C21024624E08448784407
:100F10001AF008FA012148468AF8141010E08148B6
:100F200078441AF0FFF9012148468AF8151007E0C5
:100F30007D4878441AF0F6F9012148468AF81C10D9
:100F400010A9CAF800100FA909EB0800CAF804108C
:100F500000F144020821084611466C4B4AF8001083
:100F600019F803104A46012907DC89B301292AD15F
:100F7000284651460BF0AEFB6EE0022942D0032911
:100F800021D16B4E7E44707A002865D009EB0800B1
:100F900006F109011BF06EF9002851D0012400BFB1
:100FA000E7B207EB470006EBC00111F8090F002874
:100FB00052D009EB08001BF05DF9611C00280C46BB
:100FC000EED138463DE05C4878441AF0ABF992E047
:100FD00009EB08000CA96E4681E8210430461BF09D
:100FE0003BF90104ADF82C0017D00A980021ADF8A8
:100FF0002C101AF00FFF4F4809EB080178441AF043
:1010000091F911E0284651460AF0AAFD24E047482C
:10101000294678441AF086F961E068461AF0FAFE2B
:101020000A900CA81AF078FE1AF0EAFEB04202D13B
:101030000A981AF0EFFEBDF82C0068B119F086FB93
:10104000002000EB400006EBC00040691AF04EFDA6
:1010500002462846514690473848294678441AF0B7
:1010600061F90120B5F5827F0EDA40F201118D425F
:1010700017D0B5F5817F21D040F203118D4237D1D1
:101080009AF81E0038BB33E01CD040F205118D42A7
:1010900029D0B5F5837F2BD19AF83400042826D0C7
:1010A00029E09AF801000146002818BF0121042810
:1010B00008BF0146084611B0BDE8F0859AF8140053
:1010C00048B915E09AF815101D4878441AF02AF925
:1010D0009AF8150060B1042809D0062807D001202D
:1010E00011B0BDE8F0859AF81C00042803D1042053
:1010F00011B0BDE8F085002011B0BDE8F08500BF5B
:10110000A005000060010000500300000F00000077
:101110000D4F02001D3B02002F560200643F0200EB
:1011200030510200A16202009F5902005652020093
:101130000C680200F13F0200063A02008C3B0200FC
:10114000413F02002DE9F045ADF50D7D044600203C
:10115000A0614B488846784421461AF0E3F821699B
:10116000484878441AF0DEF8474878441AF0DAF82C
:101170002069B8B3A06890F800A0AAF1010109297C
:101180002DD8217B0139B1EB8A0F28D1BAF1000F9C
:101190000DD0471C15A8051F564600BF384600F065
:1011A0007DF845F8040F013E07F10407F6D115AFAD
:1011B00002AA3846514600F07CF8064638463421EB
:1011C0001AF0F6FF46BB02A915AB2120202219F028
:1011D000AAF878B115A834211AF0EAFF1CE02E48CD
:1011E000784401E0294878441AF09CF80DF50D7D0B
:1011F000BDE8F08502AE30464C211AF0D9FF15AF9C
:10120000212031463A46012319F089F8064638462E
:1012100034211AF0CDFF3EB102A84C211AF0C8FFCC
:101220000DF50D7DBDE8F085D8E9040315A9009002
:1012300002A822AA019302F0C7FD0028CAD002A882
:101240004C211AF0B5FF216908784A7840EA02205B
:1012500047F63002904215A808BF02311BF00AF889
:1012600020B10B4878441AF05DF805E0094878444D
:101270001AF058F80120A06115A83421CEE700BF6C
:1012800086600200D95502008C600200B94B020052
:10129000524B02003E5C0200475402004278017843
:1012A00083781204C07842EA016141EA03210844CC
:1012B000704780B500F001F880BD2DE9F04591B090
:1012C0000DF114080746404615468A461AF0C4FF39
:1012D00084B2ADF8400054B10F980021ADF8401031
:1012E0001AF098FD402128461AF062FF0FE005A889
:1012F0001AF090FD00240F906E46212120463A46B8
:101300005346C6E90054B460F4601AF0C1FC1AF008
:1013100077FD404502D10F981AF07CFDBDF84000E2
:10132000002802BF204611B0BDE8F08519F00EFA82
:101330002DE9F04186B000F10E040E460546204628
:1013400032211AF029FF297B212906D31E4878442F
:1013500019F0E8FF06B0BDE8F081687B90B1304637
:101360000A211AF0F8FFC7B20DF10C0840463146C9
:101370003A461AF014FF002008F8070012208DF8F2
:10138000170007E02868297903AA0DF1170301F077
:1013900064FC88B1A868297B9DF81720322301934B
:1013A00003AB009402F0A5FC50B9204632211AF09C
:1013B000F3FE06B0BDE8F0810448784419F0B2FFAE
:1013C00006B0BDE8F08100BF664002000C390200A3
:1013D000F0B5B7B005AD0E4604462846C8211AF050
:1013E000DBFEA16928462B221AF071FF9DF83E0012
:1013F000002844D1207B202841D8207D08283ED8D1
:101400002068217902AA0DF1130301F026FC90B3A4
:10141000A068217B9DF8132005F12B034F27009333
:1014200002AB019702F065FC48B302AF3846314683
:101430000B221AF04CFF12208DF813002069217D39
:1014400005F17A023226009212223B46019602F002
:1014500050FCA0B119F096F90A490B4A04F120009A
:1014600049F8010009EB020005A9C8221AF097FE0D
:10147000012037B0F0BD0548784419F053FF002033
:1014800037B0F0BD00000000780400004E380200C4
:10149000024959F8011008701AF04CFC00000000D5
:1014A00082B0044612F086F82548784415F028FDED
:1014B0001F4849F8004000F075F81E48012409F85B
:1014C00000401D48002509F8005019F0E3FA1D48B6
:1014D00078441AF00BFB407901280DD0ADF800508C
:1014E0008DF805408DF80250174878441AF0FEFA3E
:1014F000694606221AF0A4FB1448784419F012FF3A
:10150000002016F0F7FF012016F0F4FF062000215E
:1015100000221AF02DFC09494944C861002000212D
:101520000DF01CFF012000210DF018FF00F084FBDE
:10153000080000000D0000000E000000444F0000F5
:101540004A3702002C77020012770200CC570200C3
:1015500080B50B46014610461A4600F001F880BDE2
:1015600010B582B013460A464FF0000C0021044625
:10157000CDF800C0CDF804C018F0E5FE20B9204633
:1015800018F0DDFE02B010BD19F0E0F880B582B0B1
:101590000A468DF807000DF107000121FFF7D8FF7B
:1015A00002B080BD80B513480021134A09F800102D
:1015B000134809F80210032209F800200F48114AC5
:1015C00009F8001009F802100F48104A49F80010F5
:1015D00009EB02004FF484711AF0DEFD0C48402143
:1015E00048441AF0D9FD0B48C42148441AF0D4FDF0
:1015F00080BD00BF0C0000000D0000000E000000C8
:101600000F0000001000000014000000180000008F
:10161000200100006001000080B50549020A09F8B8
:101620000120494448702020022119F0B7FA80BDFA
:10163000F04D0000F0B581B01249044609EB0106F7
:10164000701C40211AF0A8FDE5780427212D04BF65
:1016500005272025701B2130E1192A461AF0A1FD2B
:10166000B81C4119C8B2204410F8012C212A04BF2B
:1016700001312022B01AC9B2413021441AF091FD43
:1016800001B0F0BDF04D000010B5044600F00700B9
:1016900001280AD0022810D10948484439B11AF06B
:1016A0008BFB200648BF1AF048FA002010BD40F21C
:1016B000511100221AF096FB10BD022019F046F8D5
:1016C000F04D0000F0B581B0154F054600246FF0D5
:1016D000B50603E05B3604F101041DD009EB0700F9
:1016E000204490F802010028F4D009EB07003044B0
:1016F00000F58170294614221AF06EFD0028E9D108
:1017000008482146784419F00DFE09EB07003044E3
:1017100000F5817001B0F0BD002001B0F0BD00BF48
:10172000180000007E4B0200AEB016491EAD044604
:1017300000277944212002222B4600971AF098FABC
:1017400014AE212029462022334618F0ECFD01AFCB
:101750003846314600F018F807F1080041212A46C2
:101760004023402618F0F7FD05482946484440220A
:101770001AF015FD4FF41040266018F0E7FF00BF87
:10178000F04D0000BE60020080B50A4601462120EF
:10179000012318F0C4FD002808BF80BD18F0D6FF53
:1017A0002DE9F0410C46097881B1017815464A1EB1
:1017B0000A2A297002D31648784409E021780139B1
:1017C00021702A78C9B2B1EB820F06D20F48784453
:1017D00019F0A8FD0020BDE8F0812978461C89B1E8
:1017E00005F10408002700BF3046002100F012F880
:1017F00048F827002078013704382070287804360C
:101800008742F1D33046BDE8F08100BF0A5502009F
:10181000265C02004218405C517893780904D27823
:1018200041EA006040EA0320104470472DE9F0418E
:101830008EB00DF10808064640460D461AF00CFD24
:10184000074680B2ADF8347020B3052800F0C3819C
:101850000C9800213E46ADF834101AF0DBFADFF8A0
:10186000CC03494619F8000000280246DFF8C003FF
:1018700018BF012219F8001007F47040B0F5104F9E
:1018800001EA020404D0B0F5C04F44D1FFF78AFE4C
:10189000380A46E002A81AF0BDFAE2494A4619F8A9
:1018A000013009EB01025278B02B0C9002D1042ACE
:1018B00000F09A81E02B15D0F02B40F0A081072A90
:1018C0004FDC022A74D0042A40F0A48109EB010203
:1018D0009078D17813796F4605323E607D6008F0CC
:1018E00015F87CE0112A4DDD192A7EDD1D2A40F312
:1018F000B3801E2A00F0FD80202A00F00381222AF6
:1019000040F0888109EB01029078D1781379053293
:1019100002F04CFF15E0FFF745FE380A0D2161F398
:10192000DF00C04A49462B6809EB0201C854286809
:10193000002C08444670286800F10200286040F03E
:1019400056811AF05DFA404502D10C981AF062FAFD
:10195000BDF83400002804BF0EB0BDE8F08118F0D7
:10196000F5FE082A30D00A2A40F0548109EB010222
:101970009078D17813796F4605323E607D6008F02B
:101980006DFB2CE0092A44DC052A74DC022A00F0F5
:10199000BC80042A40F03E8109EB01029078D178A6
:1019A00013796F4605323E607D6006F0D9FEC8E7C8
:1019B00009EB01029078D17813796F4605323E60C9
:1019C0007D6007F05FFE0AE009EB01029078D178B4
:1019D00013796F4605323E607D6007F0F9FE0C9882
:1019E0001AF018FA0EB0BDE8F081152A5FDC122A51
:1019F00000F09D80142A40F00D8109EB01029078DF
:101A0000D17813796F4605323E607D6003F0EAFAC3
:101A100097E70D2A5CDC0A2A00F095800C2A40F03A
:101A2000F980484609EB0100C278012A00F0CA801B
:101A3000002A40F0F3807C4800274844A0F8027157
:101A400009EB0107B8783B7911466C467A1D266090
:101A5000656006F047FE74E71A2A00F080801C2AB1
:101A600040F0D880306840F01000306009EB010091
:101A700004F06EFA65E7062A7AD0082A40F0CA8098
:101A8000694800234844A0F80231306809EB01029C
:101A900040F0100030609078D1781379053203F06F
:101AA0002DFF00287FF44DAFFFF77CFD49E7162A94
:101AB0006AD0182A40F0AE8009EB01029078D17804
:101AC00013796F4605323E607D6002F003FD38E712
:101AD0000E2A65D0102A40F09D8009EB0102907813
:101AE000D17813796F4605323E607D6003F0E4FBE8
:101AF00027E7306840F01000306009EB010004F087
:101B00007FFA1EE702F06CFA1BE7474809EB010277
:101B100009EB000700249078D1781379A7F80241E7
:101B20006F4605323E607D6002F05CFB09E709EB21
:101B300001029078D17813796F4605323E607D605E
:101B400003F0DEFBFDE609EB01029078D178137912
:101B50006F4605323E607D6003F088F9F1E630683B
:101B600040F01000306009EB010004F0B5F9E8E640
:101B700009EB01029078D17813796F4605323E6007
:101B80007D6002F0F7F9DCE609EB01029078D1788C
:101B900013796F4605323E607D6003F09DFCD0E610
:101BA000214809EB010209EB000700249078D17865
:101BB0001379A7F802416F4605323E607D6002F05E
:101BC000C1FABEE6306840F01000306009EB010059
:101BD00004F06EFAB5E60C980021ADF834101AF056
:101BE00019F9052018F0B2FD2846FFF79DFD81B2D6
:101BF000202018F0D3FF30B90020FFF749FC4FF444
:101C0000DC4018F0A3FD0B48784419F08BFBFF2053
:101C10001AF0C6F84FF4DA4018F098FD4FF4D640A9
:101C200018F094FDF04D0000180000000D000000B9
:101C30000E0000006F4302008EB03F4E00256C4640
:101C40000DF130080DF1340ACDE90C5504E000BF68
:101C5000BDF82C0000285BD120461AF0FDFA1FFACF
:101C600080FBBBF1000FADF82C0025D0BBF1050FB8
:101C700050D007460A98ADF82C501AF0CBF807F46C
:101C80007040B0F5104F04D0B0F5C04F36D1FFF71B
:101C900089FC380ABBF5104F03D00C9921F01001D4
:101CA0000C9149460D9A09EB06018B188854901C3B
:101CB0005F700D901AE000BF20461AF0ABF80A9052
:101CC000BDF834109DF830000D9518F067FF0C95A5
:101CD00048B3052806D3494609EB060109790531C1
:101CE000814224D140465146FFF7A0FD1AF088F802
:101CF000A042ADD10A981AF08DF8A9E7FFF752FC7F
:101D0000380A0D2161F3DF00BBF5104FC5D1C8E7DC
:101D100018F01CFD0A980021ADF82C101AF07AF882
:101D2000052018F013FD46F6821018F00FFD46F658
:101D3000831018F00BFD00BFF04D000080B5174870
:101D400019F800100D2905DC0C2915D00D2917F004
:101D50002BF817E00E2913D015290AD11049494450
:101D60008979012905D148440321FFF753FD000774
:101D700010D517F019F805E0484416F089FF01E086
:101D800016F0DAFF1AF024F8002808BF18F008FD52
:101D9000012080BD052018F0D9FC00BF24020000FE
:101DA000444F000010B58CB06C4620461AF054FA2F
:101DB0000104ADF82C000ED01AF022F8A04202D196
:101DC0000A981AF027F8BDF82C00002804BF0CB0C0
:101DD00010BD18F0BBFC68461AF01CF80A90FF20F2
:101DE00019F0DEFF00214161C160C0E90111C1703D
:101DF0004821817054214170452101700121016108
:101E000070470000B0B594B0A0B1816819B1414AE3
:101E10004B4649F80210C0683F4A494649F802005B
:101E200040B13C494A4659F8011000290CBF012134
:101E300000210172374D484659F8050030B90EAC03
:101E40002046FFF7CFFF484649F80540FFF7AAFBB9
:101E500032480025484402AC494680F8045100BF8E
:101E600011F0A8FB20461AF0F7F981B20529ADF868
:101E7000340008D10C98ADF8345019F0CBFF0C9811
:101E800019F0C8FFECE761B10C980021ADF83410EF
:101E900019F0C0FF0C9819F0BDFFFFF783FF14B0D5
:101EA000B0BD02A819F0B6FF0C9018F0F3FD0024A5
:101EB00006202146224619F05BFF19494944C861B2
:101EC0001848784419F012FE407960B94FF48070D8
:101ED0000094ADF804001448784419F007FE6946F0
:101EE000062219F0ADFE0024204616F003FB012562
:101EF000284616F0FFFA08F087FF204621460DF02D
:101F00002DFA284621460DF029FA02F04FF8FFF786
:101F100093FE00BF0800000004000000180000004D
:101F2000444F00003A6D0200246D020086B0044662
:101F3000806820B96D462846FFF754FFA560114818
:101F4000784419F0EFF9606802280FD0042807D010
:101F5000032809D1D4E90210FFF7F4F819F0EAFEDA
:101F6000D4E90210FFF7E4F919F0E4FED4E9021015
:101F7000FFF72EFA10B1A068FFF792FAFF2019F0D0
:101F80000FFF00BF8B3B020010B5044662B618F08D
:101F9000D7FB44B12068B0F5807F09D16068012883
:101FA0000AD1204600E00020FFF72CFF002010BDE2
:101FB000FFF7F8FE002010BD2046FFF7B7FF000036
:101FC0000248002149F80010704700BF6C0700006C
:101FD00080B5FFF7F5FF80BD074959F8012010448F
:101FE000B0F5005F84BF00207047044B49F8010042
:101FF00009EB0300104470476C07000070070000F5
:10200000044959F80120101A38BF002049F801008E
:10201000704700BF6C0700002DE9F04105460A2813
:1020200088464FF0010409D311482946A1FB00233B
:1020300063294FEAD30104F10104F7D8E0B2471C49
:102040003846FFF7C9FF064670B10A4A30467A445F
:1020500039462B4619F01AFB0120FFF7D1FFB8F1E2
:10206000000F18BF88F800403046BDE8F08100BF7F
:10207000CDCCCCCCAE2B0200B0B5044600200D4632
:10208000FFF7AAFFB0FBF5F101FB1500C0B218B1D4
:10209000281AFFF7A1FF18B12046FFF79DFFB0BD3A
:1020A0000020B0BD80B500F007F818B1006819F045
:1020B0001DFD80BD002080BD10B5D0E900CE094BCC
:1020C00000217B445818D0E9022484EA0E0482EAF5
:1020D0000C02224308BF10BD1031B1F58C6FF1D155
:1020E000002010BDF264020080B5FFF7E5FF18B1D3
:1020F000406819F0FBFC80BD002080BD80B5FFF773
:10210000DBFF002818BF012080BD000080B510480B
:1021100009EB000191F83C104A1E022A07D20D4833
:10212000484490F8A410843001F050FC80BDC029D0
:1021300007D14844406B90F8C210BA3001F046FC19
:1021400080BD0548784419F0EDF80020002180BDDD
:102150002001000060010000D324020080B5FFF7D9
:10216000C3FF0349002859F8011008BF084680BD85
:1021700008000000B0B50D49054659F80110D5E931
:10218000002351F8100F4C68504084EA03021043BA
:1021900004BF0120B0BD0846FFF7B0FF00280EBF06
:1021A00000202846FFF7AAFFB0BD00BF08000000CE
:1021B00010B58AB00F4802AC09EB00014FF04F0C8C
:1021C00001F12B0320462B22CDF800C0FEF790FC36
:1021D00040F205102146FEF731FE08B10AB010BDED
:1021E0000548784419F09EF8002007F0FFF90AB07E
:1021F00010BD00BF780400000426020010B590B0A6
:102200009C46104B8E4609EB030191F842100346A1
:1022100002AC009220461A467346CDF804C0FEF781
:1022200079FC4FF483702146FEF708FE08B110B028
:1022300010BD0548784419F075F8002007F0D6F96C
:1022400010B010BD50030000192E0200B0B50C46AE
:102250001821054619F0A0FF2C60B0BDC17D0268B1
:102260001170817D02685170417D02689170017D1D
:102270000268D170C17C02681171817C0268517161
:10228000417C02689171017C0068C17170472DE941
:10229000F0410446069940681E46084415463F280A
:1022A000606019D8C0F14001C1F1200306FA01F2C3
:1022B00025FA03F31A43D0F1200058BF05FA00F2C3
:1022C00005FA01F0D4E9041358BF00201A4308436B
:1022D000C4E90402BDE8F081A0F14002891A4FF080
:1022E000FF3808FA01F1CB43DF17C4E90237C0F128
:1022F000600706FA07FC25FA02F747EA0C07603880
:10230000626058BF26FA00F726FA02F058BF002094
:1023100027EA0101D4E9042700EAE37038431143B6
:10232000C4E904102046FFF799FFD4E900200021FA
:102330002161616102F108010028216008BFBDE848
:10234000F08108FA00F1CA4306EAE277C0F14006DC
:1023500025EA0101C6F1200521FA05F5B7402F4312
:10236000D0F120004FEAE27358BF01FA00F701FAFA
:1023700006F058BF0020C4E90223C4E90407BDE801
:10238000F0810078B82816D3BF2806D8A0F1B6038C
:102390008B4208D8BC280AD20DE0F8280BD3A0F154
:1023A000F6038B4201D900207047FC2803D300209C
:1023B00010700120704701201070704790F900C024
:1023C000BCF1000F06D400204FF0010C1060C1F8E2
:1023D00000C00CE05FFA8CFCBCF1B70F0AD84FF0DC
:1023E000010CC2F800C00078803808600020187026
:1023F00060467047BCF1BF0F0FD8ACF1B60CC2F805
:1024000000C04FF0000C83F800C00278B92A12DC3B
:10241000B82A29D0B92A22D041E0BCF1F70F0FD851
:102420004FF0010CC2F800C0007883F800C0C0383B
:10243000086060467047BA2A27D0BB2A1AD02EE01F
:10244000ACF1F60CC2F800C001221A7002784FF00D
:10245000000CF92A0ADCF82A06D0F92A1FD14278A2
:10246000807840EA022017E0407815E0FA2A0CD084
:10247000FB2A14D1837890F801C0C2781B0400793C
:1024800043EA0C6343EA022205E083784278C0788D
:102490001B0243EA024210444FF0010C0860604600
:1024A0007047000080B582B008480A4A484400F1ED
:1024B000810C07487A4448444FF480712023CDF8BA
:1024C00000C019F0E3F802B080BD00BF5003000067
:1024D00078040000C63C020080B582B008480A4A71
:1024E000484400F1A10C07487A4448444FF48071F5
:1024F0002023CDF800C019F0C9F802B080BD00BF9C
:102500005003000078040000923C0200F0B58BB04C
:10251000022903463AD314460A46186820498842DD
:1025200034D158681F49884230D10DF10B0500277E
:10253000212019462B46009719F09AFB1A482021B2
:1025400078442A4618F0EEFE184E7E442846212193
:10255000224620238DF82B7017F0F9FE30462021FB
:10256000224618F0DFFE204600F026F8B0F1FF3FCB
:1025700007F10107EADC204600F030F80C48202182
:102580007844224618F0CEFE0BB0F0BDD3E900121D
:102590000848784418F0C6FE4FF4D54018F0D6F835
:1025A000550A0080D32A86A28C2D0200FA4C020024
:1025B00088260200D828020080B582B0064901AB07
:1025C0007944202217F0CFFE002802BF019802B004
:1025D00080BD18F0BBF800BF3852020080B5054A34
:1025E00020217A44202317F0C2FE002808BF80BDB6
:1025F00018F0ACF8365202002DE9F04D9AB093462F
:10260000314A064659F802A030480D467844142154
:1026100032461C4618F086FE304600F061F830B1B4
:102620002B48784418F07EFE4FF012080EE030463A
:10263000FFF748F8002842D090F81F8000F1140AF4
:10264000244841467844524618F06CFE12AF584672
:1026500008213A4601F043F90AAE2846314600F017
:1026600035FE02AD384631462A4600F0BDFF284609
:102670000A212246642301F08DF817482146784448
:1026800018F050FE229E51463046642219F01FFE7B
:10269000204619F031FE0546504619F02DFE32183D
:1026A000204629466423CDF8008001F081FA0B48CA
:1026B0003146784418F036FE1AB0BDE8F08D4FF47C
:1026C000D54018F043F800BF08000000672A020058
:1026D000DA460200234102008E210200A11F0200FF
:1026E000017800291EBF012080F001007047411CC5
:1026F000002200BF132A4FF0000038BF012003D092
:102700008B5C0132002BF5D080F001007047000097
:102710002DE9F0419AB00E460446084611461F4680
:10272000154600F031F810B11AB0BDE8F081154837
:1027300007EB871178440DF12408014440464122FB
:1027400019F02DFD18F018FC002001AFCDE90700AD
:10275000CDE90500CDE90300CDE90100781B20306B
:1027600031462A4619F01BFD4046394600F025F84F
:1027700018F002FC20462146424600F031F81AB01B
:10278000BDE8F0810451020000298C4618BF4FF0CB
:10279000010C0FD003786BB9012300BF8B424FF0BF
:1027A000000C38BF4FF0010C994203D0C25C0133DA
:1027B000002AF3D08CF00100704780B582B00A4641
:1027C00001465120202317F0B6FD38B901A9512048
:1027D00019F042FA002804BF02B080BD17F0B6FF1E
:1027E00080B582B013460A460146512017F08FFD8E
:1027F00038B901A9512019F02FFA002804BF02B0FE
:1028000080BD17F0A3FF0000F0B591B00F4614494A
:102810006D461646044679442846412219F0BFFC0D
:102820002846394601220123FFF772FF791C28460A
:102830001F220023FFF76CFF2846314601220323A5
:10284000FFF766FF711C28461F220223FFF760FF77
:10285000691C2046202219F0A2FC11B0F0BD00BF77
:1028600026510200B0B590B008AD2946044600F0EC
:102870002DFD284600F0F4FDF82820D300F00700D5
:10288000013803281DD808A86A46042100F04BFD32
:10289000DDE90023204601F039F8DDE9022304F1E7
:1028A000080001F033F8DDE9042304F1100001F021
:1028B0002DF8DDE9062304F1180001F027F810B027
:1028C000B0BD4FF4D54017F041FF00002DE9F04DA9
:1028D00094B004460020139032488A46DDE91C8BF0
:1028E000784420211E46154618F01CFD2E48202154
:1028F0007844324618F016FD2C4820217844424690
:1029000018F010FDBBF1000F19D0294820217844A0
:102910005A4618F007FD0BAF384629463246FFF7F6
:1029200073FF2448202178443A4618F0FBFC3846CF
:1029300039465A46FFF768FF1F48784406E00BA85F
:1029400029463246FFF760FF1C4878440BAD202132
:102950002A4618F0E7FC284629464246FFF754FF6E
:102960001748202178442A4618F0DCFC2846FFF757
:1029700079FF01AE5046314600F026F818F0FCFA17
:1029800013AB30462946224600F02AF805460D488A
:1029900029467844224618F0C5FC284614B0BDE804
:1029A000F08D00BF8A3D02001C240200FA310200B3
:1029B000F24A020073370200874502004F370200D7
:1029C000A6310200712A020080B50B460146512053
:1029D000202217F0A8FC002808BF80BD17F0B6FE23
:1029E00010B586B01C460B464821944605910DF162
:1029F000100E05AA20210091CDE9022E40F20161BE
:102A00000322CDF804C017F07AFC30B9002C1CBFAB
:102A100004982060059806B010BD17F097FE0000DE
:102A20002DE9F04D8CB09B4614460E46054600F04D
:102A3000F9F826B130461421FFF7A6FE58B17148C7
:102A4000784418F06FFC002700976F4A28467A44B4
:102A5000002104233AE0022C08DD052C0ED0042CC2
:102A60000FD0032C07D1634F7F440CE05F4F7F44AE
:102A70004CB1022C07D05E487844B1E05E4F7F44F1
:102A800001E05E4F7F445E4814217844324618F0DE
:102A900049FC0DF10C084046242119F07DFB3878E3
:102AA000B978FA787B7841EA022140EA032040EACB
:102AB0000140039008F110003146142219F06FFB19
:102AC000002700972846002142462423019700F062
:102AD000B3F8DDE915A8052C01D0032C19D100208D
:102AE000CDE90900CDE90700CDE90500CDE90300F6
:102AF00001208DF82B00454803AF784420213A4649
:102B0000202618F00FFCCDF80080284601213A4617
:102B10000BE03F48202178445A46202618F002FC5A
:102B2000284601215A46CDF800802023019600F066
:102B300083F8BAF1000F3BD1032C32D398F8000090
:102B400000F0030088F80000284600F06BF8201F12
:102B5000022802D2314F7F4403E0032C3ED12D4F97
:102B60007F44DDF850B0384619F0C6FB0346002616
:102B7000284600213A460096019600F05DF8284666
:102B8000002142462023CDE90066202600F054F8BB
:102B9000284601215A462023CDF80080019600F0F6
:102BA0004BF804F0FE00042808BFBAF1000F0ED065
:102BB00098F8000000F0030088F800001848202171
:102BC0007844424618F0AEFB0CB0BDE8F08D04200E
:102BD00088F80000002088F80100EFE70E487844EC
:102BE000214618F09FFB0CB0BDE8F08D174F020096
:102BF0009E3E0200214F0200FF4E0200FD4E0200E9
:102C000066280200D93902003F4F0200B63F020099
:102C10009A3F0200B45E0200A43A02003B4E02005A
:102C20001F43020080B54FF4807117F098FB002815
:102C300008BF80BD17F08AFD10B582B0DDE904CE73
:102C40000446CDE900CE17F07EFB20B9204617F0F0
:102C500076FB02B010BD17F079FD2DE9F041F9B116
:102C600004780F4605468C424FF0000016D2611ED4
:102C7000C9B2082912D81646691C10462246984641
:102C800019F08DFA601CC1B20020B942305528BF3E
:102C9000BDE8F081685C88F800000120BDE8F081A3
:102CA0000020BDE8F081B0B50C46054600F04EFEB0
:102CB000C4E9000105F1080000F048FEC4E9020182
:102CC000B0BDD0E9021211431CBF00207047D0E90B
:102CD00000010843B0FA80F040097047D1E90032A2
:102CE000C0E90032D1E90221C0E902217047002188
:102CF000C0E90011C0E9021170472DE9F0418029B7
:102D000004D31046FFF7F3FFBDE8F081034649B155
:102D100040290DD1D3E90201002382E80B00D360E2
:102D2000BDE8F08110461946FFF7D8FFBDE8F081F5
:102D30003F293FD893E80150C1F12005D3F80C801A
:102D40000CFA01FC20FA05F6C1F1400746EA0C0630
:102D5000C7F12004B1F1200C58BF00FA0CF600FABC
:102D600001F02EFA07FE08FA04F458BF002044EAE6
:102D70000E04002D28FA07F758BF28FA05F458BFAB
:102D8000002700197741C2E90007D3E90230BCF1FE
:102D9000000F23FA05F700FA01F040EA070003FAF2
:102DA00001F158BF03FA0CF058BF0021C2E902102C
:102DB000BDE8F0814029A4D0D3E90203A1F1400786
:102DC000C1F16006BB4020FA06F63343603958BFB4
:102DD00000FA01F300FA07F04FF0000158BF00209D
:102DE000C2E90003C2E90211BDE8F081F0B585B087
:102DF000802904D31046FFF77AFF05B0F0BD0346E3
:102E000051B140290BD10020C2E90000D3E90010E4
:102E1000C2E9021005B0F0BD104619463AE03F295C
:102E20003CD8D3E900C0C1F1200400FA04F52CFA23
:102E300001F63543D3E902E3B1F1200658BF20FA89
:102E400006F520FA01F758BF0027CDE90057C1F178
:102E50004005C5F12007A8402CFA07F73843002C9D
:102E600058BF0CFA04F00CFA05F703FA04F52EFA31
:102E700001F458BF00272543002E23FA01F158BF63
:102E800023FA06F558BF0021EB194841CDE902307D
:102E900069461046FFF722FF05B0F0BD4029A9D0D2
:102EA000D3E90003A1F14007C1F1600603FA06F679
:102EB000F8403043603958BF23FA01F023FA07F194
:102EC0004FF0000358BF0021C2E90033C2E90201FC
:102ED00005B0F0BDD0E9002152EA010309D0B2FAF1
:102EE00082F02030002918BFB1FA81F0C0F18000D3
:102EF0007047D0E9021051EA000204BF0020704779
:102F0000B1FA81F12031002818BFB0FA80F1C1F187
:102F10004000704780B5D0E900C3D1E900E25A40D3
:102F20008CEA0E031A431CBF002080BDD0E90202C8
:102F3000D1E902135A4048401043B0FA80F04009EA
:102F400080BDB0B5D0E9003CD1E9002E8CEA0E047A
:102F500083EA02052C4307D1D0E90202D1E902132A
:102F6000081A73EB020002E0D01A7EEB0C004FF05F
:102F7000000038BF0120B0BDB0B50C460546FFF7D4
:102F8000E0FF00281CBF0120B0BD28462146FFF706
:102F9000C1FFB0BD2DE9F04190E8005191E8E0009B
:102FA000C468CB6815EB080546EB0C0617EB0E075B
:102FB000634155F1000346F10007C2E90037D0E94B
:102FC0000230D1E90271DB194841C2E90230BDE8A3
:102FD000F0812DE9F04190E8005191E8E000C468EB
:102FE000CB68B8EB05056CEB0606BEEB070774EB88
:102FF00003034FF0000338BF01236F1E66F1000486
:10300000002B04BF2F463446C2E90074D0E90230D9
:10301000D1E90271DB1B8841C2E90230BDE8F081D1
:1030200010B5D0E900CED1E9004343EA0E0344EAEB
:103030000C04C2E90043D0E90230D1E90214204374
:103040001943C2E9021010BD2DE9F04D94B00446B9
:103050000020CDE900000390012002902046984610
:1030600092460E46FFF736FF05463046FFF732FF21
:10307000074608A8FFF73BFE04A82146FFF72EFEEF
:1030800030462146FFF75DFF48B140462146FFF735
:1030900025FE5046FFF72BFE14B0BDE8F08DEC1B6B
:1030A00010AD304621462A46FFF727FE68460CAA97
:1030B0002146FFF722FE04A92846FFF742FF48B148
:1030C00010A801210246FFF791FE0CA8012102463B
:1030D000FFF78CFE04A83146FFF74EFF30B304AF74
:1030E00010AC0CAD0DF1200B0FE000BF204601210C
:1030F0002246FFF77BFE284601212A46FFF776FE8F
:1031000038463146FFF738FF80B138462146FFF791
:1031100033FF0028EAD0384621463A46FFF759FFE8
:10312000584629465A46FFF77BFFDFE708A9504675
:10313000FFF7D4FD04A94046FFF7D0FD14B0BDE869
:10314000F08D00002DE9F04D8CB00E46014608A828
:103150001D469346FFF7C2FD04A8FFF7C8FD684669
:10316000FFF7C5FDB11E00200E290390029627D857
:10317000174C6F1E002508AE7C440DF1100A00BFED
:10318000BD4220D83046694632465346FFF75CFFC1
:103190009DF8180005F10108205C0BF80500304689
:1031A000FFF78FFD00284546EAD0B8454FF00000F4
:1031B00006D80BF808005846414600F0DDFB012018
:1031C0000CB0BDE8F08D00200CB0BDE8F08D00BF64
:1031D000093002002DE9F04595B09A4614460F4695
:1031E0000A29064636D108A8102118F0E1FF01206F
:1031F0000DF1100800250A90404610210B9518F09B
:10320000D7FF0220079506904FF0FF300CADCDE9B7
:103210001000CDE9120010A86B4641462A46FFF780
:1032200013FF30462946FFF78CFE98B16D4610A873
:1032300031462A46FFF7CDFE08A928462A46FFF761
:10324000A9FE2D2004F8010BAAF1010328460A214A
:10325000224603E03046394622465346FFF772FFC6
:1032600015B0BDE8F085F0B585B00D46C9B214467D
:10327000064600F0ABFBC81701AFC5F11001C2B2A2
:10328000384618F090FF781B103031462A4618F067
:1032900086FF38462146FFF706FD05B0F0BDF0B5C4
:1032A00085B001AF0D460646C1F1100138461446FF
:1032B00018F072FF781B103031462A4618F06FFF65
:1032C00038462146FFF7EFFC05B0F0BDB0B50C461F
:1032D0000546FFF7E8FC05F1100004F11001FFF7C7
:1032E000E2FCB0BD10B504461030FFF7EAFC002840
:1032F0000EBF00202046FFF7E4FC10BDB0B50C4621
:103300000546FFF7EBFC05F1100004F11001FFF793
:10331000E5FCB0BD10B50446FFF7E9FC04F1100070
:10332000FFF7E5FC10BD2DE9F04591B01446B1F56D
:10333000807F05D32046FFF7EDFF11B0BDE8F08593
:103340000D46064639B1802D08D106F11001204600
:10335000FFF7C4FC30E0204631461FE07F2D22D825
:103360000DF13008304629464246FFF7C6FC1036BC
:103370000DF1200AC5F1800130465246FFF736FDB7
:103380006F46404651463A46FFF704FE07F11002E9
:1033900030462946FFF7B1FC20463946FFF7AEFF1D
:1033A00011B0BDE8F085802DC4D006F11000A5F164
:1033B00080012246FFF7A1FC04F11000FFF797FC03
:1033C00011B0BDE8F0852DE9F04190B01446B1F59B
:1033D000807F05D32046FFF79DFF10B0BDE8F08148
:1033E0000E46054639B1802E08D104F11000294659
:1033F000FFF774FC2EE0204629461DE07F2E20D8E2
:10340000E846284631464246FFF7F0FC0CAF05F18E
:10341000100031463A46FFF7E9FCC6F1800108AEDC
:1034200028463246FFF769FC08F11002384631465B
:10343000FFF7B0FD20464146FFF760FF10B0BDE842
:10344000F081802EC6D0A6F1800104F1100228463A
:10345000FFF7CCFC2046FFF74AFC10B0BDE8F08136
:10346000B0B584B00446FFF72CFCB8B104F11001EC
:103470006C462046FFF732FC2046FFF722FC002472
:1034800018BB6D46284601212A46FFF7AFFC2846A7
:103490000134FFF716FC0028F4D016E06D462846EC
:1034A0002146FFF71BFC2846FFF70BFC802460B980
:1034B0006D4600BF284601212A46FFF797FC2846A3
:1034C0000134FFF7FEFB0028F4D0204604B0B0BD65
:1034D000B0B50C460546FFF71DFD002804BF0020CF
:1034E000B0BD05F1100004F11001FFF713FDB0BDF0
:1034F000B0B50C460546FFF70DFD002807BF28466E
:10350000214605F1100004F11001FFF71AFDB0BDCE
:10351000B0B50C460546FFF7EBFF00281CBF0120A5
:10352000B0BD28462146FFF7D3FFB0BDF0B589B046
:1035300014460E460546FFF72DFD1035103604AF34
:10354000284631463A46FFF725FD28463946FFF71B
:10355000F8FC50B10020CDE900000390012002905A
:10356000694620462246FFF715FD04F11002284661
:103570003146FFF70FFD09B0F0BDF0B589B0144634
:103580000E460546FFF725FD1035103604AF2846D8
:1035900031463A46FFF71DFD38462946FFF7D1FC74
:1035A00050B10020CDE9000003900120029069464F
:1035B00020462246FFF70DFD04F110022846314651
:1035C000FFF707FD09B0F0BD70B514460D4606467D
:1035D000FFF726FD06F1100005F1100104F11002BD
:1035E000FFF71EFD70BD00002DE9F04DA2B08B4627
:1035F000074602A84021019218F0CEFD002612AD28
:103600001AAC00BF6FF0080000EAC60807EB08001C
:1036100006F0010A00EBCA0150F83A204B68204638
:1036200000F074F90BEB080000EBCA0150F83A20E7
:103630004B68284600F06AF901360835042E04F17B
:103640000804DFD102AC1AA912AA204600F018F82B
:10365000019F203400256FF0080600BF06EAC50070
:1036600005F00101384400EBC101204600F05DF98E
:103670000135042D04F10804F0D122B0BDE8F08D2D
:1036800080B5202316F077FE002808BF80BD17F014
:103690005DF800002DE9F04DA8B004466846984654
:1036A00092460E46FFF736FE0020CDE90400079053
:1036B000012006902046FFF7D3FE05463046FFF76F
:1036C000CFFE074610A8FFF725FE08A82146FFF702
:1036D00015FE30462146FFF70BFF48B14046214614
:1036E000FFF70CFE5046FFF715FE28B0BDE8F08D41
:1036F000EC1B20AD304621462A46FFF714FE6846F3
:1037000018AA2146FFF70FFE08A92846FFF7F0FE8A
:1037100048B120A801210246FFF755FE18A8012153
:103720000246FFF750FE08A83146FFF7F1FE28B326
:1037300008AF20AC18AD0DF1400B0EE02046012182
:103740002246FFF740FE284601212A46FFF73BFEAE
:1037500038463146FFF7DCFE80B138462146FFF798
:10376000D7FE0028EAD0384621463A46FFF705FF43
:10377000584629465A46FFF727FFDFE710A950466B
:10378000FFF7BCFD08A94046FFF7B8FD28B0BDE82B
:10379000F08D00002DE9F04D98B00E46014610A8BE
:1037A0001D469346FFF7AAFD08A8FFF7B3FD68463C
:1037B000FFF7B0FDB01E0E284FF00000CDE9040069
:1037C000CDE9066030D87DB31C4C002610AF7C4498
:1037D0000DF1200A384669463A465346B046FFF78F
:1037E00059FF9DF838000136205C0BF80800384678
:1037F000FFF778FDAE4201D20028EBD0B5420BD1E5
:10380000042D14D30E49584679442A4618F05FFD1A
:10381000002018B0BDE8F08D00200BF806005846D7
:10382000314600F0A9F8012018B0BDE8F08D002065
:103830008BF8000018B0BDE8F08D00BFB32902007E
:103840002B2C02002DE9F045A9B09A4614460F46EC
:103850000A2906463AD110A8202118F0A9FC012017
:103860000DF120080025169040462021179518F0EC
:103870009FFC02200F950E904FF0FF3018ADCDE960
:103880002000CDE92200CDE92400CDE9260020A8C2
:103890006B4641462A46FFF7FDFE30462946FFF7B4
:1038A00027FE98B16D4620A831462A46FFF765FEEF
:1038B00010A928462A46FFF739FE2D2004F8010BEF
:1038C000AAF1010328460A21224603E03046394680
:1038D00022465346FFF75EFF29B0BDE8F085F0B5FC
:1038E00089B001AF0D460646C1F1200138461446A5
:1038F00018F052FC781B203031462A4618F04FFC55
:1039000038462146FFF7E2FC09B0F0BD190E017000
:10391000190C4170190A8170110E0171110C41715D
:10392000110AC3708171C2717047C2790A708279BD
:103930004A7042798A700279CA70C2780A718278B4
:103940004A7142788A710078C8717047427890F85D
:1039500000C083781204C17842EA0C6242EA032272
:10396000114402794379120642EA03428379C0790D
:1039700042EA032210447047013908BF7047002211
:10398000435C10F802C0835400F801C001320139D1
:103990008A42F5D37047000010B592B10A4C023844
:1039A0007C4400BF0B78013A4FEA1313E35C00F844
:1039B000023F11F8013B03F00F03E35C4370F1D1C8
:1039C00002300021017010BDE1270200A9B14A1E9A
:1039D000072AA0F101034FF000004FF0000228BFBA
:1039E000082100BF13F801CF120242EA1062013928
:1039F0004CEA0020F6D111467047002000217047A4
:103A00002DE9F04D984692460F460646002200BF2B
:103A1000D5B26C1C44452FD29346304639460A2213
:103A2000002318F02BFAD6F109024FF00002BA4138
:103A300000EB8002A6EB420242F030020AF80520B9
:103A40000BF1010206460F46E2D3D0B200215FEA35
:103A50000B620AF800100FD04FF0FF300AEB0001A4
:103A60004A781AF805300AF805204B70811C013D90
:103A7000A94200F10100F1D30020444538BF0120E4
:103A8000BDE8F08D2DE9F04589B092460A46014621
:103A9000202A4FF0000039D801AECDE90700CDE96A
:103AA0000500CDE90300CDE90100B01A20309846A9
:103AB00018F075FB304600F063F830B1B8F1020F32
:103AC00027D2002009B0BDE8F085002036F810109C
:103AD00009BA090C26F8101001301028F6D101AEF1
:103AE000304600F04DF8B0FA80F14FEA5114D0B1F1
:103AF0004746A8EB07050AEB070150462A4618F08F
:103B000050FB00200AF8050084F0010009B0BDE870
:103B1000F0851A4950467944424618F0D8FB0120F6
:103B200009B0BDE8F085B8F1000FEDD0124D474661
:103B30000020002136F8102042EA0141A1FB0523B4
:103B4000DA0802EB820326F8102001301028A1EBDE
:103B50004301EFD1013F41F030000AF80700304641
:103B600000F00EF8B0FA80F100284FEA5114C0D1ED
:103B7000002FDDD1C8E700BFCDCCCCCC0A2002009D
:103B8000017800291EBF012080F001007047411C10
:103B9000002200BF1F2A4FF0000038BF012003D0D1
:103BA0008B5C0132002BF5D080F0010070470000E3
:103BB0002DE9F04D9B4614460E46012907460FD1CC
:103BC000387830280CD1BBF1020F4FF0000038BF1D
:103BD000BDE8F08D3021217060700120BDE8F08DCE
:103BE000DDF820C0B44505D206F1020EDE4507D946
:103BF000002040E00CF1030ADA4513D9002072E0FE
:103C0000B6EB0C021ED0ACEB06034FF0FF3200BF48
:103C1000B918A51801324978981801306970F7D1A0
:103C2000531C10E03020BCEB060820704FF02E0033
:103C3000607048D0A01C4146302218F0B4FA08F158
:103C4000020C42E00023BCF1000F9C461EBF03F1B2
:103C5000010C2E20E054B34260460AD2D819471E08
:103C6000F31A624617F8011F501CA154013B02468B
:103C7000F8D100212154DE4584BF0020BDE8F08D3D
:103C8000002384454FF0000111D24242ACF1010003
:103C9000002100BF27187F780130002908BF0146A6
:103CA000302F02EB000718BF19460137F2D1002967
:103CB00093D0481E235C00222E2B625408BF22544E
:103CC0000120BDE8F08D4FF0020C60464EB1791E28
:103CD000634600BF11F8012F581CE254013E034611
:103CE000F8D100212154DA4584BF0020BDE8F08DD1
:103CF000C6E72DE9F04D9AB001AC0D4607462046C7
:103D000064211E46924618F047FA38462946224654
:103D10006423FFF7B7FE80B3DDE9228B01A864219D
:103D200018F019FB074630460B2118F014FBC4B2FB
:103D300005462246404631465C4588BF5A4618F043
:103D40002EFA002C1EBF0135202008F80400E8B22E
:103D500008EB0002C043F9B200EB0B0301A8CDF859
:103D600000A0FFF725FF00281EBF0BEB0801002273
:103D700001F8012C1AB0BDE8F08D00201AB0BDE8A2
:103D8000F08D70B58AB00C46064610464FF480712F
:103D9000154616F0E4FA58B9202006F1090202AEE1
:103DA0000190284601214023009616F0CCFA10B16C
:103DB00000200AB070BD06F10C012046142218F054
:103DC000EEF901200AB070BD70B58AB00D46064606
:103DD00010464FF48071144616F0C1FA58B92020ED
:103DE00006F1090202AE019020460121402300960F
:103DF00016F0A9FA10B100200AB070BDDDE90E136B
:103E000006F10C00009129462246019300F002F8C9
:103E10000AB070BD2DE9F0458FB092460C46DDE941
:103E20001621054622F0010383F01E030B4318D12F
:103E300002AF10463A463323FFF7E2FDD8B33846C7
:103E4000332118F088FA30493B18C0F13302794425
:103E5000184618F019FA3846332118F07CFA07464C
:103E600000E000270DF10808284E07EB0800023893
:103E70007E444FF0FF3100BF6A18527801311309B8
:103E8000F35C02F00F02B25C00F8023F13294270AB
:103E9000F2D150464FF4807116F061FA58B92020E3
:103EA00007F128030190504601214246CDF80080D9
:103EB00016F049FA18B100200FB0BDE8F0850020D7
:103EC0004FF0040C0DE000BF18F803108CEA8703D4
:103ED000D940B25C090748BF203A22540130282853
:103EE0000BD04308E95C10F0010701F00F0208BF96
:103EF0000A09092AE8D8B25CEFE7002084F8280014
:103F000001200FB0BDE8F085582402001123020003
:103F1000B0B582B014460D462A2A10D9DDE9062C28
:103F20003021297078216970A91C00921A46CDF8B9
:103F300004C0FFF76FFF10B1012002B0B0BD04490B
:103F400028467944224618F0C2F9002002B0B0BDDC
:103F50005022020080B5142A28BF1422891A203169
:103F600018F01FF980BD80B5202A28BF202218F044
:103F700018F980BD0C48019C784417F0B7FD007813
:103F8000084940F00E0009F8010009EB0100012189
:103F900041700A2181700421C1704FF410402160EA
:103FA00016F0D4FBF04D0000844C020080B500F008
:103FB00007F8024949F8010080BD00BF70270000E2
:103FC00080B582B001A8042116F0D9F9019802B099
:103FD00080BD0000014859F80000704770270000BC
:103FE00080B5FFF7F7FF01460748784417F09AF9C4
:103FF000FFF7F0FF00F00AF800F016F82020062185
:1040000016F0CCFD80BD00BF2F0C02000549020E4A
:1040100009F801204944020C4A70020A8A70C870EB
:10402000704700BFF04D00000348902148440171E3
:1040300000214171704700BFF04D0000F0B5CDB0D8
:1040400014460D46064616F097FF45AF3920314617
:104050002A463B4617F030FE16F08EFF6D46284686
:10406000302118F099F84ECF05F110004EC097E8B6
:104070004E0033AF4EC02846394600F02FF818AE38
:104080003046394600F036F82846602118F090F89E
:104090003846482118F08CF802208DF82F0006F1E0
:1040A000390128462A4600F031F805F1300000F0C9
:1040B00037F86FF07F020028C8BF6FF05F029DF8ED
:1040C000690006F1090100F01F0010448DF8690035
:1040D0002046302218F063F84DB0F0BD80B50B4695
:1040E00001463920302216F01EF9002808BF80BD95
:1040F00016F02CFB80B50A4601463920012316F044
:104100000EF9002808BF80BD16F020FB80B53023D3
:1041100016F031F9002808BF80BD16F017FB00002B
:1041200080B582B0064901AB7944302216F01BF904
:10413000002802BF019802B080BD16F007FB00BF47
:104140007338020070B58CB015461C4A0E4619F83B
:104150000210044600298DF82F3008BFFDF722FA1F
:10416000022C1AD2CEB96E460DF12F0128463246E6
:10417000FDF716FBA8B1124A9DF800104A44301D05
:104180000832FFF75BFF84B1109C06F0FCFC20684E
:1041900040F0100020600CB070BD4FF4D64016F017
:1041A000D5FA4FF4D54016F0D1FA119C00F00AF878
:1041B00020604FF4104016F0C9FA00BF0D00000057
:1041C0001800000080B506490448494448440831B5
:1041D000302217F0E4FF302080BD00BFF04D00001A
:1041E000180000002DE9F04DA2B01546614A0E46B8
:1041F00019F80210804600298DF8873008BFFDF7B6
:10420000D1F9B8F1020F80F08F80022E80F09080FB
:104210000EAC0DF1870128462246FDF7C1FA0028B1
:1042200000F08F808246701EDFF84CB1B0FA80F04B
:10423000400909EB0B0686F8950006F14C0716F0CD
:104240009BFE211D96F895509DF838200DF16704CE
:1042500021202346002D18BF06F17505009517F0A3
:1042600007FD04AD2046294600F096F816F084FEBE
:10427000284600F09DF82846282117F099FF20468F
:10428000202117F095FF16F077FE3C4C3C4959F879
:10429000040009EB0102D0E90403394600903046DE
:1042A0000193FFF791FD00284FD059F804009DF8C5
:1042B0008720D0E90401082A039102900BD35046CD
:1042C0000821FFF783FB03919DF887100290A1F16D
:1042D00008008DF887009DF88710D1BBB8F1000F5A
:1042E0003FD009EB0B0000F14C072648284A2A9DD5
:1042F00048447A442B212823009717F0C7F959F82E
:104300000400DDE90232D0E9040151405840014384
:1043100002A808BF084606F081FC286840F010009B
:10432000286022B0BDE8F08D17484146784402E08D
:1043300016483146784416F0F5FF4FF4D64016F093
:1043400005FA4FF4D54016F001FA6FF0770016F039
:10435000FDF91048784416F0E5FF4FF4D54016F00B
:10436000F5F92B9C00F034F820604FF4104016F063
:10437000EDF900BF0D00000018000000080000006B
:10438000A005000078040000E830020009140200D3
:1043900081320200CE17020080B50B460146212073
:1043A000202215F0C0FF002808BF80BD16F0CEF90E
:1043B00080B50649024649442120012315F0AFFF8C
:1043C000002808BF80BD16F0C1F900BF180000002A
:1043D000F0B581B0154C164D412009EB040609EBF0
:1043E000050709F80400701C07F10801412217F0C5
:1043F000D6FE282086F8420006F1430007F14C0162
:10440000282217F0CCFE97F8950058B109EB04006C
:1044100009EB05016B307531202217F0C0FE8B20AF
:1044200001B0F0BD6B2001B0F0BD00BFF04D000049
:104430001800000010B5FFF7CBFF0A49044609EB4E
:10444000010090220119025500204870FDF7AAF8DA
:10445000A01C81B2202016F0A1FB06F0D5FC0020A4
:1044600010BD00BFF04D000080B50848692109F873
:104470000010484485214170FDF794F82020022166
:1044800016F08CFB06F0C0FC002080BDF04D000053
:1044900010B500241F234FF0010C07E0C25C0A5541
:1044A000013B5A1C04F1010408BF10BD5FFA84FEF1
:1044B000BEF11F0F08D0BEF1000FEFD1C27F6CF329
:1044C0009F120A70ECE700BF027802F0F802CA7788
:1044D000E6E700002DE9F04DAAB002288DF8A730DC
:1044E00080F0C6808B46022980F0BE800EAD044667
:1044F0000DF1A70110462A46FDF752F9002857D0C2
:104500008246BBF1010F039404D19DF8A7001F2838
:1045100040F2AA80DFF87881291D09EB08059DF893
:10452000382095F895400DF1870721203B4605F18D
:104530004C06002C18BF05F17504009417F098FB89
:1045400004AC21203946224600F0AEF82120214655
:1045500000F0B4F84F48504959F8000009EB010247
:10456000D0E904033146009028460193FFF72CFC64
:10457000002800F08180BBF1000F1DD009EB08007E
:1045800000F1090420465146202217F00AFE0DF1E1
:10459000870520462946202215F001FF044604A87D
:1045A000282117F005FE2846202117F001FE0CB344
:1045B0004FF4D54016F0CAF80DF187050DF16704E8
:1045C00028462146FFF764FF04AE8120214632468B
:1045D00000F06AF88120314600F070F82046202172
:1045E00017F0E6FD3046282117F0E2FD284620218D
:1045F00017F0DEFD0398002842D0284D284A09EB29
:104600000800329C00F14C0709EB05007A442B218D
:104610002823009717F03AF80DF18707781E00213C
:1046200009EB08020A4492F82820013911F120030D
:1046300000F8012FF4D11B4A09EB05002B307A4416
:104640004E212023009717F021F8BBF1000F02D074
:1046500006F028FA01E006F0F9F9206840F01000B1
:1046600020602AB0BDE8F08D4FF4CE4016F06EF811
:104670004FF4D64016F06AF86FF0770016F066F83F
:10468000339C00F029F820604FF4104016F05EF8DB
:104690001800000008000000A005000078040000D9
:1046A000672F0200FA1E020080B51346202215F083
:1046B0003AFE002808BF80BD16F048F880B50A46CB
:1046C00004490123494415F02AFE002808BF80BD93
:1046D00016F03CF8180000000948DFF828C04844EC
:1046E0000138002209EB0C03134493F82830013AF7
:1046F00012F1200100F8013FF4D12020704700BFE3
:10470000F04D00001800000010B5FFF7E5FF0A4962
:10471000044609EB0100902201190255002048705F
:10472000FCF740FFA01C81B2202016F037FA06F0FB
:104730006BFB002010BD00BFF04D000080B50848A5
:10474000692109F80010484485214170FCF72AFFCF
:104750002020022116F022FA06F056FB002080BD30
:10476000F04D000070B5104E0C4619F806100025EB
:1047700071B1FDF7C3FC58B109EB060000F1080167
:104780002046142217F028FDB0FA80F0400900E01E
:10479000002009EB060149F80650C1E90155C1E9BD
:1047A0000355C1E9055570BD7427000070B5A0B070
:1047B00001281F928DF87B3006D11FA80DF17B01D7
:1047C00000F06AF828B955E02D4859F80000002893
:1047D00041D02B489DF87B2009EB00018B88CD88C8
:1047E000D418AC420BD927484FF4D54129F8001012
:1047F00000F092F82648784416F094FD3AE009EB70
:10480000000659F800001F99184417F0C8FCA0B220
:10481000A842B48023D11C4D1C4809EB0501484433
:10482000486001A800F086F8D8B101A800F0ECF8C3
:10483000B8B1012409F8054009EB0500416800F111
:10484000080314481422784416F06CFD00F064F854
:10485000FFF7ACFB0FE00B484FF4D64108E0012412
:1048600009E000F059F8FFF7A1FB06484FF4D541E5
:1048700029F800100024204600F03CF820B070BD5C
:1048800090270000480700007427000098270000C8
:10489000471D0200521F0200B0B5144A59F8022009
:1048A0002AB100F039F812484FF4D64119E0054614
:1048B00008780C46012803D80D484FF4D54110E084
:1048C000286800F0E1F800F0C7F838B12868023035
:1048D00028602078023820700120B0BD044846F6D8
:1048E000842129F800100020B0BD00BF90270000EF
:1048F0004807000080B50749002839F8011018BFA3
:104900004FF41041084600F0C5F82020022116F0AF
:1049100045F980BD48070000B0B5054C09EB04051A
:10492000E888FDF76DFB002049F804006860B0BD21
:10493000902700002DE9F04DA0B03249044679449B
:1049400005A86C2217F02BFC0020029004F108004F
:10495000019000F045F92A4D09EB050080880028F8
:1049600043D003AE771C4FF000080DF1080B002078
:104970000AE000BF0020D04609EB0501C246DDF881
:1049800008808988884530D2C0B202280AD0012820
:1049900024D080BB5846314600F026F958B3012098
:1049A000EAE700BF59F8050031464044049005A8E5
:1049B000224600F03FF9F0B19DF80D009DF80C2063
:1049C00008EB0001152A0291D4D059F80500019A8C
:1049D0005044A1EB0A01FCF7BBFDCBE75846394632
:1049E00000F002F938B10220C5E705A800F04EF941
:1049F00020B0BDE8F08D002020B0BDE8F08D00BFF4
:104A0000902700008E300200B0B59CB004460830FC
:104A100014A900F0F9F9217803290DD101AD284638
:104A200000F008FA6268637814A9284600F012FAC8
:104A300038B101201CB0B0BD0548784416F072FCB6
:104A400003E00448784416F06DFC00201CB0B0BDB3
:104A50005E1702006D1D020010B50446FDF7BCFA9A
:104A6000074949F8010010B14944CC8004E00549E8
:104A700046F6842229F80120002818BF012010BD25
:104A800090270000480700000178407840EA0120A4
:104A900080B270470349020A09F80120494448706E
:104AA000704700BFF04D00000120704701207047A3
:104AB00010B582B001A900F00BF940B1019CFFF7DD
:104AC00089FA201AB0FA80F0400902B010BD002027
:104AD00002B010BD10B582B001A9144600F0F8F87C
:104AE00001990022B1F5807F38BF012210400128D2
:104AF00008BF217002B010BD80B582B001A900F0DE
:104B0000E7F801990139B1FA81F14909084002B089
:104B100080BD4178517041680120516070470000AC
:104B2000F0B581B042781F2A05D31A48114678445F
:104B300016F0F8FB10E0052A0AD3044640680D463B
:104B40001044011F14480422784417F0DDFB30B1F3
:104B50001348784416F0E6FB002001B0F0BD607801
:104B600060B100276068C65D304600F0E9F860B1CA
:104B70006868C655607801378742F3D36868617802
:104B800000224254012001B0F0BD0448314678446F
:104B9000CEE700BFDD070200D10802001B170200AC
:104BA0005906020080B582B001A900F091F8019980
:104BB0003C39B1FA81F14909084002B080BD10B515
:104BC0004478142C06D1426801F1080011461422E1
:104BD00017F0E5FAA4F11400B0FA80F0400910BD16
:104BE00080B515F0D8FB80BD10B582B0D1B10C46B0
:104BF00001A900F0BDF830B10198FF2809D8207054
:104C0000012002B010BD09484FF4D54129F8001029
:104C100008E006484FF4D54129F8001004487844CC
:104C200016F080FB002002B010BD00BF4807000056
:104C30005C290200F0B581B00446087815460E469E
:104C4000002700BFE15D814203D00C376C2FF9D102
:104C50000DE0E119087A421C48680A7216F046FF16
:104C600008490346494430462A46984710B1012076
:104C700001B0F0BDE15D0448784416F053FB00201C
:104C800001B0F0BD742700001904020010B5017ACC
:104C9000002201290ED100F1140300BF082A4FF0B1
:104CA000000438BF01240ED013F80C1B0132012977
:104CB000F4D000E0012402EB420210F82220034865
:104CC000784416F02FFB84F0010010BDE8080200C4
:104CD0002DE9F04182B044780646052C06D332789F
:104CE00010482146784416F01DFB13E0C4F104007F
:104CF000C7B20DF104080D464046394617F04CFA8C
:104D0000716808EB0700224617F049FA404600F0A8
:104D10000BF828600020052C38BF012002B0BDE848
:104D2000F08100BF372002004278017883781204B6
:104D3000C07842EA016141EA03210844704700005B
:104D40000A4979440144497801F00302022A08D053
:104D50004AB9490705D4A0F12D01022901D35F28E2
:104D600001D1012070470020704700BF6E3702005C
:104D70002DE9F04D82B021B304462048226859F84D
:104D800000700D46B95C0B0603D429602068013021
:104D90002FE0484401F07F0B561C808806EB0B0186
:104DA0008142266004D91648784416F0BBFA08E020
:104DB000ABF10100042808D312485946784416F094
:104DC000B1FA002002B0BDE8F08DCBF1040A0DF17C
:104DD00004084046514617F0DFF908EB0A00B919FC
:104DE0005A4617F0DCF94046FFF79EFF286020681E
:104DF00058442060012002B0BDE8F08D90270000EB
:104E0000271D020057FC010010B582B04FF0200CA6
:104E100000910121002200230446CDF804C015F0C2
:104E200092FA20B9204615F08AFA02B010BD15F0AA
:104E30008DFC000080B506490346794421204122BB
:104E400015F075FA002808BF80BD15F07FFC00BF83
:104E5000FE2B020080B582B09C4613462022CDF87E
:104E600000C015F050FA02B080BD0000A2B0DFF81B
:104E700010B1154609EB0B0090F80411012222EA4B
:104E8000010780F804714048394678441C4616F002
:104E900049FA44B12E780B2E05D2601EC0B206F13D
:104EA0001C01814203D94FF4D54015F04FFC701C12
:104EB00005F10108049018AA4046202315F047FA8E
:104EC00009EB0B005B2107FB010A41460AF14C008C
:104ED0000AF1600703903846324617F062F90498E9
:104EE0004FF0000829180398142207F8068017F0DD
:104EF00058F906F11501284600F04CF88AF86B00C5
:104F000006F11901284600F045F8CDE9200820A84F
:104F1000FDF730F9D8B1A01B05AC3544A0F11D0652
:104F2000204600F043F805F11D02F3B218A920460F
:104F300000F04CF8E0B109EB0B0090F804110844C4
:104F4000012180F802114FF4104015F0FFFB0D48CD
:104F5000209A59F80000219BD0E904170B48CDE9AD
:104F60000017784416F0DEF94FF4D54015F0EEFB4B
:104F70000748784416F0D6F94FF4D54015F0E6FB13
:104F80001800000008000000D2210200760E020086
:104F9000141002004218405C517893780904D278CA
:104FA00041EA006040EA03201044704780B506499A
:104FB000034679442120412215F0B9F9002808BFA1
:104FC00080BD15F0C3FB00BFC72A020080B582B0C8
:104FD0009C4613462022CDF800C015F094F902B08B
:104FE00080BD0000A2B08D481C467844154616F0DE
:104FF00099F9874819F80000013802281AD2854F1C
:10500000012209EB070090F8041122EA010680F85A
:10501000046183483146784416F084F9032C11D892
:10502000804803217844224616F07CF94FF4D5409D
:1050300015F08CFB8F48784416F074F946F685100D
:1050400015F084FB297801290CD1697801290CD14C
:1050500095F802B00BF12108A0450ED974484146DD
:105060007844E0E77048784401E07048784416F0EE
:1050700059F94FF4D54015F069FBBBF1470F04D344
:105080006C48462178445A46CEE70BF10300029063
:1050900009EB07005B2106FB01000BF1170100F192
:1050A0006006039100F14C0AE91C30465A4617F09D
:1050B00076F8002006F80B005F485946784416F051
:1050C00031F95E483146784416F02CF902981422E2
:1050D0002E185046314617F062F85948142178448A
:1050E000324616F01FF9039808212E183046FEF7B5
:1050F0006DFCCDE90401534808217844324616F08E
:1051000011F904A8FDF736F890B30BF11F002E5CDF
:105110004D483146784416F005F9012E39D14B48F7
:105120004B4A78447A4441210BF1200616F0FAF8F4
:10513000AE5D48483146784416F0F4F8012E2CD183
:105140004548414678442A4616F0ECF81AAA284603
:105150004146202315F0FBF80BF12206A64220D988
:105160003E48784416F0DEF84FF4D54015F0EEFADC
:105170002948049A59F80000059BD0E904173E48D5
:10518000CDE90017784416F0CDF84FF4D54015F06E
:10519000DDFA33483146784469E73248314678448D
:1051A00065E715F8088030484146784416F0BAF8AB
:1051B000A8F1430006280AD3304843217844482206
:1051C000434616F0AFF84FF4D54015F0BFFA06EBA2
:1051D0000800A04202D925487844C3E707AC20461E
:1051E00000F05AF8AA191AA92046434600F048F8D8
:1051F00058B109EB070090F804110844012180F828
:1052000002114FF4104015F0A1FA19487844A9E7AB
:105210000F0000001800000008000000A5FE0100BB
:1052200046200200281D02003E250200CB1302008A
:10523000261D0200D514020075F70100FA1C0200B9
:105240007BFC010043F701003F21020078080200C7
:1052500096290200C61902006CFF01000C0B020027
:10526000660C0200CBF401008622020077120200D5
:105270009F140200EEFC0100540C0200EC07020037
:1052800080B582B09C4613462022CDF800C015F0B0
:105290003AF802B080BD000080B506490346794463
:1052A0002120412215F043F8002808BF80BD15F0E9
:1052B0004DFA00BF1C280200042B0BD108430DD16E
:1052C000104600F011F8074949F801004FF410406A
:1052D00015F03CFA4FF4CE4015F038FA4FF4D640B2
:1052E00015F034FA14000000427801788378120433
:1052F000C07842EA016141EA032108447047000096
:105300002DE9F04DAAB05E489B467844154616F04C
:1053100009F895F800A05B485146784416F002F869
:105320000AF119065E45314677D2BAF11E0F78D2DE
:105330000DF1880820232846424615F008F80FACE6
:10534000204600F0ADF8AF19ABEB0606204641460B
:105350003A46334600F0B4F8002868D0DFF81481EC
:10536000013509EB0806304629465246544616F0E8
:1053700018FF002706F80A7046483146784415F0B1
:10538000D1FF0D9640F2FF1001AE0E90304616F0A0
:1053900063FF0104ADF8300053D1304616F03AFDFA
:1053A0000B900DA816F0B8FC16F02AFDB04202D101
:1053B0000B9816F02FFDBDF83000002858D1364864
:1053C00005EB0A04339D784415F0ACFF09EB0807A0
:1053D00007F144001422214616F0E3FE14F8140FDE
:1053E0006178A278E37840EA012042EA032140EAAA
:1053F0000140B8652048002109F8001028681F4BBB
:10540000421C2A6009EB0302902313542868431CB2
:105410002B6011542AB0BDE8F08D1B485A467844E1
:1054200009E01A480AF1010278441E2103E01848F5
:10543000314678443A4615F075FF4FF4D54015F0E3
:1054400085F90B98ADF8307016F0E4FC134809EBC1
:1054500008047844214615F065FF46F6841049F8A3
:105460000870A783C4E90177C4E90377C4E9057725
:1054700015F06CF9500300000F000000F04D000023
:10548000CA1A0200CF1A0200ED160200361E0200F0
:10549000D31A020061140200F32102004D0B020036
:1054A00080B50649034679442120412214F03FFF8C
:1054B000002808BF80BD15F049F900BF552602003D
:1054C00080B582B09C4613462022CDF800C014F06F
:1054D0001AFF02B080BD00002DE9F04DB2B0CA48FD
:1054E0001D467844144615F01DFF0020CDE930001C
:1054F000CDE92E00CDE92C00CDE92A0017A84C21DA
:1055000016F04AFE032D2F4640F205812678C0484A
:105510003146784415F006FF012E40F00081667890
:10552000BD483146784415F0FDFE012E40F0FA806A
:1055300094F802B00BF12500A842049000F2F68026
:10554000BBF11E0F059580F0F680AB4A0BF11B01F5
:1055500009EB02070BF1170A0391E11C38465A4682
:105560005E460BF10305D04616F019FE002007F841
:105570000B00AD485946784415F0D4FEAB48394687
:10558000784415F0CFFE6619142507F14400314622
:105590002A4616F004FEA64829467844324615F0FD
:1055A000C1FE04EB0A0014F80A1042788378C07830
:1055B00041EA022143EA002041EA004047F8580F3F
:1055C0009C48042178443A4615F0ACFE039808261E
:1055D000251828463146FEF7F9F9CDE91401964819
:1055E000314678442A4615F09DFE14A8FCF7C2FD0A
:1055F000002800F0AB800BF12300275C8F48394670
:10560000784415F08FFE022F40F0B2808C488D4A0E
:1056100078447A4441210BF1240515F083FE675D3F
:1056200089483946784415F07DFE012F40F0A4806A
:105630008648049F78443946224615F073FE2AAA0C
:1056400020232046394614F082FE059D0BF12606E4
:10565000AE4200F29A80E75D804839467844B84609
:1056600015F060FEA7F14300062880F09180F01944
:10567000A84200F2988017AD284600F00BF9A21955
:105680002AA92846434600F0F9F8002800F08E8049
:10569000584600F00FF95A4A431E022B494609F8B2
:1056A000020080F08680544F20BB704809EB07044D
:1056B0007844214615F036FE129440F2FF1006ACF5
:1056C0001390204616F0C8FD0104ADF8440078D1CF
:1056D000204616F09FFB109012A816F01DFB16F046
:1056E0008FFBA04202D1109816F094FBBDF8440045
:1056F00000287ED13B98434F016809EB07024B1C01
:1057000003609023535401684B1C036000205054E5
:1057100032B0BDE8F08D3D480321784409E03D48B2
:10572000784401E03D487844314628E03C480499FB
:1057300078443A4604E03B480BF1010278441E21CC
:1057400015F0F0FD4FF4D54015F000F82B49149AF0
:1057500059F80100159BD0E9041745486E46784476
:10576000C6E9001715F0DEFD4FF4D54014F0EEFF4A
:1057700038483946784402E037483946784415F0CD
:10578000D1FD4FF4D54014F0E1FF3148784412E0E8
:105790003848432178444822434615F0C3FD4FF46E
:1057A000D54014F0D3FF2E48784404E02D487844C7
:1057B00001E02D48784415F0B5FD4FF4D54014F0C4
:1057C000C5FF10980025ADF8445016F023FB2A4879
:1057D00009EB07047844214615F0A4FD46F6841031
:1057E00049F80750A583C4E90155C4E90355C4E944
:1057F000055514F0ABFF00BF500300000800000087
:105800000F000000F04D0000F218020032160200F6
:1058100056F80100841E02000F140200110D020050
:1058200056160200860F0200BBF20100FE1A0200AB
:10583000BFF701007FF401005BF20100531C02007E
:105840008A0302002A250200D81402007CFA010013
:10585000E204020088060200EDEE0100B807020033
:10586000A70C0200FD0E0200A5FF01002D11020091
:105870007A06020014020200CB07020080B582B053
:105880009C4613462022CDF800C014F03CFD02B027
:1058900080BD000080B5064903467944212041229D
:1058A00014F045FD002808BF80BD14F04FFF00BF75
:1058B000A222020010B507280CD00446062811D1F8
:1058C0000B480C4948447944062216F085FC68B11F
:1058D000072C07D10648084948447944072216F0A6
:1058E0007BFC08B1002010BD022010BD012010BDBE
:1058F00050030000ACF401009FF40100B0B582B089
:105900000146244D1446002080298DF8073009F8FF
:1059100005000BD0E9B90DF10701204600F046F86B
:1059200030B3011B044609F8051004E01A4819F8C1
:105930000000022814D19DF80710204600F0BCF8A2
:10594000B0B1164819F80000C00714D100F0F0F803
:105950001CE01448784415F0E5FC4FF4D64005E00F
:105960001148784415F0DEFC4FF4D54000F088F87B
:10597000002002B0B0BD0A484844C06C20B14FF4CA
:10598000104000F07DF801E005F08AFD012002B032
:10599000B0BD00BFB72700000C000000B827000012
:1059A00018000000C01A0200F0010200F0B581B03A
:1059B0002C4F0D4619F8072004461AB146F68510FB
:1059C00000F05EF8284E022009F8070009EB0602F5
:1059D00020462946FBF7E4FE38B104462878032820
:1059E00009D82448784415F09DFC4FF4D54000F0C8
:1059F00047F8002432E0204600F058F909EB06078A
:105A0000F864287804340438287000F05BF91A49E7
:105A10000026794400201A220023009600F060F945
:105A20001248FB6C4844154A00F580757A442846B4
:105A3000282115F02BFE284616F05EFC02460020B9
:105A400029460023009600F04BF900F027F908489A
:105A500019F8001001F0FC0109F80010204601B00F
:105A6000F0BD00BF0C00000018000000780400002A
:105A7000B8270000F41202006B210200D0F10100EF
:105A800010B50446B0F5104F06D0094819F80000CB
:105A9000800748BF05F0B8F90648210A09F8001048
:105AA000484444702020022115F078F810BD00BF52
:105AB000B8270000F04D000070B582B01A4E0D46B8
:105AC00009EB0602D46C8C420AD218482946784465
:105AD000224615F027FC4FF4D540FFF7D1FF1CE01C
