:02000004C0DE5C
:1000000080B502F0F1FA002080BDF0B581B01C4649
:1000100015460E460746402114F064FB7D637E6062
:100020000698B8633C6301203870304600F002F84F
:1000300001B0F0BD80B50121090212F049FB002892
:1000400000D180BD12F050FD10B582B0816A002948
:1000500019D0426A137801AC2370491E521C4262C7
:100060008162417C002905D0C168491CC160817C46
:10007000002904D1406801A9012200F00DF801A86F
:10008000007802B010BD0348784413F0E5FB01206E
:1000900012F02AFD5A5D010010B582B013460A46DF
:1000A000044600210091019112F000FB002804D1C8
:1000B000204612F0F5FA02B010BD12F015FDD4D4AE
:1000C000B0B50546806A904220D31446002905D079
:1000D0006A6A08461146224614F00EFB687C002826
:1000E00002D0A87C002804D1696A68682246FFF71C
:1000F000D3FF686A00196862A86A001BA862687C5E
:10010000002802D0E8680019E860B0BD03487844D0
:1001100013F0A2FB012012F0E7FCC04606520100DA
:10012000F0B58DB0009316460F46044601AD284643
:1001300014F026FCA885000407D001A800218185C1
:100140000B9814F089F8032410E001A814F084F847
:100150006762A6620099E1620B90204600F01AF8EF
:1001600004460B487844214613F076FB14F06AF8F5
:1001700001A9884202D10B9814F06EF801A8808D75
:10018000002802D120460DB0F0BD12F0ADFCC046F3
:1001900008620100F0B585B0044606463C364A4880
:1001A0007844049049487844019049487844029042
:1001B000039606E0029813F04FFB00252F46002D12
:1001C0007ED03078C02802D121780C290BD00228AB
:1001D00006D001280DD121780B2904D0022808D19E
:1001E00021780C2905D1049813F036FB022700254D
:1001F000E5E7C02805D12078092802D1A06A0028A7
:1002000039D0A06A0028D5D0607C002807D12046CC
:1002100000F096F8042800D007460428E7D1216BA7
:10022000002910D02046884706462B48784413F012
:1002300013FB01200025022E06D325D0032E26D144
:100240002648784425E00026002E039E01D0012593
:10025000B5E721781F48784413F0FEFA3178012978
:100260001CD0022920D0C02924D1204600F0D0F88B
:100270000028ECD022E0606BC22100254554019893
:1002800013F0EAFA02279AE70746039E97E7144815
:10029000784413F0E1FA0327039E90E7204600F02C
:1002A00017F90028D3D009E0204600F06FF90028A4
:1002B000CDD003E00B48784413F0CEFA032796E73D
:1002C000F8B205B0F0BDC046946E0100176A010097
:1002D000996E0100BF5E0100C1760100FA72010053
:1002E000667401004E760100B0B58CB004466D46D0
:1002F000284614F045FBA885000407D06846002175
:1003000081850A9813F0A8FF032407E0684613F0DC
:10031000A3FF0A902046FFF73DFF044613F092FF2B
:100320006946884202D10A9813F096FF6846808D8C
:10033000002802D120460CB0B0BD12F0D5FBD4D4B9
:10034000F0B583B004460546183500272C4E7E4490
:1003500002E00020002823D1A06A002822D02046F5
:10036000FFF772FE216A4A1C226261180876216A30
:1003700001AA284602F011FB002806D001A8007847
:10038000002808D003200127E4E7206A0528E0D1EF
:100390001C48784400E0304613F05EFA0120D9E7AB
:1003A00003282AD1F8071DD02146083123461033EF
:1003B00002AA284602F010FB00281AD00020029959
:1003C0000029014606D1616A491E6162A16A491C81
:1003D000A16201212062E060A17401206074042008
:1003E00003B0F0BD0848784413F036FA002003B09B
:1003F000F0BD0648784413F02FFA032003B0F0BD97
:10040000AA5A0100E65F0100285A0100345D01008C
:1004100010B50446007806280CDC032817DC0128F8
:100420003CD0022826D0032849D1204600F056F9B6
:10043000002010BD092815DC072820D0082823D06B
:1004400009283CD1204600F0A5FA002010BD042860
:1004500030D005281DD0062831D1204600F0D4F92F
:10046000002010BD0A38022829D2204600F06CFA7C
:10047000002010BD204600F005F9002010BD2046E8
:1004800000F0F4F9002010BD204600F021FA002011
:1004900010BD204600F082F9002010BD204600F07B
:1004A000DBF82C20215C0020C9070DD12178491CE4
:1004B000217010BD204600F041F9002010BD034816
:1004C000784413F0C9F9012010BDC046B05D0100A9
:1004D00010B50446007805280CDC022817DD032837
:1004E00027D004282AD0052848D1204600F026F934
:1004F000002010BD072813DD082824D0092827D0A4
:100500000A283BD1204600F0ADFA002010BD01289A
:1005100023D0022832D1204600F0B4F8002010BDCC
:10052000062826D0072829D1204600F06DF90020A2
:1005300010BD204600F062FA002010BD204600F0F9
:10054000CDF8002010BD204600F090F9002010BD2D
:10055000204600F0BDF9002010BD204600F07CF8D8
:100560002C20215C0020C9070DD12178491C217065
:1005700010BD204600F072FA002010BD02487844F9
:1005800013F06AF9012010BDF25C010010B50446B9
:10059000007805280CDD082817DC062829D0072854
:1005A0002CD008284FD1204600F02EF9002010BD95
:1005B000022815DD032826D0042829D0052842D199
:1005C000204600F0C1F9002010BD092825D00A28D6
:1005D00028D00B2837D1204600F044FA002010BD67
:1005E000012824D002282ED1204600F04BF800200C
:1005F00010BD204600F0A2F8002010BD204600F0FB
:100600002DFA002010BD204600F0F8F9002010BDA2
:10061000204600F063F8002010BD204600F026F9C7
:10062000002010BD204600F053F9002010BD2046E8
:1006300000F012F82C20215C0020C90708D1217895
:10064000491C217010BD0348784413F005F90120BE
:1006500010BDC046285C010080B5017C002907D090
:1006600000214174816841610178491C017080BD9D
:100670000348784413F0F0F8012012F035FAC04630
:100680003968010010B50446007C002818D1A06824
:10069000212818D2E168884208D9401AA26A824209
:1006A00000D3024600212046FFF70AFDA068E1685A
:1006B000814204D1002060742078401C207010BD5D
:1006C0000448784401E00448784413F0C5F8012058
:1006D00012F00AFA8A5501005170010010B5044663
:1006E000007C00281CD1A06821281CD2E168884227
:1006F00009D9401AA26A824200D30246616B633173
:100700002046FFF7DDFCA068E168814207D1616BFC
:1007100083228854002060742078401C207010BD13
:100720000448784401E00448784413F095F8012027
:1007300012F0DAF938690100024C010010B50446E4
:10074000007C00281CD1A06821281CD2E2689042BD
:1007500009D9616B8918801AA26A824200D30246C5
:100760002046FFF7ADFCA068E168814207D1616BCC
:1007700020228854002060742078401C207010BD16
:100780000448784401E00448784413F065F80120F7
:1007900012F0AAF9D46D01002649010010B50446F3
:1007A000007C00281DD1A168212921D2E068814266
:1007B0000AD9091AA26A8A4200D30A46616B09184B
:1007C00021312046FFF77CFCA068E168814207D117
:1007D000616B41228854002060742078401C207096
:1007E00010BD0748784413F037F8012012F07CF967
:1007F0000448784413F030F8012012F075F9C0462F
:100800008F500100A262010010B50446007C002850
:100810001DD1A16815291DD2E06881420AD9091AA3
:10082000A26A8A4200D30A46616B0918A5312046A4
:10083000FFF746FCA068E168814207D1616BB922ED
:100840008854002060742078401C207010BD05483A
:10085000784401E00448784412F0FEFF012012F0D1
:1008600043F9C046CC4601004645010010B5044698
:10087000007C00281DD1A16821291DD2E068814299
:100880000AD9091AA26A8A4200D30A46616B09187A
:1008900042312046FFF714FCA068E168814207D18D
:1008A000616B62228854002060742078401C2070A4
:1008B00010BD0548784401E00448784412F0CCFFAC
:1008C000012012F011F9C046B3530100F14D0100AF
:1008D00010B504461948784412F0BEFF207C002869
:1008E00024D1A068E168884212D9401AA26A8242E3
:1008F00000D30246012A07D1606A0078002803D19C
:10090000606BC3210023435400212046FFF7D8FB2E
:10091000A068E168814208D10948784412F09CFF40
:10092000002060742078401C207010BD0548784479
:1009300012F092FF012012F0D7F8C046BE5A010013
:10094000135E0100086E010010B50446007C00280B
:1009500016D1A068E168884208D9401AA26A82428A
:1009600000D3024600212046FFF7AAFBA068E168F9
:10097000814204D1002060742078401C207010BD9A
:100980000348784412F068FF012012F0ADF8C04629
:100990000B59010010B50446007C002820D1A16845
:1009A000092920D2E06881420DD9091AA26A8A4237
:1009B00000D30A46082A00D30822616B0918BA310D
:1009C0002046FFF77DFBA068E168814207D1616B9B
:1009D000C2228854002060742078401C207010BD12
:1009E0000448784401E00448784412F035FF0120BF
:1009F00012F07AF8ED460100764B010010B504467E
:100A0000007C00281CD1A06821281CD2E168884203
:100A100009D9401AA26A824200D30246616B84312E
:100A20002046FFF74DFBA068E168814207D1616B6A
:100A3000A4228854002060742078401C207010BDCF
:100A40000448784401E00448784412F005FF01208E
:100A500012F04AF8876401004D4F010080B5FFF79E
:100A60009DFE80BD10B50446007C002816D0A0680D
:100A7000E168884208D9401AA26A824200D302463D
:100A800000212046FFF71CFBA068E168814204D1E9
:100A9000002060742078401C207010BD034878440A
:100AA00012F0DAFE012012F01FF8C046F44D0100EA
:100AB00070B514460D460646202113F013FE7561ED
:100AC000B46170BD70B514460D460646182113F08A
:100AD00009FEF560346170BD80B5202113F002FE7F
:100AE00080BD80B5182113F0FDFD80BDF0B581B04B
:100AF0001C4615460E460746202113F0F3FD0698C6
:100B0000FE603D617C61B86101B0F0BDF0B587B0B9
:100B10000293039201910646382113F0E3FD174832
:100B200049460D182C46A734204600F029F8002726
:100B3000002800D03C46B4604C35284600F020F830
:100B40002021019A7254002800D03D46F56001F042
:100B500009FE0591049004A801F02EFE01463046DE
:100B600010300B2213F09EFF0D9830630C98F0624A
:100B70000298B0620398706207B0F0BD18000000E0
:100B8000B0B5014600780122002810460FD1491C5B
:100B900000231C465A2C03D318465A2C03D106E0D6
:100BA00001205A2C03D00D5D641C002DF2D0504062
:100BB000B0BDD4D4F0B583B00D4607462D484C46A1
:100BC0002018E4210126029146546A692C48784491
:100BD0000421019112F040FE2748215C03291AD21A
:100BE0003846294600F05AF80027002F0AD023483B
:100BF0004946085C002805D02348784412F02CFEB2
:100C000000262DE0002F0ED02048784414213A46CB
:100C100012F022FE24E026D13846294600F090F852
:100C20000028E1D1E1E71A48784412F015FE484661
:100C3000104C01191748784412F00EFEFF200230C4
:100C4000294600F0F3F80646032809D3484605195B
:100C500011487844294612F0FFFD0298019E2E5457
:100C6000304603B0F0BD0748784412F0F5FD00208F
:100C700013F0B8FA840400000F0000000D0000001B
:100C8000576E0100614A01007B6901007950010043
:100C90000D430100AE4A0100A44A010070B50D46A3
:100CA0000446214E4846811944311422204613F04F
:100CB00039FD002819D16A6910785178090208189D
:100CC0009178D3781B0259180904081849468919E4
:100CD000896D884217D11948784412F0BDFD484605
:100CE0008019E4210422425470BD10487844142530
:100CF0002946224612F0B0FD4846821944320C487B
:100D0000784429460BE00B4878440424214612F02D
:100D1000A3FD48468219583207487844214612F00C
:100D20009BFD002013F05EFA84040000555A010078
:100D3000665C0100F866010049590100A75C0100EA
:100D4000F0B587B005910690374878440290406826
:100D500013F064F94142414100285FD00646002467
:100D600025460EE0019D6D1CECB20399614302988B
:100D70004018406813F052F90646414241410028AC
:100D80004CD0019500911820039006980028E9D0D6
:100D900003984443029800190490007A0028E1D097
:100DA000049F0837012405984569306813F036F927
:100DB00001784278120251188278C07800028018B7
:100DC0000004401829786A7812025118AA78EB7842
:100DD0001B029A1812045118814208D10498006825
:100DE00000280ED013F01AF98047002809D1069880
:100DF0000028B7D03878611C361D84420C46D2D307
:100E0000B0E7084849460C18049909311E222046CB
:100E100013F048FEE4200421215400990120884366
:100E200007B0F0BD840400001E6F0100F0B595B05E
:100E30000E460546B248494608181490B1480818AD
:100E40001390B14FC819E424005D022808D8B048B7
:100E5000784412F001FD4846C019005D15B0F0BDA0
:100E6000FF22114604318D4217DC104602308542C4
:100E70002ED081204000854240D08D4200D0C1E07C
:100E800001920291A348784412F0E6FC13A8706026
:100E900014A830600120B07756E0412080008542E0
:100EA00039D010460630854242D08320400085422A
:100EB00000D0A7E0019202919748784412F0CCFC50
:100EC00013A8706014A830604846C119443113E07B
:100ED000019202919548784412F0BEFCA020306146
:100EE00013A8B06014A8706083204000308048468A
:100EF000C11908464430F0601C2029E0019202919B
:100F00008648784412F0A8FC13A8706014A83060DA
:100F10000120307518E0019202918148784412F066
:100F20009BFC13A8706014A83060012070750BE062
:100F3000019202917B48784412F08EFC13A87060F5
:100F400014A83060012030774846C1194431082088
:100F500031506E484946095C012909DC002931D02D
:100F600001292AD12846039631460AF019FF71E07B
:100F7000022941D0032920D103966D4E7E44707A18
:100F8000002867D04846604940183146093113F0BF
:100F900011FD002853D00124E7B2182078433118FE
:100FA000487A002856D009314846574A801813F02D
:100FB00001FD641C0028EFD142E05F48784412F044
:100FC0004BFC9AE00396129611954846C019109072
:100FD00004AE304613F0D4FCB08500041AD004A847
:100FE000002181850E9813F037F94846C119514800
:100FF000784412F031FC14E02846039631460AF09A
:1010000027F927E048487844294612F025FC0120BA
:1010100015B0F0BD04A813F01FF90E9010A813F03E
:101020009DF813F00FF904A9884202D10E9813F02D
:1010300013F904A8808D00280CD011F055FD00276D
:10104000182078433018406912F0E8FF024628461D
:101050000399904739487844294612F0FDFB012650
:1010600002998D420EDC0198023085421DD081200C
:101070004000854225D08D4235D10398807F0028DD
:101080002DD138E041208000854201981ED00630E5
:1010900085422BD083204000854230462BD134201E
:1010A0000399085C042825D027E003984078411E66
:1010B00002468A410428114600D10146084615B06F
:1010C000F0BD0398007D002809D114E0039C617DE8
:1010D0001B48784412F0C0FB607D00280BD0042828
:1010E00008D0062806D0304615B0F0BD0398007F22
:1010F000042802D1042015B0F0BD002015B0F0BDC9
:10110000D806000060010000840400000F00000009
:101110005255010061420100FE5B01004157010090
:1011200035680100B15F01003A580100A246010094
:10113000EC6C01001D47010042410100F242010038
:1011400059460100F0B5FFB090B00D4604460020AE
:10115000A0614B487844214612F07EFB2169494842
:10116000784412F079FB4848784412F075FB206906
:10117000002837D0A0680378591E09292DD8990076
:10118000227B521E8A4228D102950393002B0AD05B
:10119000471C17AD039E384600F080F801C5761E47
:1011A0003F1D002EF7D117AF04AA3846039900F06F
:1011B00080F806463421384613F0AAFA002E2AD1C8
:1011C000212004A9202217AB11F058FA00280ED0D4
:1011D00017A8342113F09CFA1DE02F48784412F030
:1011E0003BFB1CE02948784412F036FB17E004AFC3
:1011F0004C21384613F08CFA212017AE01253946D0
:1012000032462B4611F034FA07463421304613F0AB
:101210007FFA002F06D004A84C2113F079FA7FB092
:1012200010B0F0BD0299086949690090019104A8C5
:1012300017A924AA03F054FD0028C9D004A84C2102
:1012400013F066FA216908784A78120210180B4ADE
:10125000904200D1891C17A813F0ACFB002804D0E1
:101260000B48784412F0F8FA04E00A48784412F087
:10127000F3FAA56117A83421CFE7C0463078000003
:1012800018660100EC5B01001E660100E8510100D8
:1012900083510100A8610100EB59010001780906A2
:1012A000427812045118827812028918C0780818FE
:1012B000704780B500F001F880BDF0B591B01446DC
:1012C0000D46064605AF384613F05AFBB88587B27F
:1012D000002F0AD005A8002181850F9812F0BCFFCD
:1012E0004021204613F014FA0EE005A812F0B4FFD6
:1012F0000F90002700940197029703972121384609
:1013000032462B4612F0EEFE12F09CFF05A98842F1
:1013100002D10F9812F0A0FF05A8808D002802D1FD
:10132000384611B0F0BD11F0DFFBD4D4F0B587B072
:101330000F46054604460E3432262046314613F049
:10134000D1F9297B212905D31D48784412F084FA6C
:1013500007B0F0BD687B002812D00A21384613F090
:1013600045FCC2B2029603AE30463946174613F02A
:10137000BFF90020F055029E06A81221017007E077
:101380002979286803AA06AB01F081FF002810D054
:1013900006A80278297BA8680094019603AB03F0A5
:1013A00035FC002809D13221204613F09BF907B003
:1013B000F0BD0448784412F04FFA07B0F0BDC046C3
:1013C000D947010075400100F0B5B9B00D4604469B
:1013D00007AEC821304613F085F9A1692B223046AB
:1013E00013F060FB2A20305C0026002844D1207BCB
:1013F000202841D8207D08283ED82179206803AADA
:1014000006AB01F044FF002831D006A80278217B0A
:10141000A0684F23019307AB2B33009303AB03F07A
:10142000F5FB0026002827D003AF0B2238462946BB
:1014300013F038FB06A8122202702069217D3223A6
:10144000019307AB7A3300933B4603F0DFFB0028A0
:1014500012D011F065FB2034094849460C50094868
:10146000081807A9C82213F043F9012604E006482A
:10147000784412F0F1F90026304639B0F0BDC0468C
:1014800004000000AC050000B93F010002494A46D3
:101490005158087012F070FE0400000082B01F491D
:1014A0004C46605000F06EF81D48002525541D483C
:1014B0000126265411F0A6FC1C48784412F0AEFD1B
:1014C000407901280BD06C4666712580A5701848BC
:1014D000784412F0A3FD0622214612F0CFFD1548F4
:1014E000784412F0B9F9002420460FF0C9FC012518
:1014F00028460FF0C5FC06202146224612F05AFE6F
:1015000009494A465118C861204621460DF088FF16
:10151000284621460DF084FF00F074FB080000000F
:101520000E0000000D000000D42D000042980100C4
:101530002C980100615D010080B50B460146104604
:101540001A4600F001F880BD10B582B013460A4675
:10155000044600210091019111F0A8F8002804D15F
:10156000204611F09DF802B010BD11F0BDFA80B513
:1015700082B00A4601AB187001211846FFF7DCFF64
:1015800002B080BD10B510484C46002121540F48D0
:1015900021540F4821540F48032222540E4821544D
:1015A0000E4821500E4820182121C90013F09AF846
:1015B0000C482018402113F095F80B482018C4213E
:1015C00013F090F810BDC0460D0000000C000000A4
:1015D0000E0000000F0000001000000014000000CA
:1015E00018000000200100006001000080B5010A21
:1015F000044A4B469954991848702020022111F052
:101600007DFD80BD802C0000F0B581B004461848F7
:10161000494608180090401C402113F063F8E07818
:10162000212801D0042700E00527E11920252128E1
:101630002E4600D006460098801B2130324613F01B
:101640005BF8B81C8119C8B20019401E0078212827
:1016500000D1491CC9B26118212800D00546009864
:10166000401B41302A4613F047F801B0F0BDC04698
:10167000802C0000B0B50546072028400024012832
:1016800016D0022816D10D48002909D04A46101854
:1016900012F0B4FD28060BD512F0E5FC2046B0BDD3
:1016A00049460818FF215231002212F0BDFD0446C0
:1016B0002046B0BD022011F017FAC046802C000071
:1016C000F0B581B00090B520C6430024124F03E06E
:1016D0005B36641C002E1CD04846C01900198121BD
:1016E0004D00405D0028F3D04846C01980194019CC
:1016F0001422009913F016F80028E9D1074878441D
:10170000214612F0A9F84846C0198019401901B0C5
:10171000F0BD002001B0F0BD180000005C510100D8
:10172000AEB00446002000902126154979440222DB
:101730001EAD30462B4612F0C5FC202214AF3046B9
:1017400029463B4610F09AFF01AE3046394600F07C
:1017500019F808364121402730462A463B4610F00A
:10176000B1FF06484946081829463A4612F0C0FF1C
:1017700027600920000311F0B7F9C046802C000053
:101780009C65010080B50A4601462120012310F026
:101790006FFF002800D180BD11F0A6F9F0B581B02F
:1017A00000920D460978002911D00178009A117035
:1017B000491E0A2902D3164878440AE02978491EAE
:1017C0002970C9B2009A12789200914207D20F484C
:1017D000784412F041F80026304601B0F0BD461CB6
:1017E000009800780028F7D00098071D00240021F9
:1017F000304600F00FF801C72878001F2870641CDD
:10180000361D009800788442F1D3E5E7835A010041
:1018100072610100425C120640184178090489187F
:10182000827812028918C07808187047F0B58FB016
:101830000C46054603AF384613F0A2F80646B885B5
:1018400080B2002820D0052800D1A9E1354603A8A0
:10185000002181850D9812F0FFFCE7484946085C9D
:10186000421E9041E54A8F5C07400F200003304044
:1018700009210903884205D003214903884241D147
:10188000FFF780FE300A42E003A812F0E5FC0D905D
:10189000D74849460A5C09184978B02A02D1042978
:1018A00000D186E1E02A14D0F02A00D08DE107298A
:1018B0004ADC02296DD0042900D091E149460A187A
:1018C0001379D178907800950194521D09F030F881
:1018D00074E0112948DD192975DD1D2900DCA6E019
:1018E0001E2900D1EEE0202900D1F4E0222900D009
:1018F00076E149460A181379D1789078521D03F0A1
:10190000E3FE12E0FFF73EFE7005400F6830B84975
:101910004A4651182268885420684018457020684B
:10192000801C2060002F00D046E112F08BFC03A940
:10193000884202D10D9812F08FFC03A8808D0028F8
:1019400000D02BE10FB0F0BD08292DD00A2900D01E
:1019500046E149460A181379D178907800950194A8
:10196000521D09F08FFB29E009293FDC05296CDCB9
:10197000022900D1B2E0042900D031E149460A1819
:101980001379D178907800950194521D07F0F6FEF6
:10199000CBE749460A181379D178907800950194DD
:1019A000521D08F07BFE09E049460A181379D178E8
:1019B000907800950194521D08F01AFF0D9812F0CE
:1019C0004BFC0FB0F0BD15295CDC122900D196E06C
:1019D000142900D004E149460A181379D178907887
:1019E00000950194521D04F089FA9EE70D2959DCF7
:1019F0000A2900D18EE00C2900D0F1E049460918EF
:101A0000C978012900D1C0E0002900D0ECE0794A72
:101A10004B469A1881267600002797531A18137997
:101A2000907800950194521D07F066FE7DE71A2913
:101A30007BD01C2900D0D3E0296810220A432A60F9
:101A40004946081805F004FA6FE7062976D00829F8
:101A500000D0C5E067494A46511881235B00002445
:101A6000CC52296810230B432B6012181379D178BC
:101A70009078521D04F0BEFE002800D055E7FFF715
:101A800081FD52E7162964D0182900D0A8E0494604
:101A90000A181379D178907800950194521D03F0BB
:101AA000B1FC42E70E295FD0102900D098E04946EA
:101AB0000A181379D178907800950194521D04F09A
:101AC00087FB32E7296810220A432A604946081832
:101AD00005F01AFA29E703F019FA26E745494A46BC
:101AE000511881235B000026CE5212181379D17849
:101AF000907800950194521D03F026FB15E74946A6
:101B00000A181379D178907800950194521D04F049
:101B100083FB0AE749460A181379D1789078009533
:101B20000194521D04F032F9FFE6296810220A439D
:101B30002A604946081805F04DF9F6E649460A18A4
:101B40001379D178907800950194521D03F0A8F98B
:101B5000EBE649460A181379D178907800950194FC
:101B6000521D04F043FCE0E622494A465118812305
:101B70005B000026CE5212181379D1789078009528
:101B80000194521D03F072FACFE6296810220A432D
:101B90002A604946081805F015FAC6E610F0A4FFB9
:101BA00003A8002181850D9812F056FB052010F046
:101BB0009BFF2046FFF7B4FD81B2202011F09EFA72
:101BC000002806D10020FFF761FC3720400210F00A
:101BD0008BFF0B48784411F03FFEFF2012F002FB10
:101BE0006D20000210F080FF6B20000210F07CFFDF
:101BF000802C0000180000000D0000000E00000006
:101C0000904901008EB000260D960C9603E06846C0
:101C1000808D002859D16D46284612F0B1FEA88566
:101C200085B2002D25D0052D51D004466846868505
:101C30000A9812F011FB0F200003204009210F0326
:101C4000B84205D003214903884236D1FFF79AFCF8
:101C5000200ABD4203D010210C9A8A430C924946B7
:101C6000224A89180D9A885488184470901C0D9047
:101C70001AE0684612F0F0FA0A900DA801880D9655
:101C80000CA8007811F03AFA0C96002827D0052805
:101C900006D34946154A89180979491D814221D13F
:101CA0000CA80DA9FFF7C2FD12F0CCFA69468842D4
:101CB000ADD10A9812F0D0FAA9E7FFF763FC6005EE
:101CC000400F6830BD42C6D1C9E710F00DFF68462D
:101CD00086850A9812F0C0FA052010F005FF044826
:101CE00010F002FF0248401C10F0FEFE802C0000A5
:101CF0008269000080B511F025F980BDF0B583B090
:101D0000F64D4846405D0C2816DD0D287AD00E2889
:101D100000D1DDE0152815D1F14849460818807931
:101D200001280FD1484640190321FFF773FD000732
:101D300008D4052010F0D8FE052800D126E10C2893
:101D400000D155E3F84E4D460120A855AC190027A7
:101D50006760204612F0F4F9072012F08BFA6060F9
:101D6000F24C2859002810D0062012F0C3FA00289F
:101D70000BD04D46285902902F51062012F0BAFA86
:101D800002998847A819692141604846801940682E
:101D9000692800D060E1E6484D462C1811F058F84B
:101DA00011F058F8CE2002902752AD19072012F0FA
:101DB00061FA6860D026A159002900D118E30028F3
:101DC00000D115E3972800D112E34846D8494018BE
:101DD000D427C15D029A805A884200D308E312F0EA
:101DE00065F9AA2804D112F09FF9AA2800D0FFE2D1
:101DF0004846CF4C0019C15D029D405B884200D22D
:101E00007CE1FFE2C84E4D460120A855AC190027E1
:101E10006760204612F094F9072012F02BFA6060F8
:101E2000C24C2859002810D0062012F063FA00286E
:101E30000BD04D46285902902F51062012F05AFA25
:101E400002998847A819692141604846801940686D
:101E5000002800D1CCE2972800D1C9E2692800D03F
:101E6000EBE1B3484D462C1810F0F2FF10F0F2FFF2
:101E7000CE2002902752AD19072012F0FBF96860BE
:101E8000D026A159002900D1B2E2002800D1AFE24A
:101E9000972800D1ACE24846A5494018D427C15D37
:101EA000029A805A884200D3A2E212F0FFF8AA28D0
:101EB00004D112F039F9AA2800D099E248469C4C86
:101EC0000019C15D029D405B884200D24CE299E25C
:101ED000954E4F460120B855BC1900256560204637
:101EE00012F02EF9072012F0C5F960608F4C3859B6
:101EF000002810D0062012F0FDF900280BD04F4624
:101F0000385902903D51062012F0F4F902998847A1
:101F1000B81969214160484680194768692F00D087
:101F200008E183484C46271810F092FF10F092FF0A
:101F3000CE2500207853A419072012F09BF9606089
:101F4000D026B959002900D152E2002800D14FE231
:101F5000972800D14CE2484675494018D427C15D06
:101F6000405B884200D343E212F0A0F8AA2804D1D3
:101F700012F0DAF8AA2800D03AE248466C4C001970
:101F8000C15D405B884200D221E13BE2664F4E4694
:101F90000120F055F419002002906060204612F0F4
:101FA000CFF8072012F066F96060604C30590028C5
:101FB00011D0062012F09EF900280CD04E46305960
:101FC000019002983051062012F094F90199884747
:101FD000F019692141604846C0194068002800D1C5
:101FE00006E2972800D103E2692800D067E1504853
:101FF0004E46341810F02CFF10F02CFFCE2502981E
:102000006053F619072012F035F97060D026A159F7
:10201000002900D1ECE1002800D1E9E1972800D1A6
:10202000E6E14846FA494018D427C15D405B884242
:1020300000D3DDE112F03AF8AA2804D112F074F8C6
:10204000AA2800D0D4E14846F14C0019C15D405B9C
:10205000884200D2A8E1D5E1ED4C48460019D025D0
:102060004059002800D1B9E148460019D426815DC5
:10207000CE27C05B884200D3B0E112F017F8AA283F
:1020800004D112F051F8AA2800D0A7E1484600195F
:10209000815DC05B88420CD39CE1FFF72BFE484674
:1020A0000019C15B4A1CC253815D90B2884200D3C3
:1020B0008FE149460A19DC21515852594001101844
:1020C000002902D088470028E9D00128E5D14846F8
:1020D00000194159C05B40010818DEE724020000E6
:1020E000D42D0000FFF706FE48460019415B4A1C4C
:1020F0004253C15D90B2884200D382E149460A1939
:10210000DC215158925940011018002902D088470B
:102110000028E9D00128E5D1484600198159405BE3
:1021200040010818DEE7C04650030000482E0000BA
:1021300070030000B64C48460119E82009580029F0
:1021400013D00A46643A00D22A464B461B191A504D
:1021500064290AD8E4215958002906D04A461219A0
:10216000EC23D358135000208847002F00D13FE1C3
:10217000972F00D13CE148460019D025405900284E
:1021800000D12BE148460019D426815DCE27C05BE3
:10219000884200D322E111F089FFAA2804D111F06E
:1021A000C3FFAA2800D019E148460019815DC05B31
:1021B00088422DD30EE1FFF79DFD48460019415B93
:1021C0004A1C4253C15D90B2884200D319E149468E
:1021D0000A19DC215158925940011018002902D0E7
:1021E00088470028E9D00128E5D1484600198159DF
:1021F000405B40010818DEE7FFF77CFD4846001908
:10220000C15B4A1CC253815D90B2884200D3E0E0BA
:1022100049460A19DC215158525940011018002929
:1022200002D088470028E9D00128E5D148460019A6
:102230004159C05B40010818DEE7754C484600195B
:10224000D0254059002800D1C8E048460019D426BE
:10225000815DCE27C05B884200D3BFE011F026FF2E
:10226000AA2804D111F060FFAA2800D0B6E04846A1
:102270000019815DC05B88420CD3ABE0FFF73AFDEB
:1022800048460019C15B4A1CC253815D90B2884226
:1022900000D39EE049460A19DC21515852594001A9
:1022A0001018002902D088470028E9D00128E5D17C
:1022B000484600194159C05B40010818DEE7544CFC
:1022C00048460019E0214058002805D049464919E0
:1022D000C978490810F0A4FE48460019D025405995
:1022E00000287BD048460019D426815DCE27C05BEC
:1022F000884273D211F0DAFEAA2803D111F014FF3C
:10230000AA286BD148460019815DC05B88420BD377
:1023100060E0FFF7EFFC48460019C15B4A1CC2535E
:10232000815D90B2884254D249460A19DC21515845
:10233000525940011018002902D088470028EAD0DD
:102340000128E6D1484600194159C05B40010818F0
:10235000DFE7FFF7CFFC48460019415B4A1C4253B8
:10236000C15D90B288424CD249460A19DC215158CD
:10237000925940011018002902D088470028EAD05D
:102380000128E6D1484600198159405B40010818F0
:10239000DFE7FFF7AFFC48460019415B4A1C425398
:1023A000C15D90B288422CD249460A19DC215158AD
:1023B000925940011018002902D088470028EAD01D
:1023C0000128E6D1484600198159405B40010818B0
:1023D000DFE790B2884201D111F05AFF4846001958
:1023E000D421415CCE22805A884201D311F012FFE1
:1023F00011F010FF002801D110F0A0FB012003B064
:10240000F0BD90B28842F3D111F042FFF0E7C04630
:102410007003000010B58CB06C46204612F0B0FA84
:10242000A08500040DD011F00DFF6946884202D14D
:102430000A9811F011FF6846808D002808D10CB071
:1024400010BD684611F008FF0A90FF2011F0CAFE87
:1024500010F04AFB0021C170482282705422427061
:1024600045220270012241608160C16002614161C8
:102470007047D4D470B594B0002805D08068002887
:1024800002D03B494A465050394D484640590028F1
:1024900005D10EAC2046FFF7DDFF484644513548D4
:1024A00049460C18FFF76EF841208000002525549E
:1024B000314E484680194521890012F013F902ACCB
:1024C000204612F05DFAA08580B2052808D102A846
:1024D00085850C9811F0C0FE0C9811F0BDFEE8E760
:1024E00000280BD002A885850C9811F0B5FE0C9839
:1024F00011F0B2FEFFF78EFF14B070BD02A811F00C
:10250000ABFE0C9010F07EFC0620002421462246F3
:1025100011F050FE19494A465118C86118487844CC
:1025200011F07CFD407900280CD1012000026D469D
:10253000A88000941348784411F070FD06222946C3
:1025400011F09CFD002420460EF09AFC012528463F
:102550000EF096FC01F0CEFC204621460CF060FF08
:10256000284621460CF05CFF02F0B6FCFFF74AFB60
:10257000080000001800000070030000D42D0000C7
:10258000DE870100C687010086B004468068002807
:1025900004D16D462846FFF75DFFA56011487844D9
:1025A00011F05AF9606802280FD0042807D00328D8
:1025B00009D1A168E068FEF7C5FD11F0DDFDA16855
:1025C000E068FEF7B3FE11F0D7FDA168E068FEF702
:1025D000FBFE002802D0A068FEF760FFFF2011F08C
:1025E00001FEC0469C3B010010B5044662B610F0E7
:1025F00075FA002C09D0012000022168814209D11E
:10260000606801280AD1204600E00020FFF732FF71
:10261000002010BDFFF7FEFE002010BD2046FFF792
:10262000B3FFD4D40248494600220A507047C0463E
:102630008408000080B5FFF7F5FF80BD074A4946D2
:102640008958081801235B03984201D9002070477C
:102650004B469850024818184018704784080000EC
:102660008808000003494A465358181A00D200202F
:102670005050704784080000F0B581B000910546C5
:1026800001240A2808D32E460A21304611F040FEC4
:10269000641C632E0646F7D8E0B2471C3846FFF7A5
:1026A000CDFF064600280ED0084A7A443046394607
:1026B0002B4611F095FA0120FFF7D4FF009800286F
:1026C00001D000980470304601B0F0BDAA2C010082
:1026D00070B50E46054600242046FFF7AFFF314691
:1026E00011F09CFEC8B2002804D0301AFFF7A6FFF4
:1026F000002803D02846FFF7A1FF0446204670BDFE
:1027000080B500F009F8002803D0006811F086FCBD
:1027100080BD002080BDD4D4B0B506C80748784439
:1027200046238468C56855404C402C4304D05B1E4A
:102730001030002BF5D10020B0BDC046C68001008E
:1027400080B5FFF7E9FF002803D0406811F066FC70
:1027500080BD002080BD80B5FFF7DEFF411E8841AF
:1027600080BDD4D480B51148494609183C22895C03
:102770004A1E022A08D20E4849460818A421415C84
:10278000843002F0DBF880BDC02908D14946081822
:10279000406BC221415CBA3002F0D0F880BD0548E0
:1027A000784411F059F80020014680BD2001000056
:1027B000600100001726010080B5FFF7C1FF002867
:1027C00002D102484946085880BDC04608000000B2
:1027D000B0B504460B48494608580169426928CCFF
:1027E00055404B40083C2B4301D10120B0BD103077
:1027F000FFF7B1FF002803D02046FFF7ACFFB0BDC4
:102800000020B0BD0800000010B58AB04F20009035
:102810000D48494609180B462B3302AC2B222046A3
:10282000FEF764F9FF2006302146FEF7FFFA002884
:1028300001D00AB010BD0548784411F00DF8002011
:1028400007F0DEFE0AB010BDAC0500003227010023
:1028500070B590B00C4605460F484946081842210D
:10286000415C0092019302AE30462A462346FEF7B1
:102870004DF9832040003146FEF7D8FA002801D0F8
:1028800010B070BD0548784410F0E6FF002007F056
:10289000B7FE10B070BDC04684040000E72E0100F2
:1028A00080B505484946081802462B322B214F2394
:1028B000FFF7CEFF80BDC046AC050000B0B50C46AA
:1028C0000546182111F00EFF2C60B0BD0168C27DD5
:1028D0000A700168827D4A700168427D8A700168D1
:1028E000027DCA700168C27C0A710168827C4A71EB
:1028F0000168427C8A710168007CC8717047F0B53C
:1029000083B015460446416808980A1862603F2A59
:102910000DD84020821A2846194611F091FD2269EF
:102920000243226160690843606103B0F0BD403A30
:10293000811A28460025EF4300978F40F943CE17B0
:102940006260A160E66001900293194611F06CFD8F
:10295000B8432269024322613140606908436061E3
:102960002046FFF7B3FF25616561206808302060CD
:10297000606800280FD0009D8540E943CB17A16017
:10298000E36040210A1A0198A8430299194011F006
:1029900057FD2061616103B0F0BD0078C308172BBB
:1029A00017D3BF2805D80346B63B8B4209D9002070
:1029B0007047F8280DD30346F63B8B4207D9002019
:1029C0007047BC2805D30020107001207047FC28F8
:1029D000F9D201201070704770B5047864B2002CF1
:1029E00006D400201060187001240C60204670BDD1
:1029F000E6B2B72E08D801241460007800221A70BD
:102A000080380860204670BDBF2E0FD800241C708F
:102A1000B63E16600278B92A10DCB82A3BD0B92A33
:102A200050D182784078000280183DE0F72E13D80C
:102A30000124146000781C70C038E2E7BA2A2CD058
:102A4000BB2A3FD14278120683781B049A18C378B8
:102A50001B02D218007926E001251D70F63E166093
:102A600002780024F92A08DCF82A20D0F92A29D192
:102A7000827840780002801822E0FA2A19D0FB2AD6
:102A800020D14278120683781B049A18C3781B025F
:102A9000D218007913E0407806E042781204837877
:102AA0001B029A18C07810180860012070BD407889
:102AB00006E04278120483781B029A18C078101836
:102AC00008602C46204670BD80B582B00748494654
:102AD0000818813000900648081801210902054AAB
:102AE0007A44202311F07CF802B080BD84040000F9
:102AF000AC0500007C3C010080B582B00748494627
:102B00000818A13000900648081801210902054A5A
:102B10007A44202311F064F802B080BD84040000E0
:102B2000AC0500004C3C0100F0B58BB00346022917
:102B30003AD314460A4618682049884234D1586866
:102B40001F49884230D100250095212002AE194648
:102B5000334611F0B7FA1B4878442021324610F072
:102B60007BFE20360196184E7E440198057002A81F
:102B70002121202722463B460FF09EFD3046394654
:102B8000224610F069FE204600F024F86D1C002853
:102B9000EBD5204600F030F80C487844202122463E
:102BA00010F05AFE0BB0F0BD06CB0948784410F087
:102BB00053FED520C0010FF097FFC046550A008094
:102BC000D32A86A2752E01006C4C0100C627010095
:102BD000F229010080B582B006497944202201AB78
:102BE0000FF07CFD002802D1019802B080BD0FF0EB
:102BF0007BFFC046F650010080B5054A7A4420218B
:102C00000B460FF071FD002800D180BD0FF06CFF66
:102C1000F4500100F0B5A1B01C4605920F460646DF
:102C2000334849460D58334878441421324610F051
:102C300013FE304600F068F800280794069707D086
:102C40002D48784410F008FE1220049003950DE002
:102C50003046FEF735FD002845D00246C17F1432CC
:102C6000039226487844049110F0F6FD269F0297BF
:102C7000082118AE0598324601F0DFF810AC06982E
:102C8000214600F0ECFD08AD304621462A4600F012
:102C90006AFF0A2164262846079D2A46334601F02A
:102CA0002BF817487844294610F0D6FD3846039F84
:102CB0003946324611F0F6FE284611F019FF044657
:102CC000384611F015FF04990091029F3A182846E2
:102CD0002146334601F017FF0A487844394610F080
:102CE000BBFD21B0F0BDD520C0010FF0FDFEC046F8
:102CF000080000006B2B0100354601001441010063
:102D0000EC22010019210100B0B501460078012232
:102D1000002810460FD1491C00231C46132C03D356
:102D20001846132C03D106E00120132C03D00D5DAF
:102D3000641C002DF2D05040B0BDD4D4F0B59BB08F
:102D40001F4615460E4604460846114600F030F868
:102D5000002801D01BB0F0BD4122574313487844EE
:102D6000C1190AA8019011F0C3FC10F0B7FB0020B4
:102D700009900890079006900590049003900290A7
:102D8000274602AC601B203031462A4611F0B0FCC9
:102D9000019D2846214600F023F810F09FFB38469D
:102DA00039462A4600F030F81BB0F0BDB24F0100A2
:102DB000B0B54B1E0A469A4100290ED00378002B6D
:102DC0000BD101231C468C421A4600D30022A1429B
:102DD00003D0055D641C002DF5D001205040B0BD2E
:102DE00080B582B00A460146512020230FF052FCE4
:102DF000002807D1512001A911F04CF9002801D178
:102E000002B080BD0FF070FE80B582B013460A4656
:102E1000014651200FF020FC002807D1512001A9C4
:102E200011F038F9002801D102B080BD0FF05CFE2E
:102E3000F0B593B016460C46019002AD13497944A3
:102E40004122284611F054FC0127284621463A46E3
:102E50003B46FFF773FF611C1F24002328462246D0
:102E6000FFF76CFF0323284631463A46FFF766FF1B
:102E7000711C022328462246FFF760FF691C2022AE
:102E8000019811F035FC13B0F0BDC046D64F0100DB
:102E9000B0B590B0044608AD294600F0E0FC2846E5
:102EA00000F09CFDF82820D307210840401E03288D
:102EB0001DD808A804216A4600F0FFFC019B009A77
:102EC000204600F0D1FF039B029A2046083000F014
:102ED000CBFF059B049A2046103000F0C5FF079BEE
:102EE000069A1834204600F0BFFF10B0B0BDD520C0
:102EF000C0010FF0F9FDD4D4F0B597B01F461546C8
:102F0000039106460020169032487844202421463A
:102F100010F0A2FC30487844214601973A4610F060
:102F20009BFC2E4878441C9A2146029210F094FC97
:102F30001D9C002C1CD02A4878440096202631463F
:102F4000224610F089FC0EAF38462946019AFFF759
:102F50006FFF244878443146009E3A4610F07CFCCE
:102F6000384639462246FFF763FF1F48784406E09B
:102F70000EA82946019AFFF75BFF1C4878442024DD
:102F80000EAD21462A4610F067FC28462946029AD3
:102F9000FFF74EFF1648784421462A4610F05CFCA5
:102FA0002846FFF775FF04AC0398214600F024F88B
:102FB00010F094FA16AB20462946324600F028F865
:102FC00004460C4878442146324610F045FC204621
:102FD00017B0F0BD003D010059250100413201004C
:102FE000144A01004A370100BD44010022370100A4
:102FF000E3310100AE2B010080B50B4601465120A4
:1030000020220FF03BFB002800D180BD0FF06CFDAB
:1030100010B586B01C460B464821059104A90391C2
:1030200005A90291019220210091074903220FF086
:1030300007FB002806D1002C01D0049820600598D9
:1030400006B010BD0FF050FD01060000F0B58FB0C6
:103050001F4615460E46059000F0FCF8002E05D0E0
:1030600014213046FFF7A4FE00280DD071487844A3
:1030700010F0F2FB0021009101916F4A7A44042381
:10308000059800F0F1F840E0022D039708DD052DCA
:103090000FD0042D10D0032D08D1624C7C440DE0DC
:1030A0005E4C7C44002D09D0022D07D05C4878444A
:1030B000AEE05D4C7C4401E05C4C7C445C48784470
:1030C00014210291324610F0C7FB06AF242104916F
:1030D000384611F007FB2078617809020818A178BA
:1030E000E278120251180904081806903846103088
:1030F0003146029A11F0FCFA0021009101910598E5
:103100003A46049B00F0B0F8039F169E1598049071
:10311000052D01D0032D19D100200D9006AF039588
:103120000125FD770C900B900A900990089007906C
:10313000069042487844202421463A4610F08CFB01
:103140000096019405982946039D0AE03C4878447E
:10315000202421463A4610F07FFB0096019401217D
:1031600005983A46234600F07FF80498002804D0DA
:10317000307803210140317040E0032D33D33078A3
:10318000032101403170059800F064F8281F0228DF
:1031900003D203952D4D7D4404E0032D36D10395D4
:1031A000284D7D4414980290284611F0A1FC034656
:1031B000002400940194059F384621462A4600F0D9
:1031C00053F80094019420253846214632462B4678
:1031D00000F04AF80096019501213846029A2B46E4
:1031E00000F042F8039DFE200540042DC0D1049854
:1031F0000028BDD10020707004203070144878443D
:103200002021324610F028FB0FB0F0BD0E48784464
:10321000294610F021FB0FB0F0BDC046BB4D0100A8
:103220007E3E0100C54D0100A14D01009F4D0100F2
:103230003329010047390100E94D01005F3F0100DA
:10324000453F0100A27A0100143A0100D34C01006D
:103250004942010080B5012109020FF039FA002826
:1032600000D180BD0FF040FC10B582B00446059837
:1032700001900498009020460FF018FA002804D11D
:1032800020460FF00DFA02B010BD0FF02DFCF0B586
:1032900081B005460020002918D00E462C788C42BB
:1032A00014D2611EC9B2082910D81746691C1046ED
:1032B0002246009311F01CFA009A00203855611C38
:1032C000C9B2B14202D2685C1070012001B0F0BDF9
:1032D000B0B50C46054600F0E7FD03C408352846A6
:1032E000083C00F0E1FDA060E160B0BD8168C2680B
:1032F0000A4301D00020704706C80A43504250419B
:1033000070470A6802604A6842608A688260C968D9
:10331000C16070470021016041608160C1607047F9
:10332000F0B581B01446802904D32046FFF7F2FFA0
:1033300001B0F0BD0D460646002909D0402D0DD143
:10334000B0680021A160F268E16005C401B0F0BD81
:1033500020463146FFF7D5FF01B0F0BD3F2D1AD80A
:1033600003CE2A46083E11F06BF807460091402034
:10337000421BB068F16811F057F8C019206000983E
:1033800041416160B068F1682A4611F059F8A060C7
:10339000E16001B0F0BD402DC7D0B0680022A2604E
:1033A000F168E260403D2A4611F04AF803C401B0DA
:1033B000F0BDF0B587B01446802904D32046FFF74E
:1033C000A9FF07B0F0BD0D46064600290AD0402DE2
:1033D0000BD10020206060603068A0607068E06001
:1033E00007B0F0BD204631461EE03F2D20D837689B
:1033F0007168019138462A4611F016F8039102903F
:10340000B068F1682A4611F00FF806460091402096
:10341000421B3846019911F013F8301804900098B7
:103420004141059102A92046FFF76BFF07B0F0BDAF
:10343000402DC3D030680022226071686260403D38
:103440002A4610F0F1FFA060E16007B0F0BD70B552
:1034500005684468294621430DD0204610F0FCFF42
:103460000646284610F0F8FF002C01D12030064611
:103470008020801B70BD8668C468304620430DD014
:10348000204610F0E9FF0546304610F0E5FF002C1D
:1034900001D1203005464020401B70BD002070BD8A
:1034A000B0B50CC930C85D405440083808392C43C9
:1034B00009D18A68C9688368C0684840534003439B
:1034C00058425841B0BD0020B0BDF0B50B684A6805
:1034D00005684468264656402F465F40374308D16A
:1034E0008268C0688B68C9689A1A814104D2012039
:1034F000F0BD581BA241FAD30020F0BDB0B50C4678
:103500000546FFF7E2FF002801D00120B0BD2846A4
:103510002146FFF7C5FFB0BDF0B584B00092426808
:103520004B6805680E6875195341CA680392C668EE
:103530008A680292826801920022029F019CE71928
:10354000039F7E415541009C256053416360826822
:103550008B689A18A260C068C9684141E16004B0F4
:10356000F0BDF0B584B003924C6842680D680668FF
:10357000731BA241002600935B1E02931446B441C4
:10358000CB680193C7688B688568EB1A019B9F41E4
:1035900000D20126002E039D029B00D1009B2B60D0
:1035A000002E00D114466C608A6883689A1AAA605B
:1035B000C968C0688841E86004B0F0BD10B5036810
:1035C0000C681C43146043684C681C435460836857
:1035D0008C681C439460C068C9680143D16010BD09
:1035E000F0B597B01C4601920E46074600200590A4
:1035F00001210491039002903846FFF728FF0090C4
:103600003046FFF724FF05460AA8FFF783FE06A809
:103610003946FFF776FE30463946FFF756FF002859
:1036200008D020463946FFF76CFE0198FFF772FE7E
:1036300017B0F0BD27460098441B12AD3046214616
:103640002A46FFF76DFE02A80EAA2146FFF768FE84
:1036500006A92846FFF739FF00280AD0012412A83E
:1036600021460246FFF7A5FE0EA821460246FFF7B7
:10367000A0FE06A83146FFF741FF00283D46019F06
:103680001AD10AA93846FFF73CFE06A92846FFF7DB
:1036900038FE17B0F0BD012412A821460246FFF7FC
:1036A00088FE0EA821460246FFF783FE06A8314693
:1036B000FFF724FF0028E4D006A812A9FFF71EFF99
:1036C0000028E8D012A906A80246FFF74AFF0EA973
:1036D0000AA80246FFF772FFDDE7D4D4F0B591B037
:1036E0001E4603920F4601460CA8FFF70AFE08A8E3
:1036F000FFF710FE04A8FFF70DFE002007900697C5
:10370000B91E0E2924D8741E00261448784402904D
:103710000196A6421ED804A90CAF08AD38463A4619
:103720002B46FFF75DFF287A0299085C03998855BC
:10373000761C3846FFF7DAFD0028EAD0A642019849
:1037400006D8002103988155314600F0C3FB0120C3
:1037500011B0F0BD019811B0F0BDC0465730010066
:10376000F0B599B01C4615460F4606460A293AD1CF
:103770000CA802951025294610F0CAFF01960026D4
:103780000F9601200E90039408AC2046294610F0B5
:10379000BFFF0B9602200A90F043019E14901590F3
:1037A0001690179014A810AD04AB2146039C2A462E
:1037B000FFF716FF30462946029DFFF786FE0028D8
:1037C00011D014A804AF31463A46FFF7CAFE0CA93F
:1037D00038463A46FFF7A0FE2D2028706A1C631E6B
:1037E0000A21384603E0304639462A462346FFF789
:1037F00075FF19B0F0BDF0B585B014460D4606460C
:10380000C9B201F09BF81020431BC817C2B201AF28
:103810003846194610F074FF781B103031462A469E
:1038200010F066FF38462146FFF752FD05B0F0BDA7
:10383000F0B585B014460D4606461020411A01AF7A
:10384000384610F04FFF781B103031462A4610F0F2
:103850004FFF38462146FFF73BFD05B0F0BDB0B540
:103860000C460546FFF734FD103510342846214636
:10387000FFF72EFDB0BD10B504461030FFF736FD42
:10388000002803D02046FFF731FD10BD002010BDF9
:10389000B0B50C460546FFF734FD10351034284608
:1038A0002146FFF72EFDB0BD10B50446FFF732FDEF
:1038B00010342046FFF72EFD10BDF0B593B014462E
:1038C0000546080A04D02046FFF7EEFF13B0F0BD0E
:1038D0000E46002907D0802E08D1103520462946F3
:1038E000FFF70FFD2DE0204629461DE07F2E1FD853
:1038F0000EAA019228463146FFF712FD8020811B57
:1039000010350AAA00922846FFF753FD02AF01982E
:1039100000993A46FFF700FE3A46103228463146F3
:10392000FFF7FEFC20463946FFF7B2FF13B0F0BDAB
:10393000802EC8D01035803E284631462246FFF7FB
:10394000EFFC10342046FFF7E5FC13B0F0BDF0B5F6
:1039500093B014460546080A04D02046FFF7A4FF9A
:1039600013B0F0BD0E46002924D0802E05D120468C
:1039700010302946FFF7C5FC2BE07F2E20D802AA85
:10398000019228463146FFF714FD284610300EAF4D
:1039900031463A46FFF70DFD8020811B0AAE2846CE
:1039A0003246FFF7BDFC019D2A46103238463146AB
:1039B000FFF7B2FD20462946FFF76AFF13B0F0BDBE
:1039C000802ECAD0803E2246103228463146FFF76C
:1039D000F0FC2046FFF79EFC13B0F0BDB0B584B0FC
:1039E0000446FFF783FC00281AD010346D462846A1
:1039F0002146FFF786FC2846FFF778FC00240028C4
:103A00000BD101216D4628462A46FFF7D2FC641CE3
:103A10002846FFF76BFC0028F3D0204604B0B0BD69
:103A20006D4628462146FFF76CFC2846FFF75EFCF2
:103A300080240028F1D101216D4628462A46FFF74F
:103A4000B8FC641C2846FFF751FC0028F3D0E4E7DB
:103A5000B0B50C460546FFF723FD002806D010350B
:103A6000103428462146FFF71BFDB0BD0020B0BD35
:103A7000B0B50C460546FFF713FD002801D0103500
:103A8000103428462146FFF720FDB0BDB0B50C46E6
:103A90000546FFF7EDFF002801D00120B0BD284604
:103AA0002146FFF7D5FFB0BDF0B589B014460D46ED
:103AB0000646FFF731FD1036103504AF3046294673
:103AC0003A46FFF729FD30463946FFF7FEFC00284D
:103AD0000AD00020039001210291019000906946D4
:103AE00020462246FFF718FD10343046294622466C
:103AF000FFF712FD09B0F0BDF0B589B014460D46D0
:103B00000646FFF72EFD1036103504AF3046294625
:103B10003A46FFF726FD38463146FFF7D6FC002827
:103B20000AD0002003900121029101900090694683
:103B300020462246FFF715FD10343046294622461E
:103B4000FFF70FFD09B0F0BD70B514460D460646EF
:103B5000FFF734FD10361035103430462946224622
:103B6000FFF72CFD70BDF0B5A5B001920391029056
:103B700005A8402110F0B6FD002515AE1DAC049639
:103B8000EF0008203E46064087430298C01982593C
:103B900080194368204600F067F90398C0198259DC
:103BA0008019049E4368304600F05EF908340836F8
:103BB0006D1C042DE3D105AC1DA915AA204600F00B
:103BC00012F820340025019E680800013018E9072A
:103BD000090F4118204600F056F908346D1C042DD9
:103BE000F2D125B0F0BD80B520230EF083FD002872
:103BF00000D180BD0EF078FFF0B5ABB0009301921C
:103C00000E46074602A8FFF74FFE0020099001214B
:103C10000891079006903846FFF7E0FE04463046CC
:103C2000FFF7DCFE054612A8FFF73EFE0AA839465C
:103C3000FFF72EFE30463946FFF71AFF002808D05E
:103C400000983946FFF724FE0198FFF72DFE2BB0B0
:103C5000F0BD009F641B22AD304621462A46FFF787
:103C60002CFE02A81AAA2146FFF727FE0AA9284619
:103C7000FFF7FEFE00280AD0012422A821460246B2
:103C8000FFF765FE1AA821460246FFF760FE0AA864
:103C90003146FFF7FBFE00283D46019F1AD112A9CD
:103CA0003846FFF7F5FD0AA92846FFF7F1FD2BB0CE
:103CB000F0BD012422A821460246FFF748FE1AA8BB
:103CC00021460246FFF743FE0AA83146FFF7DEFE13
:103CD0000028E4D00AA822A9FFF7D8FE0028E8D0DF
:103CE00022A90AA80246FFF707FF1AA912A802464E
:103CF000FFF72AFFDDE7D4D4F0B59BB01D46019253
:103D00000E46014612A8FFF7C3FD0AA8FFF7CCFD37
:103D100002A8FFF7C9FD00200990079006900896B9
:103D2000B11E0E292ED8002D2CD00026194878441B
:103D3000009002A912AF0AAC38463A462346FFF774
:103D40005BFF207E0099085C01998855761C3846F7
:103D5000FFF791FDAE4201D20028EAD0B5420AD168
:103D6000042D11D30C49794401982A4610F09AFE8B
:103D700000201BB0F0BD002101988155314600F0B4
:103D8000A9F801201BB0F0BD0020019908701BB0FC
:103D9000F0BDC046352A0100692C0100F0B5ADB078
:103DA0001D4616460F4604460A293ED114A803951F
:103DB0002025294610F0ACFC029600261B96012017
:103DC0001A9001940CAC2046294610F0A1FC1396E1
:103DD00002201290F043029E249025902690279076
:103DE000289029902A902B9024A81CAD04AB214642
:103DF000019C2A46FFF700FF20462946039DFFF756
:103E000037FE002811D024A8214604AC2246FFF733
:103E100073FE14A920462246FFF746FE2D2030707F
:103E2000721C6B1E0A21204603E0204639463246AA
:103E30002B46FFF761FF2DB0F0BDF0B589B01446F9
:103E40000D4606462020411A01AF384610F04AFCC4
:103E5000781B203031462A4610F04AFC384621466D
:103E6000FFF7FDFC09B0F0BDC271C370110A81718A
:103E7000110C4171110E0171190A8170190C4170F8
:103E8000190E01707047C2790A7082794A704279BE
:103E90008A700279CA70C2780A7182784A7142784F
:103EA0008A710078C8717047417909040279120655
:103EB0005118827912028918C2798A180178090684
:103EC00043781B04591883781B02C918C078091855
:103ED00010467047B0B5491E0BD0012283185B1EF7
:103EE0001C78455C1D704454531C491E8A421A4676
:103EF000F4D3B0BD80B507484946085C002801D11D
:103F00000EF09EFA04497944002002460DF06EFD41
:103F100080BDC046700300001640010080B5034913
:103F20007944002002460DF061FD80BDAC410100E6
:103F300080B503497944002002460DF057FD80BD4D
:103F40003442010080B503497944002002460DF057
:103F50004DFD80BDA443010080B503497944002094
:103F600002460DF043FD80BDA843010080B5034922
:103F70007944002002460DF039FD80BDA0420100C9
:103F800080B503497944002002460DF02FFD80BD25
:103F90001846010080B503497944002002460DF01F
:103FA00025FD80BD6449010080B5034979440020A6
:103FB00002460DF01BFD80BD5C4A010080B503493F
:103FC0007944002002460DF011FD80BD144D010022
:103FD00080B50A46002908D10C497944002A08D046
:103FE0000B4A7A44002808D008E007497944002A9F
:103FF000F6D1084A7A44002800D111460020024632
:104000000DF0F4FC80BDC046144C0100E24B0100F1
:10401000F64B0100A84B010080B50349794400200C
:1040200002460DF0E3FC80BD2C46010080B503493B
:104030007944002002460DF0D9FC80BDC046010045
:1040400080B5002000F002F880BDD4D4F0B583B074
:1040500001902B4E7E4430460FF0E0FF0078294D52
:104060007D442949794402910028294600D00299CB
:1040700022484A46171838462B300924224610F0A9
:1040800011FD30460FF0CAFF40780028294600D0C5
:10409000029938463430224610F004FD30460FF0C5
:1040A000BDFF80780028294600D0029938463D306F
:1040B000224610F0F7FC30460FF0B0FFC078002821
:1040C000294600D0029938464630224610F0EAFCD4
:1040D00030460FF0A3FF0079002800D0029D4F3733
:1040E00038462946224610F0DDFC00200749794475
:1040F000019A0DF07BFC03B0F0BDC046AC0500009A
:10410000A86C010013250100A81901008E3F0100D1
:10411000FF2010F067F880B500F002F880BDD4D41D
:1041200080B5044878440FF079FF0349794400F0E2
:104130005DF880BDD86B0100303E010080B500F015
:1041400001F880BD80B5054878440FF067FF401C3A
:104150000349794400F04AF880BDC046B46B0100C1
:10416000423E010080B500F001F880BD80B50548F1
:1041700078440FF053FF801C0349794400F036F86F
:1041800080BDC0468C6B0100523E010080B500F03E
:1041900001F880BD80B5054878440FF03FFFC01C92
:1041A0000349794400F022F880BDC046646B0100E9
:1041B000623E010080B500F001F880BD80B5054881
:1041C00078440FF02BFF001D0349794400F00EF8EE
:1041D00080BDC0463C6B0100723E010080B5FFF718
:1041E00089FE80BD80B5FFF785FE80BD10B582B029
:1041F0000C4603780122534001A90B700FF03EFFDB
:104200002046FFF723FF02B010BDD4D480B582B0A2
:1042100007484946081808300090064808186421E5
:10422000054A7A4430230FF0DBFC02B080BDC04663
:1042300018000000AC0500003A25010010B5044646
:10424000FFF7E4FF20460DF0B3FE10BD80B500205F
:1042500000F060FF80BD80B5002001F0A3F880BDB4
:1042600080B5002001F084F880BD80B5002001F009
:1042700099F880BD80B5002001F0D2F980BD80B5ED
:10428000002001F0E7F980BD80B500F001F880BDA5
:1042900010B5074C4846005D002805D00DF0B2FA75
:1042A00048460021015510BD02F030FC10BDC0464B
:1042B0008828000080B5044849460818E0210022FB
:1042C000425002F049FC80BD7003000080B500F050
:1042D00001F880BD80B508484946085C012808D12E
:1042E000064849460818E0210022425002F04CFCE2
:1042F00080BD00F031F880BD882800007003000008
:1043000080B502F0AFFC80BD80B502F027FD80BD16
:1043100010B5064979440024204622460DF066FB7C
:10432000014849460C5410BD88280000F84001009F
:1043300010B5002406497944064A7A4420460DF017
:1043400055FB024849460C5410BDC0468828000061
:10435000D64001000640010080B5064849460122CA
:104360000A54002004497944044A7A440DF03EFB83
:1043700080BDC04688280000A6400100E63F01003D
:1043800080B5002006497944064A7A440DF02EFB98
:104390000248494602220A5480BDC04688280000CF
:1043A000864001003E40010080B500200649794466
:1043B000064A7A440DF01AFB0248494601220A5483
:1043C00080BDC046882800005E400100D23F010049
:1043D00080B500F001F880BD10B504F07DFD012826
:1043E0000CD0022810D10D4C4846005D00280CD09E
:1043F0000DF008FA48460021015510BD064849460F
:104400000818E0210022425010BD0DF0F5F9484691
:104410000121015510BDC04670030000892800002D
:1044200080B5002005F01EF880BD80B5002005F0A5
:1044300020F880BD10B50649794400242046224664
:104440000DF0D4FA014849460C5410BD89280000EB
:104450009840010010B5002406497944064A7A4480
:1044600020460DF0C3FA024849460C5410BDC04620
:104470008928000076400100F23F010080B500204D
:1044800006497944064A7A440DF0B0FA0248494692
:1044900001220A5480BDC046892800004E40010018
:1044A0000A40010080B582B00748494608182C3000
:1044B00000900648081801210902054A7A44202381
:1044C0000FF08EFB02B080BD18000000AC050000AC
:1044D000A022010080B582B00748494608184C3038
:1044E00000900648081801210902054A7A44202351
:1044F0000FF076FB02B080BD18000000AC05000094
:104500007022010010B50446FFF7CCFF20460DF0E5
:104510004FFD10BD10B50446FFF7DCFF20460DF03F
:1045200047FD10BD80B5002004F0F8FF80BD80B5C8
:10453000002005F0CDF880BD80B5002006F074F8AD
:1045400080BD80B5002006F09DF880BD80B50020BC
:1045500006F06AF880BD80B5002006F093F880BDB3
:1045600010B50446FEF750F920460DF021FD10BDB0
:1045700080B5012000F074F980BD80B5002000F006
:104580006FF980BD80B5002005F0A0FF80BD80B52B
:10459000002006F035F880BDF0B583B004464A4FE0
:1045A00048464C497944C15148494018C321405CB0
:1045B000012600280ED0002C0CD1474878440FF07B
:1045C0002DFD4078002805D14846C019434979445B
:1045D000416002264846C019B1004018751C002CE5
:1045E00011D04A46D219AB003D4C7C44D4503D4BCF
:1045F0007B44036088183C4979443C4A7A44816092
:10460000C260341D26E03A4979440160FEF7AAF8F9
:10461000019100904C462D482118A531684601F0C3
:104620002DF8E119AA008918B41C00280FD03148D0
:1046300078440860304878440FF0F0FC0079002896
:1046400008D0484620494018A1004118F41C2B48C6
:10465000784408602A4878440FF0E0FC807800280D
:1046600008D04846184FC019A100264A7A44425043
:10467000641C00E0144FFEF775F801225040084317
:104680000ED013484946085801694069514001431A
:1046900006D14846C019A1001B4A7A444250641C06
:1046A0004846C119A000194A7A440A500A18184B02
:1046B0007B44184C7C440020C543121D38C202467E
:1046C0000DF094F903B0F0BD8C28000060010000EB
:1046D000080000006C410100406701008A420100AF
:1046E0007E410100684101008841010094410100C0
:1046F000204101004C380100C6660100F040010075
:10470000A6660100D04101002641010000410100E0
:10471000444101007041010080B5002006F04EF8D0
:1047200080BD80B5002000F03DFE80BD80B500203A
:1047300006F068FC80BD80B5002005F061FF80BDFB
:1047400080B5002006F05EFC80BD80B5002005F03D
:1047500057FF80BD10B50446FEF7B6F920460DF0B0
:1047600027FC10BD10B5044600F004F820460DF0FB
:104770001FFC10BD80B582B00C484A461058016934
:104780004069009101900A4811180A4813180A4814
:104790001018C1300122120200F050FB002801D095
:1047A00002B080BD352040020EF09EF908000000E6
:1047B000AC050000D80600008404000010B50446D3
:1047C000FEF79AF920460DF0F3FB10BD80B582B0DC
:1047D00007484946081800900648081801210902B0
:1047E000054A7A4420230FF0FBF902B080BDC04691
:1047F00084040000AC0500007A1F010080B582B07F
:10480000074849460818203000900648081801213A
:104810000902054A7A4420230FF0E2F902B080BD74
:1048200084040000AC050000481F010010B50446D8
:10483000FFF7CCFF20460DF0BBFB10BD10B50446C2
:10484000FFF7DCFF20460DF0B3FB10BD80B5002064
:1048500006F09AFC80BD80B5002005F0D1FE80BD39
:1048600070B528494A46531843229B5C002807D05C
:104870004846012B0FD1401842210022425213E03A
:104880004846012B15D1401800218154FEF708F845
:104890000CF0B8FF70BD42184220125C002A28D0EC
:1048A0004B465918521E0A54FDF7FAFF0CF0A4FFAC
:1048B00070BD44184220235C4125645D641E9C4207
:1048C00010DD4C4661185A1C0A540F4D6619FDF74D
:1048D000E7FF0CF097FF0020B060605D401E0DF018
:1048E000C9FA70BD48464018012181540CF084FF7C
:1048F00070BD4A465118012212020A520CF082FF82
:1049000070BDC0468404000070030000B0B5002AEA
:104910000ED0094B7B440C7824091C5D04700C7884
:104920000F2525405C5D4470801C491C521EF2D14D
:1049300000210170B0BDC0464F1E0100B0B5002976
:1049400011D04A1E072A00D30821002422460378EA
:104950002502EB18240E12021219491E401C0029D0
:104960001C46F4D101E000231A4618461146B0BD9A
:10497000F0B587B002930446002001920546C7B205
:104980007B1C029883422BD2009306950A250026B1
:10499000204605912A4633460FF07CFD0490039192
:1049A0002A46069D33460FF095FD019A201A3021C4
:1049B0000143D155681C0921091B3146059B9941CA
:1049C000049C0399DAD3C0B216542806009B07D082
:1049D000D05D915DD15590557F1E761CBE42F7D3B8
:1049E0000298834202D3002007B0F0BD012007B037
:1049F000F0BDD4D4F0B58BB014460A46202901D9B5
:104A0000002638E01D46014600260A9609960896BB
:104A10000796069605960496039603AFB81A2030BB
:104A20000FF066FE384600F055F8002809D0022D38
:104A300021D32749794420462A4610F033F801262D
:104A400019E0002003A90A5A52BA0A52801C2028F1
:104A5000F8D103A800F03EF84742474100280DD0A6
:104A60002E46A119AD1B20462A460FF045FE002018
:104A7000605501267E4030460BB0F0BD0095002DFC
:104A8000F7D0009E019402960024204603AD295BD6
:104A9000000446180A27304639460FF039FC2853DF
:104AA0004743F01BA41C202CF0D130210843029E68
:104AB000761E019CA05503A800F00CF84742474120
:104AC000002802D1002EDED1D3E7009DC9E7C04601
:104AD0006A170100B0B5014600780122002810468F
:104AE0000FD1491C00231C461F2C03D318461F2C32
:104AF00003D106E001201F2C03D00D5D641C002DA6
:104B0000F2D05040B0BDF0B583B0029314460E46CB
:104B10000746012907D13878302804D102980228A5
:104B20003DD200256FE0089BB34222D2B11C002584
:104B3000029801918142294645D80020F11A04D0FB
:104B40003A5C2254401C8142FAD1002B024602D02A
:104B50002E212154421CB042114632D2331A381849
:104B60001146067866545B1E401C491C002BF8D188
:104B700027E0D91C0025029801918142294622D8BC
:104B8000991B2E2060703020207000290DD0A01CB1
:104B9000302200910FF0B4FD0098821C06E0002046
:104BA00060703020207001252DE00222002E114679
:104BB00007D01146387860547F1C761E491C002EA1
:104BC000F8D1002060540298019B83421BD88A428E
:104BD0000ED2002303E0521C9142034609D0002B61
:104BE000104600D01846A35C302BF4D00020F2E72A
:104BF00000200125002806D000212154401E225CFF
:104C00002E2A00D12154284603B0F0BDF0B59DB046
:104C1000039302920D46074604AC642620463146B3
:104C20000FF060FD3846294622463346FFF7E2FE84
:104C300000282CD0239C229D04A864210FF0D6FFCD
:104C400001900B2103980FF0D1FF0746C6B2A64290
:104C5000224600D83246284603990FF049FD002E1F
:104C600002D02020A8557F1C02980090F8B22A1884
:104C7000C04303190198C1B204A8FFF744FF0028FC
:104C800003D06119491E00220A701DB0F0BD00203A
:104C90001DB0F0BDF0B58BB016460C46074601209E
:104CA000010210460DF014FD0025002815D10294D4
:104CB0002020019003A800900937012440233046AA
:104CC00021463A460DF0F2FC002806D103A90C312A
:104CD000142202980FF00CFD254628460BB0F0BDBB
:104CE000F0B58BB014460D46074601200102104670
:104CF0000DF0EEFC0026002817D12020019003A81B
:104D0000009009370121402320463A460DF0CEFCA1
:104D100000280AD1119810990091019003A80C3035
:104D20002946224600F004F8064630460BB0F0BD96
:104D3000F0B593B0039204910546012318980146FB
:104D400099431E224A4019990A430027002A3A46ED
:104D500019D1059306AA33242346FFF709FE00283C
:104D60005FD006AE304621460FF040FF3318221ABE
:104D70003049794418460FF061FE304621460FF065
:104D800035FF0246059B06A8059280182A4E7E44F0
:104D9000E95D0F240A092140715C4170B15C01702A
:104DA000801C7F1C142FF3D11902039F38460DF08D
:104DB0008FFC002100283AD12020019006A8029003
:104DC0000090059B2833012238460F460592114674
:104DD000029A0DF06BFC3946002828D10020049F70
:104DE000059B05E0715C059B3954401C28281AD0AE
:104DF00002461A404308E95C002A03D021400929F1
:104E0000F0D902E009090929ECD906AFFB5C920050
:104E100004275740FB401A07715C00D52039049FD6
:104E2000E1E7002103E02820002139541946084613
:104E300013B0F0BD161B0100D519010070B582B08A
:104E400014460D462A2A10D90799069A78266E70BC
:104E500030262E7000920191A91C1A46FFF768FFB8
:104E6000002802D0012002B070BD044979442846D0
:104E700022460FF017FE002002B070BD1619010087
:104E800080B5142A00D31422891A20310FF034FC83
:104E900080BD80B5202A00D320220FF02DFC80BDDC
:104EA0000C4878440FF0BAF800780E210143084806
:104EB0004A4611541018012141700A2181700421C1
:104EC000C17001980160092000030DF00DFEC0467D
:104ED000802C00005A5E010080B500F007F80249FE
:104EE0004A46505080BDC046C828000080B582B0F8
:104EF00001A804210DF004FC019802B080BDD4D4B7
:104F00000148494608587047C828000080B5FFF797
:104F1000F7FF0146074878440EF09EFCFFF7F0FFCC
:104F200000F00AF800F016F8202006210EF0E6F84E
:104F300080BDC04679040100010E054A4B469954D4
:104F40009918C870020A8A70000C48707047C046F1
:104F5000802C000003484946081800214171902127
:104F600001717047802C0000F0B5CFB001920C4663
:104F700005460EF0B3FA392047AE2946224633469D
:104F80000FF0C6F80EF0AAFA02AF302538462946CF
:104F90000FF0A8FB384610301ECE1EC01ECE1EC01D
:104FA00035AC3846214600F02DF81AAE3046214681
:104FB00000F034F8602138460FF0AAFB4821204663
:104FC0000FF0A6FB2F2002213954314639313846E3
:104FD0003A4600F02FF83037384600F035F8002810
:104FE00001DC7F2000E05F20C043717A1F220A406D
:104FF000801870720936019831462A460FF078FB06
:105000004FB0F0BD80B50B460146392030220DF07F
:1050100035FB002800D180BD0DF066FD80B50A4645
:105020000146392001230DF023FB002800D180BD6B
:105030000DF05AFD80B530230DF05CFB002800D147
:1050400080BD0DF051FDD4D480B582B006497944BD
:10505000302201AB0DF042FB002802D1019802B0D2
:1050600080BD0DF041FDC0469E3C010070B58CB086
:1050700015460E4604460BA803701B484946085CBB
:10508000002801D1FCF77EFA022C1CD2002E1AD186
:105090000BA96A462846FCF781FB002817D0134865
:1050A00049460A18083268460178001DFFF75CFF80
:1050B000002C11D0109CFEF73BFF2068102101430B
:1050C00021600CB070BD6B2000020DF00DFD6B2057
:1050D000000280380DF008FD119C00F009F82060F6
:1050E000092000030DF000FD0D0000001800000075
:1050F00010B5064849460818054A89180831302471
:1051000022460FF0F5FA204610BDC046802C000064
:1051100018000000B0B50B4849460D18FFF7E8FF2E
:10512000044690202855281900254570FCF72AFAD6
:10513000A01C81B220200DF0E1FFFEF7DBFE284627
:10514000B0BDC046802C0000F0B5A5B015460E4697
:10515000044624A8037058484946085C002801D139
:10516000FCF710FA022C00D384E0022E00D385E075
:10517000039424A911AA2846FCF710FB02900028EA
:1051800000D18DE0701E414241414C484D462E18E1
:10519000952431550EF0A2F9305D002801D030463B
:1051A000753011A90A780090091D21201CAF3B46DB
:1051B0000EF088FF07AC3846214600F08FF80EF05D
:1051C0008DF9204600F096F8282120460FF0A0FA2D
:1051D000202138460FF09CFA0EF080F9384C2859FF
:1051E000016940690091019036482A1831464C31D6
:1051F0003046FFF775FD00284AD04846005901693E
:1052000040690590049124A80078082809D3082152
:105210000298FFF793FB249A083A24AB1A70059181
:10522000049024A80178002936D1039800283BD0A7
:105230002A9D4E46214830184C30009022483018A4
:105240002B21254A7A4428230EF0CAFC30590269E2
:105250004069059B434004995140194304A8002923
:1052600000D10846FEF782FE28681021014329601C
:1052700025B0F0BD15487844214602E01448784432
:1052800031460EF0E9FAD520C00180300DF02CFC3B
:105290007720C0430DF028FC0E4878440EF0DCFA6D
:1052A000D520C0010DF020FC2B9C00F033F82060CD
:1052B000092000030DF018FC0D000000180000008C
:1052C00008000000D8060000AC050000FE26010022
:1052D000D20B0100060F01002328010080B50B4608
:1052E0000146212020220DF0C9F9002800D180BDFF
:1052F0000DF0FAFB80B50246054849460918212001
:1053000001230DF0B5F9002800D180BD0DF0ECFBB4
:1053100018000000F0B581B0134D494641224A55AE
:105320004C19601C114E8F19394608310FF0E0F905
:10533000422028222254433439464C3120460FF073
:10534000D7F99520385C00280AD0494648196B30B7
:105350008919753120220FF0CBF98B2001B0F0BDF7
:105360006B2001B0F0BDC046802C0000180000008A
:10537000B0B50B4849460D18FFF7CCFF0446902006
:105380002855281900254570FCF7FCF8A01C81B2AF
:1053900020200DF0B3FEFEF7ADFD2846B0BDC0469F
:1053A000802C000080B50848494669220A54081834
:1053B00085214170FCF7E6F8202002210DF09EFEC9
:1053C000FEF798FD002080BD802C0000B0B50022C3
:1053D0001F2305E0C45C8C545B1E521C202A0FD096
:1053E000D4B21F2C07D0002CF4D1C47F3F25254018
:1053F00040350D70F0E70478F8252540CD77EBE7D0
:10540000B0BDD4D4F0B5ADB005462CA80370022DC4
:1054100000D3BAE00C46022900D3B2E02CA911ABAC
:1054200010461A46FCF7BAF9002855D02CA9012CD1
:1054300003D109781F2900D8A3E05C4F4E46F2192A
:105440009521535C002B06940395029005960492D7
:1054500001D01346753311A90A780093091D21253F
:1054600024AC284623460EF02DFE07AE28462146E2
:10547000324600F0A7F82846314600F0ADF84C4817
:10548000059A105801694069009101904948121825
:10549000049801464C31FFF723FC00287AD0069887
:1054A00000281DD04846C4190934202620460299F8
:1054B00032460FF021F924AD2046294632460DF040
:1054C00037F9044607A828210FF022F9284631466B
:1054D0000FF01EF9002C21D0D520C0010DF004FBE7
:1054E00024A805901CAE3146FFF770FF812407AD5C
:1054F000204631462A4600F065F82046294600F04D
:105500006BF82024304621460FF002F92821284666
:105510000FF0FEF8059821460FF0FAF803980028DE
:105520003CD0329C4846C1194C310091224E801922
:105530002B21224A7A4428252B460EF051FB24A821
:105540004946C919495D0170401C6D1E082DF7D1EF
:1055500024A80090484680192B304E21184A7A44DE
:1055600020230EF03DFB0698002802D0FEF7F4FC45
:1055700001E0FEF7E7FC20681021014321602DB017
:10558000F0BD672000020DF0AFFAD520C0018030D9
:105590000DF0AAFA7720C0430DF0A6FA339C00F074
:1055A0002BF82060092000030DF09EFA180000007F
:1055B00008000000D8060000AC05000033250100FB
:1055C000A515010080B5134620220DF057F80028DC
:1055D00000D180BD0DF088FA80B50A4605494B46DA
:1055E000591801230DF044F8002800D180BD0DF0BA
:1055F0007BFAC046180000000748494608182821D1
:10560000064A4B469B185B5C0370401C491E0829E8
:10561000F7D120207047C046802C00001800000001
:10562000B0B50B4849460D18FFF7E6FF0446902039
:105630002855281900254570FBF7A4FFA01C81B24E
:1056400020200DF05BFDFEF755FC2846B0BDC0469E
:10565000802C000080B50848494669220A54081881
:1056600085214170FBF78EFF202002210DF046FDC1
:10567000FEF740FC002080BD802C000070B50C4679
:105680000146104E4846805D0025002828460FD070
:105690000846FDF760F80028284609D048468119D9
:1056A0000831142220460FF03DF80146404248419F
:1056B00049468D5189194D608D60CD600D614D61F8
:1056C0008D6170BDCC280000F0B59FB01DA90B7096
:1056D0001E92012806D11EA81DA900F069F8002815
:1056E00005D153E02C4849460858002841D02A4C9F
:1056F0004846011988881DAA12781618CD88AE422E
:105700000BD9D520C00125494A46505200F092F8E5
:10571000254878440EF0A0F838E04F46395908186B
:105720001E990EF0E5FF38198680B0B20124A84218
:105730002DD11B4D484641191A4A801848606846C9
:1057400000F086F8002818D0684600F0E5F8002838
:1057500013D048460121415543195968083313486D
:10576000784414220EF078F800F064F8FFF7B4FBE8
:105770000DE0D520C001803005E000F05BF8FFF7B8
:10578000ABFBD520C00105494A46505200242046B3
:1057900000F03EF81FB0F0BDE828000080080000CF
:1057A000CC280000F0280000F6130100701601005C
:1057B000B0B50C460546144849460858002805D09F
:1057C00000F038F8D520C001803017E0207801289B
:1057D00002D8D520C00111E0286800F0E1F800F0FF
:1057E000C5F8002807D02868801C28602078801E13
:1057F00020700120B0BDD520C001001D03494A46DC
:1058000050520020B0BDC046E828000080080000CB
:1058100080B5002803D106484946085A01E009200E
:10582000000300F0C3F8202002210DF067FC80BDCA
:105830008008000070B5054C4D462E19F088FCF725
:1058400011FF00202851706070BDC046E82800009C
:10585000F0B5A3B0044608A82E4979446C220EF096
:1058600047FF0020019005900494083402942046DC
:1058700000F03FF9264F4846C019808800283ED0E6
:1058800006A8401C0390019E344605E04846C01916
:105890008088059C844232D2F0B202280CD00128C4
:1058A00025D0002830D105A806A900F027F9002846
:1058B0002AD001262546E9E74846C0590019079035
:1058C00008A806A9049A00F041F900281CD006A9EE
:1058D000487820180590097800261529D6D0411B54
:1058E0004846C0594019029AFBF726FECEE705A8A4
:1058F000039900F003F9002806D00226C6E708A89D
:1059000000F052F923B0F0BD019823B0F0BDC046BD
:10591000E8280000C2340100B0B59CB0044608304D
:1059200014A900F003FA217803290ED101AD28460D
:1059300000F012FA6378626814A9284600F01CFA95
:10594000002807D001201CB0B0BD064878440DF0F7
:1059500083FF03E0044878440DF07EFF00201CB074
:10596000B0BDC0463C0E01009314010010B50446C2
:10597000FCF764FE07494A465050002803D04A46C7
:105980005118CC8003E004494A46044B5352411E4F
:10599000884110BDE828000080080000846A0000EB
:1059A000417800780002401880B27047010A034A2B
:1059B0004B469954991848707047C046802C000097
:1059C000012070470120704710B582B001A900F096
:1059D00011F9002807D0019CFFF792FA211A4842DA
:1059E000484102B010BD002002B010BD10B582B019
:1059F000144601A900F0FEF80146019A130A584224
:105A000058410840012800D1227002B010BD80B575
:105A100082B001A900F0EEF80199491E4A424A41BC
:105A2000104002B080BD4178517040685060012044
:105A30007047D4D4F0B581B00C4641781F2904D307
:105A40001A4878440DF008FF10E005290AD30546EE
:105A500040680818011F1648784404220FF07CF8AB
:105A6000002806D0144878440DF0F6FE002001B05E
:105A7000F0BD687800280DD000276868C65D304604
:105A800000F0F0F800280CD06068C6557F1C6878DC
:105A90008742F2D36878616800220A54012001B07D
:105AA000F0BD044878443146CCE7C046FBFF000017
:105AB00051010100E70D010087FE000080B582B0B2
:105AC00001A900F097F801993C394A424A41104037
:105AD00002B080BD10B54478142C06D1436808315B
