:02000004C0DE5C
:1000000080B502F0B9FA002080BD2DE9F0410E461E
:10001000DDF8188040211C461546074612F0DCFB2F
:1000200007F1300080E830010120387030467E60F2
:1000300000F002F8BDE8F08180B54FF4807110F057
:1000400013FE002808BF80BD10F086FE80B582B088
:10005000816AC1B1426A013912F8013B81628DF8AF
:100060000730437C426223B1C168827C0131C160A8
:100070002AB940680DF10701012200F00DF89DF842
:10008000070002B080BD0348784411F0DDFC012078
:1000900010F062FE1A39010010B582B013460A460C
:1000A0004FF0000C00210446CDF800C0CDF804C08C
:1000B00010F0CEFD20B9204610F0C6FD02B010BDF4
:1000C00010F04AFEB0B50446806A90421FD3154630
:1000D00029B1626A084611462A4612F082FB607C0A
:1000E00008B1A07C20B96068616A2A46FFF7D4FF96
:1000F000606AA16A28446062607C0028A1EB050068
:10010000A06208BFB0BDE0682844E060B0BD03480D
:10011000784411F099FC012010F01EFEE92E010038
:100120002DE9F0418CB0E846064640461D4617468C
:100130000C4612F0A3FB0104ADF82C0007D00A987E
:100140000021ADF82C1012F069F903250FE0684684
:1001500012F064F90A903046C6E90947F56200F0EA
:1001600019F8014605460A48784411F06DFC12F072
:100170004BF9404502D10A9812F050F9BDF82C0015
:10018000002802BF28460CB0BDE8F08110F0E4FD65
:100190001B3D01002DE9F04581B0474C47497C44A7
:1001A000794488464649074679448A4607E000BFB5
:1001B000204611F049FC02260025002D77D097F843
:1001C0003C00C02802D139780C29F1D0022807D090
:1001D000012808D139780B29EAD0022803D100BFC1
:1001E00039780C29E4D0C02804D13878092801D105
:1001F000B86AD0B3B86AD8B1787C30B9384600F064
:1002000097F8042818BF0646D6D1396BB1B13846E5
:10021000884705462C48784411F016FC022D0ED371
:100220002CD0032D2CD12948784411F00DFC3CE052
:10023000504611F009FC00250026BEE700250DB14F
:100240000125BAE739781F48784411F0FDFB97F88B
:100250003C10012919D002291DD0C02921D13846CE
:1002600000F0D4F80028EBD01FE0786B002580F870
:10027000C250404611F0E8FB02269EE701269BE7AC
:100280001348784411F0E0FB0FE0384600F020F905
:100290000028D5D009E0384600F07AF90028CFD000
:1002A00003E00C48784411F0CFFB032684E7F0B25A
:1002B00001B0BDE8F08500BFB2480100A9440100CB
:1002C000B9480100053A010023500100CC4C01005F
:1002D000C04D0100AC4F0100B0B58CB06C46054676
:1002E000204612F0CBFA0104ADF82C0007D00A9892
:1002F0000021ADF82C1012F091F8032507E06846B4
:1003000012F08CF80A902846FFF744FF054612F0D9
:100310007BF8A04202D10A9812F080F8BDF82C00B8
:10032000002802BF28460CB0B0BD10F015FD00003B
:100330002DE9F04583B0044600F118052F48002749
:10034000784480462E480DF107067844824601E045
:100350000020F8B9A06AF8B12046FFF777FE216ABD
:100360004A1C214422620876216A2846324602F05D
:100370000CFB28B19DF8070038B103200127E8E7FE
:10038000206A0528E4D1504600E0404611F05CFBAD
:100390000120DEE703282CD1F8071ED004F1080164
:1003A00004F1100302AA284602F00CFBE8B10299FE
:1003B000002000294FF0000106D1D4E909120139CB
:1003C0000132C4E909120121E06020620120A17418
:1003D0006074042003B0BDE8F0850A48784411F049
:1003E00033FB002003B0BDE8F0850748784411F0E6
:1003F0002BFB032003B0BDE8F08500BF7836010079
:10040000453B0100F23501007438010010B5044687
:10041000007806280CDC032817DC012828D00228E5
:1004200034D003284BD1204600F05AF9002010BDEB
:10043000092815DC07282ED0082831D009283ED1FC
:10044000204600F0A7FA002010BD04282DD0052872
:1004500030D0062833D1204600F0D8F9002010BD56
:100460000A3802282BD2204600F06EFA002010BD78
:10047000204600F0F5F894F82C00C0071CBF0020BF
:1004800010BD207801302070002010BD204600F003
:10049000FBF8002010BD204600F0EAF9002010BD56
:1004A000204600F017FA002010BD204600F048F961
:1004B000002010BD204600F073F9002010BD034855
:1004C000784411F0C1FA012010BD00BFC738010007
:1004D00010B50446007805280CDC022817DD032837
:1004E00027D004282AD005284AD1204600F028F930
:1004F000002010BD072813DD082824D0092827D0A4
:100500000A283DD1204600F0AFFA002010BD012896
:1005100023D0022834D1204600F0B6F8002010BDC8
:10052000062828D007282BD1204600F06FF900209C
:1005300010BD204600F064FA002010BD204600F0F7
:10054000CFF8002010BD204600F092F9002010BD29
:10055000204600F0BFF9002010BD204600F080F8D2
:1005600094F82C00C0071CBF002010BD207801307B
:100570002070002010BD204600F072FA002010BD4F
:100580000248784411F060FA012010BD05380100DE
:1005900010B50446007805280CDD082817DC06286D
:1005A00029D007282CD0082851D1204600F02EF958
:1005B000002010BD022815DD032826D0042829D0EC
:1005C000052844D1204600F0BFF9002010BD0928BD
:1005D00025D00A2828D00B2839D1204600F044FA2B
:1005E000002010BD012824D0022830D1204600F080
:1005F0004BF8002010BD204600F0A2F8002010BDEE
:10060000204600F02DFA002010BD204600F0F8F939
:10061000002010BD204600F063F8002010BD2046E9
:1006200000F026F9002010BD204600F053F900200C
:1006300010BD204600F014F894F82C00C0071CBF31
:10064000002010BD207801302070002010BD03482C
:10065000784411F0F9F9012010BD00BF37370100CF
:1006600080B5017C39B1816802784161511C01700B
:100670000021417480BD0348784411F0E5F9012060
:1006800010F06AFBA542010010B50446007CC8B911
:10069000A068212819D2E168884208D9A36A421AC1
:1006A00020460021934238BF1A46FFF70BFDD4E9DC
:1006B0000201814218BF10BD207801302070002057
:1006C000607410BD0448784401E00448784411F097
:1006D000BBF9012010F040FB813101009949010074
:1006E00010B50446007CE8B9A06821281DD2E16855
:1006F000884209D9421AA06A616B904238BF02460B
:1007000063312046FFF7DEFCD4E90201814218BFC5
:1007100010BD616B227881F88300501C207000208E
:10072000607410BD0448784401E00448784411F036
:100730008BF9012010F010FB50430100E328010069
:1007400010B50446007CE8B9A16821291DD2E068F3
:10075000814209D90A1AA16A636B914238BF0A46DD
:1007600019182046FFF7AEFCD4E90201814218BFF8
:1007700010BD616B227881F82000501C2070002091
:10078000607410BD0448784401E00448784411F0D6
:100790005BF9012010F0E0FA884701002D260100E6
:1007A00010B50446007CF8B9A168212923D2E0687D
:1007B00081420BD9636B0A1AA16A1844914238BF6F
:1007C0000A4600F121012046FFF77CFCD4E9020132
:1007D000814218BF10BD616B227881F84100501C26
:1007E00020700020607410BD0648784411F02CF988
:1007F000012010F0B1FA0448784411F025F90120E5
:1008000010F0AAFAC72C0100363D010010B50446CD
:10081000007CF8B9A16815291FD2E06881420BD984
:10082000636B0A1AA16A1844914238BF0A4600F164
:10083000A5012046FFF746FCD4E90201814218BF1A
:1008400010BD616B227881F8B900501C2070002027
:10085000607410BD0448784401E00448784411F005
:10086000F3F8012010F078FADD2301009422010052
:1008700010B50446007CF8B9A16821291FD2E068B0
:1008800081420BD9636B0A1AA16A1844914238BF9E
:100890000A4600F142012046FFF714FCD4E90201A8
:1008A000814218BF10BD616B227881F86200501C34
:1008B00020700020607410BD0448784401E00448B2
:1008C000784411F0C1F8012010F046FAA82F010079
:1008D0003F2A010010B504461848784411F0B4F8D6
:1008E000207C20BBD4E90201884211D9A36A421AB4
:1008F000934238BF1A46012A06D1606A007818B9B7
:10090000606B002180F8C31020460021FFF7DAFB5E
:10091000D4E90201814218BF10BD0948784411F0A2
:1009200093F82078013020700020607410BD0548D5
:10093000784411F089F8012010F00EFAD135010049
:10094000BD3801005247010010B50446007CB8B91B
:10095000D4E90201884208D9A36A421A204600213C
:10096000934238BF1A46FFF7ADFBD4E9020181423A
:1009700018BF10BD2078013020700020607410BDB9
:100980000348784411F060F8012010F0E5F900BF49
:100990002234010010B50446007C10BBA16809296F
:1009A00022D2E06881420ED9636B0A1AA16A184408
:1009B000914238BF0A4600F1BA012046082A28BFF2
:1009C0000822FFF77FFBD4E90201814218BF10BD66
:1009D000616B227881F8C200501C20700020607486
:1009E00010BD0548784401E00448784411F02CF823
:1009F000012010F0B1F900BFF62301000528010025
:100A000010B50446007CE8B9A06821281DD2E16831
:100A1000884209D9421AA06A616B904238BF0246E7
:100A200084312046FFF74EFBD4E90201814218BF12
:100A300010BD616B227881F8A400501C207000204A
:100A4000607410BD0448784401E00448784410F014
:100A5000FBFF012010F080F9F53E01006D2B010035
:100A600080B5FFF79DFE80BD10B50446007CB8B18F
:100A7000D4E90201884208D9A36A421A204600211B
:100A8000934238BF1A46FFF71DFBD4E902018142A9
:100A900018BF10BD2078013020700020607410BD98
:100AA0000348784410F0D0FF012010F055F900BF42
:100AB0002E2A010070B50D4620211446064611F07D
:100AC0008BFEC6E9055470BD70B50D46182114465D
:100AD000064611F081FEC6E9035470BD80B52021A1
:100AE00011F07AFE80BD80B5182111F075FE80BD31
:100AF0002DE9F0410E46DDF8188020211C461546F0
:100B0000074611F069FEC7E90365C7E90548BDE876
:100B1000F08100002DE9F04D82B00F463821984653
:100B20009246064611F058FE174809EB000505F1FC
:100B3000A704204600F02AF84C35002828464FF03C
:100B4000000B18BF5C46B46000F020F8002808BF16
:100B5000AB46C6F80CB086F8207001F0CFFDCDE9A9
:100B60000001684606F1100401F0F0FD0146204640
:100B70000B2211F0BEFE0A98C6E909A8F0620B9894
:100B8000306302B0BDE8F08D140000000178002948
:100B90001EBF012080F001007047411C002200BFF1
:100BA0005A2A4FF0000038BF012003D08B5C01327D
:100BB000002BF5D080F001007047000070B52D4E7D
:100BC0000C4609EB0601012281F8E4206269054622
:100BD0002B480421784410F037FF274819F80010FB
:100BE000032906D22846214600F058F800254DB9C1
:100BF00012E037D12846214600F0A2F8002818BF9D
:100C000000254DB11D4819F8000028B11E48784450
:100C100010F01AFF002070BD3DB11C48142178442B
:100C20002A4610F011FF012070BD1948784410F0D9
:100C30000BFF184809EB0601784410F005FF40F25D
:100C40000110214600F0FAF8032838BF70BD1248A1
:100C500009EB06047844214610F0F6FE042084F8DF
:100C6000E40070BD0748784410F0EEFE002011F05B
:100C70009BFB00BF640400000B00000009000000A3
:100C800051470100B72601001F430100602C0100FD
:100C90002020010000270100F626010070B5224E39
:100CA000044609EB06000D4600F1440120461422DB
:100CB00011F0A4FDC8B96A699178D3781078557895
:100CC00041EA032109EB060340EA05209B6D40EA57
:100CD0000140984217D11948784410F0B5FE09EB4D
:100CE0000600042180F8E41070BD104814217844F7
:100CF000224610F0A9FE09EB060000F144020C4860
:100D0000142178440BE00B480421784410F09CFE39
:100D100009EB060000F1580207480421784410F05E
:100D200093FE002011F040FB64040000FF3401003A
:100D3000FE360100ED400100F333010041370100B0
:100D40002DE9F04D84B03C4A8B467A445168054603
:100D50000846029211F05CFA0646B0FA80F0002EC6
:100D60004FEA501160D00027002411E0019C029945
:100D70000134E7B207EB470001EBC000406811F017
:100D800047FA0646B0FA80F0002E4FEA50114BD0D9
:100D9000002DCDE90014E9D0029907EB470001EBE3
:100DA000C007039717F8080F0028DFD04FF000089E
:100DB00056F82800DBF814A011F02AFA017882789E
:100DC000C378407842EA032241EA002040EA024028
:100DD0009AF800109AF802209AF803309AF8014025
:100DE00042EA032241EA042141EA0241814206D15A
:100DF0000398006858B111F00BFA804738B9002DFC
:100E0000B4D0387808F101088045D1D3AEE709485D
:100E1000039909EB0004093120461E2211F069FDF7
:100E20000420009984F8E4000120884304B0BDE860
:100E3000F08D00BF64040000BE4701002DE9F045BD
:100E400091B00546AE48DFF8C082484409EB08027D
:100E50001090AC4892F8E4208A464844022A494659
:100E60000F900AD8AA48784410F0EEFD09EB08006C
:100E700090F8E40011B0BDE8F085B5F5827F14DA92
:100E800040F2011085422AD0B5F5817F3ED040F274
:100E90000310854240F0BB809E48784410F0D4FD9A
:100EA000012148468AF81E104AE038D040F2051069
:100EB00085423DD0B5F5837F40F0A98096487844BF
:100EC00010F0C2FD484610A9CAF800100FA909EB9E
:100ED0000800CAF8041000F144021C213BE08F48CE
:100EE000784410F0B1FD48464FF48371AAF8001021
:100EF00010A90FAA09EB08000AF1040C00F1440341
:100F0000A0278CE88E001C21024624E08448784407
:100F100010F09AFD012148468AF8141010E081482B
:100F2000784410F091FD012148468AF8151007E039
:100F30007D48784410F088FD012148468AF81C104D
:100F400010A9CAF800100FA909EB0800CAF804108C
:100F500000F144020821084611466C4B4AF8001083
:100F600019F803104A46012907DC89B301292AD15F
:100F7000284651460AF04AFF6EE0022942D0032972
:100F800021D16B4E7E44707A002865D009EB0800B1
:100F900006F1090111F080FC002851D0012400BFA6
:100FA000E7B207EB470006EBC00111F8090F002874
:100FB00052D009EB080011F06FFC611C00280C46B0
:100FC000EED138463DE05C48784410F03DFD92E0BB
:100FD00009EB08000CA96E4681E82104304611F0A7
:100FE0004DFC0104ADF82C0017D00A980021ADF893
:100FF0002C1011F013FA4F4809EB0801784410F057
:1010000023FD11E0284651460AF04EF924E04748F6
:101010002946784410F018FD61E0684611F0FEF9A9
:101020000A900CA811F094F911F0EEF9B04202D137
:101030000A9811F0F3F9BDF82C0068B10FF08CFE9E
:10104000002000EB400006EBC000406911F0E0F822
:10105000024628465146904738482946784410F0C1
:10106000F3FC0120B5F5827F0EDA40F201118D42CA
:1010700017D0B5F5817F21D040F203118D4237D1D1
:101080009AF81E0038BB33E01CD040F205118D42A7
:1010900029D0B5F5837F2BD19AF83400042826D0C7
:1010A00029E09AF801000146002818BF0121042810
:1010B00008BF0146084611B0BDE8F0859AF8140053
:1010C00048B915E09AF815101D48784410F0BCFC9A
:1010D0009AF8150060B1042809D0062807D001202D
:1010E00011B0BDE8F0859AF81C00042803D1042053
:1010F00011B0BDE8F085002011B0BDE8F08500BF5B
:10110000B80600005C010000640400000B00000051
:1011100053300100581F01009436010029230100BB
:10112000E13101007D410100273A0100DA3201007E
:101130008445010065230100411E0100D11F01000B
:10114000B52201002DE9F045ADF50D7D04460020E6
:10115000A0614B4888467844214610F075FC21690F
:101160004848784410F070FC4748784410F06CFC14
:101170002069B8B3A06890F800A0AAF1010109297C
:101180002DD8217B0139B1EB8A0F28D1BAF1000F9C
:101190000DD0471C15A8051F564600BF384600F065
:1011A0007DF845F8040F013E07F10407F6D115AFAD
:1011B00002AA3846514600F07CF8064638463421EB
:1011C00011F016FB46BB02A915AB212020220FF01F
:1011D0002FFD78B115A8342111F00AFB1CE02E4830
:1011E000784401E02948784410F02EFC0DF50D7D7F
:1011F000BDE8F08502AE30464C2111F0F9FA15AF8A
:10120000212031463A4601230FF00EFD06463846AE
:10121000342111F0EDFA3EB102A84C2111F0E8FAA8
:101220000DF50D7DBDE8F085D8E9040315A9009002
:1012300002A822AA019303F0E3FD0028CAD002A865
:101240004C2111F0D5FA216908784A7840EA022049
:1012500047F63002904215A808BF023111F01CFB7E
:1012600020B10B48784410F0EFFB05E009487844C2
:1012700010F0EAFB0120A06115A83421CEE700BFE1
:10128000623F010076360100683F0100FF2C01003B
:10129000982C01009D3B01007334010042780178D5
:1012A00083781204C07842EA016141EA03210844CC
:1012B000704780B500F001F880BD2DE9F04591B090
:1012C0000DF114080746404615468A4611F0D6FA35
:1012D00084B2ADF8400054B10F980021ADF8401031
:1012E00011F09CF84021284611F082FA0FE005A881
:1012F00011F094F800240F906E46212120463A46C2
:101300005346C6E90054B460F46010F0E7FF11F0F2
:101310007BF8404502D10F9811F080F8BDF84000ED
:10132000002802BF204611B0BDE8F0850FF014FD83
:101330002DE9F04186B000F10E040E460546204628
:10134000322111F049FA297B212906D31E4878441D
:1013500010F07AFB06B0BDE8F081687B90B13046B2
:101360000A2111F0F7FAC7B20DF10C0840463146D8
:101370003A4611F034FA002008F8070012208DF8E0
:10138000170007E02868297903AA0DF1170301F077
:1013900068FF88B1A868297B9DF817203223019344
:1013A00003AB009403F0C1FC50B92046322111F088
:1013B00013FA06B0BDE8F0810448784410F044FB0D
:1013C00006B0BDE8F08100BFF9230100231D010034
:1013D000F0B5B7B005AD0E4604462846C82111F059
:1013E000FBF9A16928462B2211F083FA9DF83E00F3
:1013F000002844D1207B202841D8207D08283ED8D1
:101400002068217902AA0DF1130301F02AFF90B39D
:10141000A068217B9DF8132005F12B034F27009333
:1014200002AB019703F081FC48B302AF3846314666
:101430000B2211F05EFA12208DF813002069217D35
:1014400005F17A023226009212223B46019603F001
:101450006CFCA0B10FF09CFC0A490B4A04F120007F
:1014600049F8010009EB020005A9C82211F0B7F9FB
:10147000012037B0F0BD0548784410F0E5FA0020AF
:1014800037B0F0BD000000008C050000651C0100B5
:10149000024959F80110087010F068FF00000000C0
:1014A00082B0184949F8010000F062F8164801249A
:1014B00009F800401548002509F800500FF090FD8C
:1014C0001348784410F0A4FE407901280DD0ADF8FF
:1014D00000508DF805408DF802500E48784410F009
:1014E00097FE6946062210F0C5FE0B48784410F0BE
:1014F000ABFA00200DF0A4FF01200DF0A1FF00F0D9
:1015000081FB00BF04000000090000000A00000089
:101510003A710100207101006737010080B50B4668
:10152000014610461A4600F001F880BD10B582B0A1
:1015300013460A464FF0000C00210446CDF800C0C7
:10154000CDF804C00FF084FB20B920460FF07CFBDF
:1015500002B010BD0FF000FC80B582B00A468DF8D5
:1015600007000DF107000121FFF7D8FF02B080BD91
:1015700080B513480021134A09F80010134809F8F0
:101580000210032209F800200F48114A09F8001040
:1015900009F802100F48104A49F8001009EB020040
:1015A0004FF4847111F018F90C484021484411F0AF
:1015B00013F90B48C421484411F00EF980BD00BF57
:1015C00008000000090000000A0000000B000000F5
:1015D0000C00000010000000140000001C010000BE
:1015E0005C01000080B50549020A09F80120494460
:1015F0004870202002210FF06DFE80BDE829000018
:10160000F0B581B01249044609EB0106701C402177
:1016100011F0E2F8E5780427212D04BF05272025E5
:10162000701B2130E1192A4611F0DBF8B81C411972
:10163000C8B2204410F8012C212A04BF0131202215
:10164000B01AC9B24130214411F0CBF801B0F0BD5D
:10165000E829000010B5044600F0070001280AD070
:10166000022810D10948484439B110F0A9FE2006DB
:1016700048BF10F0F4FD002010BD40F251110022CF
:1016800010F0B4FE10BD02200FF066FBE829000048
:10169000F0B581B0154F054600246FF0B50603E0A4
:1016A0005B3604F101041DD009EB0700204490F8DB
:1016B00002010028F4D009EB0700304400F58170E6
:1016C0002946142211F09AF80028E9D10848214649
:1016D000784410F0B9F909EB0700304400F5817047
:1016E00001B0F0BD002001B0F0BD00BF140000004B
:1016F000362C0100AEB016491EAD044600277944D1
:10170000212002222B46009710F0D8FD14AE212094
:101710002946202233460FF08BFA01AF3846314676
:1017200000F018F807F1080041212A46402340261E
:101730000FF096FA054829464844402211F04FF828
:101740004FF4104026600FF007FB00BFE8290000AF
:101750006A3E010080B50A460146212001230FF0B0
:1017600063FA002808BF80BD0FF0F6FA2DE9F041BA
:101770000C46097881B1017815464A1E0A2A29705B
:1017800002D31648784409E02178013921702A787B
:10179000C9B2B1EB820F06D20F48784410F054F969
:1017A0000020BDE8F0812978461C89B105F10408C4
:1017B000002700BF3046002100F012F848F827004B
:1017C0002078013704382070287804368742F1D316
:1017D0003046BDE8F08100BFCB340100F23A010091
:1017E0004218405C517893780904D27841EA00604D
:1017F00040EA0320104470472DE9F0418EB00DF10E
:101800000808064640460D4611F038F8074680B2F3
:10181000ADF8347020B3052800F0C3810C98002186
:101820003E46ADF8341010F0F9FDDFF8CC03494620
:1018300019F8000000280246DFF8C00318BF012293
:1018400019F8001007F47040B0F5104F01EA0204D7
:1018500004D0B0F5C04F44D1FFF78AFE380A46E005
:1018600002A810F0DBFDE2494A4619F8013009EB05
:1018700001025278B02B0C9002D1042A00F09A8118
:10188000E02B15D0F02B40F0A081072A4FDC022A74
:1018900074D0042A40F0A48109EB01029078D17839
:1018A00013796F4605323E607D6009F065F87CE093
:1018B000112A4DDD192A7EDD1D2A40F3B3801E2A30
:1018C00000F0FD80202A00F00381222A40F0888168
:1018D00009EB01029078D1781379053203F09CFF6F
:1018E00015E0FFF745FE380A0D2161F3DF00C04A1D
:1018F00049462B6809EB0201C8542868002C0844AB
:101900004670286800F10200286040F0568110F00F
:101910007BFD404502D10C9810F080FDBDF83400ED
:10192000002804BF0EB0BDE8F0810FF015FA082AB8
:1019300030D00A2A40F0548109EB01029078D17826
:1019400013796F4605323E607D6009F0BDFB2CE0E7
:10195000092A44DC052A74DC022A00F0BC80042A2F
:1019600040F03E8109EB01029078D17813796F46FF
:1019700005323E607D6007F029FFC8E709EB0102F0
:101980009078D17813796F4605323E607D6008F01B
:10199000AFFE0AE009EB01029078D17813796F4627
:1019A00005323E607D6008F049FF0C9810F036FD6E
:1019B0000EB0BDE8F081152A5FDC122A00F09D8090
:1019C000142A40F00D8109EB01029078D178137947
:1019D0006F4605323E607D6004F03AFB97E70D2AC2
:1019E0005CDC0A2A00F095800C2A40F0F980484619
:1019F00009EB0100C278012A00F0CA80002A40F0F9
:101A0000F3807C4800274844A0F8027109EB0107E5
:101A1000B8783B7911466C467A1D2660656007F000
:101A200097FE74E71A2A00F080801C2A40F0D880C4
:101A3000306840F01000306009EB010005F0BEFA9C
:101A400065E7062A7AD0082A40F0CA806948002350
:101A50004844A0F80231306809EB010240F0100060
:101A600030609078D1781379053204F07DFF00283A
:101A70007FF44DAFFFF77CFD49E7162A6AD0182A9C
:101A800040F0AE8009EB01029078D17813796F466F
:101A900005323E607D6003F053FD38E70E2A65D0C5
:101AA000102A40F09D8009EB01029078D1781379DB
:101AB0006F4605323E607D6004F034FC27E73068F5
:101AC00040F01000306009EB010005F0CFFA1EE78E
:101AD00003F0A2FA1BE7474809EB010209EB0007F4
:101AE00000249078D1781379A7F802416F46053227
:101AF0003E607D6003F0ACFB09E709EB01029078E2
:101B0000D17813796F4605323E607D6004F02EFC7B
:101B1000FDE609EB01029078D17813796F46053222
:101B20003E607D6004F0D8F9F1E6306840F01000C6
:101B3000306009EB010005F005FAE8E609EB010267
:101B40009078D17813796F4605323E607D6003F05E
:101B50002DFADCE609EB01029078D17813796F4613
:101B600005323E607D6004F0EDFCD0E6214809EBD3
:101B7000010209EB000700249078D1781379A7F8C7
:101B800002416F4605323E607D6003F0F7FABEE623
:101B9000306840F01000306009EB010005F0BEFA3B
:101BA000B5E60C980021ADF8341010F037FC052094
:101BB0000FF0D2F82846FFF79DFD81B220200FF0EC
:101BC00089FB30B90020FFF763FC4FF4DC400FF0D5
:101BD000C3F80B4878440FF037FFFF2010F0E4FB08
:101BE0004FF4DA400FF0B8F84FF4D6400FF0B4F8E5
:101BF000E829000014000000090000000A000000AD
:101C0000762401008EB03F4E00256C460DF1300861
:101C10000DF1340ACDE90C5504E000BFBDF82C00ED
:101C200000285BD1204610F029FE1FFA80FBBBF193
:101C3000000FADF82C0025D0BBF1050F50D00746A2
:101C40000A98ADF82C5010F0E9FB07F47040B0F59D
:101C5000104F04D0B0F5C04F36D1FFF789FC380AD9
:101C6000BBF5104F03D00C9921F010010C9149469F
:101C70000D9A09EB06018B188854901C5F700D902B
:101C80001AE000BF204610F0C9FB0A90BDF83410DE
:101C90009DF830000D950FF01DFB0C9548B30528FD
:101CA00006D3494609EB060109790531814224D161
:101CB00040465146FFF7A0FD10F0A6FBA042ADD173
:101CC0000A9810F0ABFBA9E7FFF752FC380A0D2188
:101CD00061F3DF00BBF5104FC5D1C8E70FF03CF84A
:101CE0000A980021ADF82C1010F098FB05200FF099
:101CF00033F846F682100FF02FF846F683100FF0F7
:101D00002BF800BFE829000080B50FF007FA80BD6E
:101D1000F0B581B0DFF8A85619F805000C2816DDDB
:101D20000D2863D00E2800F0B080152815D1DFF8FB
:101D30009C064844807901280FD109EB0500032156
:101D4000FFF74EFD000708D405200FF005F8052821
:101D500000F0E4800C2800F05C81DFF86856012078
:101D600009EB050409F8050000262046666010F01E
:101D7000E1FA042010F060FB6928606040F01C81EB
:101D80000FF04AF90FF04AF9DFF83C46042009EB5E
:101D90000407A7F8CA6010F04FFBD7F8CC1009EB86
:101DA00005020029506018BF002800F032819728F2
:101DB00000F02F8109EB0400B0F8CA1090F8D000B1
:101DC000814280F0268110F06DFAAA2804D110F02B
:101DD000A5FAAA2840F01D8109EB0401B1F8CA0058
:101DE00091F8D0108842C0F05C81E0E0DFF8D45573
:101DF000012009F8050009EB050400206060204679
:101E000010F098FA042010F017FB0028606018BF4B
:101E1000972800F0FE80692840F0E4810FF0FCF87C
:101E20000FF0FCF8DFF8A045002009EB0406A6F847
:101E3000CA00042010F000FBD6F8CC1009EB050214
:101E40000029506018BF002800F0E380972800F0B8
:101E5000E08009EB0400B0F8CA1090F8D00081428D
:101E600080F0D78010F01EFAAA2804D110F056FA9C
:101E7000AA2840F0CE8009EB0401B1F8CA0091F81D
:101E8000D0108842C0F0668291E0DFF8386501200A
:101E900009EB060509F80600002728466F6010F0D8
:101EA00049FA042010F0C8FA6928686040F00781F8
:101EB0000FF0B2F80FF0B2F8DFF80C45042009EB90
:101EC0000405A5F8CA7010F0B7FAD5F8CC1009EBE4
:101ED00006020029506018BF002800F09A80972859
:101EE00000F0978009EB0400B0F8CA1090F8D00019
:101EF000814280F08E8010F0D5F9AA2804D110F02C
:101F00000DFAAA2840F0858009EB0401B1F8CA0057
:101F100091F8D0108842C0F0578148E0DFF8A464FF
:101F2000012009F8060009EB060400206060204645
:101F300010F000FA042010F07FFA0028606018BF4B
:101F4000972866D0692840F097810FF065F80FF068
:101F500065F8DFF87444002009EB0405A5F8CA0011
:101F6000042010F069FAD5F8CC1009EB060200291C
:101F7000506018BF00284CD097284AD009EB0400C5
:101F8000B0F8CA1090F8D000814242D210F08AF91D
:101F9000AA2803D110F0C2F9AA283AD109EB04010A
:101FA000B1F8CA0091F8D0108842C0F0FA81884296
:101FB0002FD110F04FFA2CE0DFF80C4409EB0400AD
:101FC000D0F8CC00D8B109EB0400B0F8CA1090F8F2
:101FD000D000814213D210F065F9AA2803D110F085
:101FE0009DF9AA280BD109EB0401B1F8CA0091F8B8
:101FF000D01088422ED3884208BF10F02BFA09EB8C
:102000000400B0F8CA1090F8D000814228BF10F048
:10201000E3F910F0E1F9002808BF0EF0C7FE012037
:1020200001B0F0BD09EB0401D1F8CC20B1F8CA1021
:10203000012808BF02EB4110FFF766FE09EB04021E
:10204000B2F8CA0092F8D010431C98B28842A2F8A5
:10205000CA30D0D209EB0402D2F8D810D2F8CC2082
:10206000002902EB4010DDD088470028DAD1E5E7EF
:1020700009EB0401D1F8CC20B1F8CA10012808BF3F
:1020800002EB4110FFF740FE09EB0402B2F8CA0070
:1020900092F8D010431C98B28842A2F8CA30BFF41C
:1020A00086AF09EB0402D2F8D810D2F8CC20002970
:1020B00002EB4010DCD088470028D9D1E4E7C24DBC
:1020C000044609EB0500D0F8E400A0B1B0F16402C9
:1020D00038BF002209EB05016428C1F8E4200AD8C2
:1020E000D1F8E01039B109EB0500D0F8E820C0F8CC
:1020F000E42000208847002C3FF48BAF972C3FF45E
:1021000088AF09EB0500D0F8CC00D8B109EB050089
:10211000B0F8CA1090F8D000814213D210F0C2F883
:10212000AA2803D110F0FAF8AA280BD109EB05016F
:10213000B1F8CA0091F8D01088421ED3884208BF77
:1021400010F088F909EB05005BE709EB0501D1F810
:10215000CC20B1F8CA10012808BF02EB4110FFF7EC
:10216000D3FD09EB0502B2F8CA0092F8D010431C67
:1021700098B28842A2F8CA30E0D209EB0502D2F840
:10218000D810D2F8CC20002902EB4010DDD08847CF
:102190000028DAD1E5E709EB0401D1F8CC20B1F849
:1021A000CA10012808BF02EB4110FFF7ADFD09EB93
:1021B0000402B2F8CA0092F8D010431C98B28842C8
:1021C000A2F8CA30BFF4F3AE09EB0402D2F8D8107B
:1021D000D2F8CC20002902EB4010DCD08847002840
:1021E000D9D1E4E7784C09EB0400D0F8CC00002802
:1021F0003FF405AF09EB0400B0F8CA1090F8D00026
:102200008142BFF4FCAE10F04DF8AA2804D110F0C2
:1022100085F8AA287FF4F3AE09EB0401B1F8CA00EF
:1022200091F8D010884219D3E5E609EB0401D1F802
:10223000CC20B1F8CA10012808BF02EB4110FFF70B
:1022400063FD09EB0402B2F8CA0092F8D010431CF7
:1022500098B28842A2F8CA30BFF4CDAE09EB0402AE
:10226000D2F8D810D2F8CC20002902EB4010DCD0F4
:1022700088470028D9D1E4E7534C09EB0400D0F893
:10228000DC0028B109EB0501C97849080EF0B2FF5E
:1022900009EB0400D0F8CC0000283FF4B0AE09EB05
:1022A0000400B0F8CA1090F8D0008142BFF4A7AE85
:1022B0000FF0F8FFAA2804D110F030F8AA287FF414
:1022C0009EAE09EB0401B1F8CA0091F8D010884223
:1022D00019D390E609EB0401D1F8CC20B1F8CA106B
:1022E000012808BF02EB4110FFF70EFD09EB0402C5
:1022F000B2F8CA0092F8D010431C98B28842A2F8F3
:10230000CA30BFF478AE09EB0402D2F8D810D2F884
:10231000CC20002902EB4010DCD088470028D9D11E
:10232000E4E709EB0401D1F8CC20B1F8CA10012888
:1023300008BF02EB4110FFF7E7FC09EB0402B2F81B
:10234000CA0092F8D010431C98B28842A2F8CA3052
:10235000BFF42DAE09EB0402D2F8D810D2F8CC208D
:10236000002902EB4010DCD088470028D9D1E4E7EF
:1023700009EB0401D1F8CC20B1F8CA10012808BF3C
:1023800002EB4110FFF7C0FC09EB0402B2F8CA00EF
:1023900092F8D010431C98B28842A2F8CA30BFF419
:1023A00006AE09EB0402D2F8D810D2F8CC200029EE
:1023B00002EB4010DCD088470028D9D1E4E700BF09
:1023C000200200004C030000540300003C2B0000DE
:1023D00010B58CB06C46204610F050FA0104ADF8F0
:1023E0002C000ED010F010F8A04202D10A9810F084
:1023F00015F8BDF82C00002804BF0CB010BD0EF07D
:10240000ABFC684610F00AF80A90FF200FF0CCFFF2
:1024100000214161C160C0E90111C1704821817092
:102420005421417045210170012101617047000074
:10243000F0B595B028B1806818B133494A4649F8DB
:102440000100314D484659F8050030B90EAC204620
:10245000FFF7DEFF484649F80540FFF789F82B48AB
:102460002B4F484400264FF4887402AD494680F84B
:10247000046100BF09EB0700214610F0ADF92846C2
:1024800010F0FCF981B20529ADF8340008D10C98A0
:10249000ADF834600FF0C2FF0C980FF0BFFFE9E712
:1024A00061B10C980021ADF834100FF0B7FF0C9813
:1024B0000FF0B4FFFFF78CFF15B0F0BD02A80FF0CE
:1024C000ADFF0C900EF08CFD124878440FF0A0FE8A
:1024D000407968B9002000904FF48070ADF8040096
:1024E0000D4878440FF094FE694606220FF0C2FEB4
:1024F00000200CF0A5FF01200CF0A2FF01F050FD20
:1025000002F070FDFFF77EFB0400000014000000E5
:1025100054030000326101001A61010086B00446D4
:10252000806820B96D462846FFF772FFA560114804
:1025300078440FF089FA606802280FD0042807D089
:10254000032809D1D4E90210FEF7FCFD0FF00EFFBD
:10255000D4E90210FEF7ECFE0FF008FFD4E90210F8
:10256000FEF736FF10B1A068FEF79AFFFF200FF0CC
:102570001BFF00BF4217010010B5044662B60EF003
:10258000E6FB44B12068B0F5807F09D1606801287E
:102590000AD1204600E00020FFF74AFF002010BDCE
:1025A000FFF716FF002010BD2046FFF7B7FF000021
:1025B0000248002149F80010704700BF640800007D
:1025C00080B5FFF7F5FF80BD074959F80120104499
:1025D000B0F5005F84BF00207047044B49F801004C
:1025E00009EB03001044704764080000680800000D
:1025F000044959F80120101A38BF002049F8010099
:10260000704700BF640800002DE9F04105460A2824
:1026100088464FF0010409D311482946A1FB002345
:1026200063294FEAD30104F10104F7D8E0B2471C53
:102630003846FFF7C9FF064670B10A4A30467A4469
:1026400039462B460FF0B4FB0120FFF7D1FFB8F15C
:10265000000F18BF88F800403046BDE8F08100BF89
:10266000CDCCCCCCFB090100B0B5044600200D4612
:10267000FFF7AAFFB0FBF5F101FB1500C0B218B1DE
:10268000281AFFF7A1FF18B12046FFF79DFFB0BD44
:102690000020B0BD80B500F007F818B100680FF059
:1026A000B7FD80BD002080BD10B5D0E900CE094B3C
:1026B00000217B445818D0E9022484EA0E0482EAFF
:1026C0000C02224308BF10BD1031B1F58C6FF1D15F
:1026D000002010BD9A59010080B5FFF7E5FF18B141
:1026E00040680FF095FD80BD002080BD80B5FFF7EC
:1026F000DBFF002818BF012080BD000080B5104816
:1027000009EB000191F83C104A1E022A07D20D483D
:10271000484490F8A410843002F074F980BDC029B8
:1027200007D14844406B90F8C210BA3002F06AF901
:1027300080BD054878440FF087F90020002180BD56
:102740001C0100005C010000D703010080B5FFF709
:10275000C3FF0349002859F8011008BF084680BD8F
:1027600004000000B0B50D49054659F80110D5E93F
:10277000002351F8100F4C68504084EA03021043C4
:1027800004BF0120B0BD0846FFF7B0FF00280EBF10
:1027900000202846FFF7AAFFB0BD00BF04000000DC
:1027A00010B58AB00F4802AC09EB00014FF04F0C96
:1027B00001F12B0320462B22CDF800C0FEF798F93B
:1027C00040F205102146FEF739FB08B10AB010BDF2
:1027D000054878440FF038F9002007F03DFF0AB0B3
:1027E00010BD00BF8C050000AF04010010B590B013
:1027F0009C46104B8E4609EB030191F842100346AC
:1028000002AC009220461A467346CDF804C0FEF78B
:1028100081F94FF483702146FEF710FB08B110B028
:1028200010BD054878440FF00FF9002007F014FFA1
:1028300010B010BD640400009D0B010080B5044879
:102840002B21484400F12B024F23FFF7CFFF80BD1F
:102850008C050000B0B50C46182105460FF0BCFFF2
:102860002C60B0BDC17D02681170817D026851701D
:10287000417D02689170017D0268D170C17C02685F
:102880001171817C02685171417C02689171017CF7
:102890000068C17170472DE9F0410446069940680F
:1028A0001E46084415463F28606019D8C0F1400113
:1028B000C1F1200306FA01F225FA03F31A43D0F11D
:1028C000200058BF05FA00F205FA01F0D4E904131C
:1028D00058BF00201A430843C4E90402BDE8F08150
:1028E000A0F14002891A4FF0FF3808FA01F1CB43FA
:1028F000DF17C4E90237C0F1600706FA07FC25FAC2
:1029000002F747EA0C076038626058BF26FA00F702
:1029100026FA02F058BF002027EA0101D4E9042773
:1029200000EAE37038431143C4E904102046FFF77E
:1029300099FFD4E9002000212161616102F10801C1
:102940000028216008BFBDE8F08108FA00F1CA4301
:1029500006EAE277C0F1400625EA0101C6F120054A
:1029600021FA05F5B7402F43D0F120004FEAE2737A
:1029700058BF01FA00F701FA06F058BF0020C4E979
:102980000223C4E90407BDE8F0810078B82816D313
:10299000BF2806D8A0F1B6038B4208D8BC280AD2BB
:1029A0000DE0F8280BD3A0F1F6038B4201D90020EB
:1029B0007047FC2803D300201070012070470120CD
:1029C0001070704790F900C0BCF1000F06D40020D1
:1029D0004FF0010C1060C1F800C00CE05FFA8CFCF5
:1029E000BCF1B70F0AD84FF0010CC2F800C0007854
:1029F000803808600020187060467047BCF1BF0F37
:102A00000FD8ACF1B60CC2F800C04FF0000C83F840
:102A100000C00278B92A12DCB82A29D0B92A22D0FB
:102A200041E0BCF1F70F0FD84FF0010CC2F800C025
:102A3000007883F800C0C038086060467047BA2A42
:102A400027D0BB2A1AD02EE0ACF1F60CC2F800C099
:102A500001221A7002784FF0000CF92A0ADCF82AD9
:102A600006D0F92A1FD14278807840EA022017E088
:102A7000407815E0FA2A0CD0FB2A14D1837890F81C
:102A800001C0C2781B04007943EA0C6343EA0222C6
:102A900005E083784278C0781B0243EA0242104482
:102AA0004FF0010C086060467047000080B582B0AE
:102AB00008480A4A484400F1810C07487A444844CF
:102AC0004FF480712023CDF800C00FF071F902B0EF
:102AD00080BD00BF640400008C0500004C1701009D
:102AE00080B582B008480A4A484400F1A10C074862
:102AF0007A4448444FF480712023CDF800C00FF091
:102B000057F902B080BD00BF640400008C050000CE
:102B100018170100F0B58BB0022903463AD31446CA
:102B20000A4618682049884234D158681F498842AB
:102B300030D10DF10B050027212019462B460097B7
:102B40000FF0BCFB1A48202178442A460EF07CFF87
:102B5000184E7E4428462121224620238DF82B70D2
:102B60000EF07AF83046202122460EF06DFF204606
:102B700000F026F8B0F1FF3F07F10107EADC20463C
:102B800000F030F80C482021784422460EF05CFF1B
:102B90000BB0F0BDD3E90012084878440EF054FFA2
:102BA0004FF4D5400EF0D8F8550A0080D32A86A2FB
:102BB000A90A0100CE250100BD040100950601000F
:102BC00080B582B0064901AB794420220EF050F85E
:102BD000002802BF019802B080BD0EF0BDF800BF12
:102BE000A829010080B5054A20217A4420230EF04F
:102BF00043F8002808BF80BD0EF0AEF8A6290100FA
:102C00002DE9F04D9AB09346314A064659F802A094
:102C100030480D467844142132461C460EF014FF0D
:102C2000304600F061F830B12B4878440EF00CFFCC
:102C30004FF012080EE03046FEF72AFD002842D081
:102C400090F81F8000F1140A244841467844524607
:102C50000EF0FAFE12AF584608213A4601F043F949
:102C60000AAE2846314600F035FE02AD3846314600
:102C70002A4600F0BDFF28460A212246642301F0BF
:102C80008DF81748214678440EF0DEFE229E51460C
:102C9000304664220FF02DFE20460FF03FFE054621
:102CA00050460FF03BFE3218204629466423CDF8EB
:102CB000008001F099FF0B48314678440EF0C4FEC5
:102CC0001AB0BDE8F08D4FF4D5400EF045F800BFC6
:102CD00004000000D30701005F200100B81B0100C1
:102CE000210001008DFE0000017800291EBF012097
:102CF00080F001007047411C002200BF132A4FF0F2
:102D0000000038BF012003D08B5C0132002BF5D0CE
:102D100080F00100704700002DE9F0419AB00E46A6
:102D20000446084611461F46154600F031F810B11A
:102D30001AB0BDE8F081154807EB871178440DF112
:102D400024080144404641220FF049FD0EF0A6FC44
:102D5000002001AFCDE90700CDE90500CDE9030072
:102D6000CDE90100781B203031462A460FF037FDAF
:102D70004046394600F025F80EF090FC20462146EA
:102D8000424600F031F81AB0BDE8F0817428010025
:102D900000298C4618BF4FF0010C0FD003786BB997
:102DA000012300BF8B424FF0000C38BF4FF0010CE5
:102DB000994203D0C25C0133002AF3D08CF00100A9
:102DC000704780B582B00A460146512020230DF09D
:102DD00037FF38B901A951200FF058FA002804BF75
:102DE00002B080BD0DF0B8FF80B582B013460A4630
:102DF000014651200DF010FF38B901A951200FF004
:102E000045FA002804BF02B080BD0DF0A5FF000008
:102E1000F0B591B00F4614496D4616460446794404
:102E2000284641220FF0DBFC2846394601220123C7
:102E3000FFF772FF791C28461F220023FFF76CFF63
:102E40002846314601220323FFF766FF711C2846FE
:102E50001F220223FFF760FF691C204620220FF08B
:102E6000BEFC11B0F0BD00BF96280100B0B590B017
:102E700008AD2946044600F02DFD284600F0F4FD7B
:102E8000F82820D300F00700013803281DD808A82F
:102E90006A46042100F04BFDDDE90023204601F0E5
:102EA00039F8DDE9022304F1080001F033F8DDE927
:102EB000042304F1100001F02DF8DDE9062304F1EC
:102EC000180001F027F810B0B0BD4FF4D5400DF058
:102ED00043FF00002DE9F04D94B00446002013900C
:102EE00032488A46DDE91C8B784420211E4615466F
:102EF0000EF0AAFD2E482021784432460EF0A4FDA3
:102F00002C482021784442460EF09EFDBBF1000F74
:102F100019D02948202178445A460EF095FD0BAF70
:102F2000384629463246FFF773FF2448202178446B
:102F30003A460EF089FD384639465A46FFF768FF93
:102F40001F48784406E00BA829463246FFF760FF89
:102F50001C4878440BAD20212A460EF075FD28460A
:102F600029464246FFF754FF1748202178442A4655
:102F70000EF06AFD2846FFF779FF01AE5046314654
:102F800000F026F80EF08AFB13AB304629462246A5
:102F900000F02AF805460D482946784422460EF0EE
:102FA00053FD284614B0BDE8F08D00BFAE170100F8
:102FB0002B020100990D0100822301001C12010067
:102FC000DE1E0100F8110100450D0100FC070100A3
:102FD00080B50B460146512020220DF029FE002825
:102FE00008BF80BD0DF0B8FE10B586B01C460B467C
:102FF0004821944605910DF1100E05AA202100915B
:10300000CDE9022E40F201610322CDF804C00DF09B
:10301000FBFD30B9002C1CBF04982060059806B059
:1030200010BD0DF099FE00002DE9F04D8CB09B46CF
:1030300014460E46054600F0F9F826B13046142134
:10304000FFF7A6FE58B1714878440EF0FDFC00274A
:1030500000976F4A28467A44002104233AE0022C64
:1030600008DD052C0ED0042C0FD0032C07D1634FA4
:103070007F440CE05F4F7F444CB1022C07D05E4888
:103080007844B1E05E4F7F4401E05E4F7F445E488C
:103090001421784432460EF0D7FC0DF10C0840465E
:1030A00024210FF099FB3878B978FA787B7841EAD7
:1030B000022140EA032040EA0140039008F1100099
:1030C000314614220FF08BFB002700972846002181
:1030D00042462423019700F0B3F8DDE915A8052C3A
:1030E00001D0032C19D10020CDE90900CDE907005A
:1030F000CDE90500CDE9030001208DF82B004548FE
:1031000003AF784420213A4620260EF09DFCCDF8EE
:103110000080284601213A460BE03F4820217844B0
:103120005A4620260EF090FC284601215A46CDF83A
:1031300000802023019600F083F8BAF1000F3BD104
:10314000032C32D398F8000000F0030088F8000048
:10315000284600F06BF8201F022802D2314F7F442E
:1031600003E0032C3ED12D4F7F44DDF850B03846AC
:103170000FF0D4FB03460026284600213A4600966D
:10318000019600F05DF82846002142462023CDE953
:103190000066202600F054F8284601215A462023D4
:1031A000CDF80080019600F04BF804F0FE000428F2
:1031B00008BFBAF1000F0ED098F8000000F003002D
:1031C00088F8000018482021784442460EF03CFC64
:1031D0000CB0BDE8F08D042088F80000002088F8CD
:1031E0000100EFE70E48784421460EF02DFC0CB0AC
:1031F000BDE8F08D872601001E190100912601000F
:103200006F2601006D2601008305010007140100EF
:10321000AF260100AD1901009119010044530100CE
:10322000C8140100AB250100761C010080B54FF4E5
:1032300080710DF019FD002808BF80BD0DF08CFDD8
:1032400010B582B0DDE904CE0446CDE900CE0DF024
:10325000FFFC20B920460DF0F7FC02B010BD0DF0C8
:103260007BFD2DE9F041F9B104780F4605468C420B
:103270004FF0000016D2611EC9B2082912D81646B6
:10328000691C1046224698460FF0A9FA601CC1B28C
:103290000020B942305528BFBDE8F081685C88F84D
:1032A00000000120BDE8F0810020BDE8F081B0B54C
:1032B0000C46054600F04EFEC4E9000105F1080089
:1032C00000F048FEC4E90201B0BDD0E9021211438A
:1032D0001CBF00207047D0E900010843B0FA80F01D
:1032E00040097047D1E90032C0E90032D1E902213A
:1032F000C0E9022170470021C0E90011C0E90211B4
:1033000070472DE9F041802904D31046FFF7F3FF01
:10331000BDE8F081034649B140290DD1D3E902014E
:10332000002382E80B00D360BDE8F0811046194607
:10333000FFF7D8FFBDE8F0813F293FD893E801505F
:10334000C1F12005D3F80C800CFA01FC20FA05F637
:10335000C1F1400746EA0C06C7F12004B1F1200C88
:1033600058BF00FA0CF600FA01F02EFA07FE08FA30
:1033700004F458BF002044EA0E04002D28FA07F791
:1033800058BF28FA05F458BF002700197741C2E951
:103390000007D3E90230BCF1000F23FA05F700FA69
:1033A00001F040EA070003FA01F158BF03FA0CF0FC
:1033B00058BF0021C2E90210BDE8F0814029A4D025
:1033C000D3E90203A1F14007C1F16006BB4020FA36
:1033D00006F63343603958BF00FA01F300FA07F0EC
:1033E0004FF0000158BF0020C2E90003C2E90211FA
:1033F000BDE8F081F0B585B0802904D31046FFF711
:103400007AFF05B0F0BD034651B140290BD1002031
:10341000C2E90000D3E90010C2E9021005B0F0BD16
:10342000104619463AE03F293CD8D3E900C0C1F123
:10343000200400FA04F52CFA01F63543D3E902E33F
:10344000B1F1200658BF20FA06F520FA01F758BF5F
:103450000027CDE90057C1F14005C5F12007A8407C
:103460002CFA07F73843002C58BF0CFA04F00CFA7A
:1034700005F703FA04F52EFA01F458BF0027254397
:10348000002E23FA01F158BF23FA06F558BF002198
:10349000EB194841CDE9023069461046FFF722FF9B
:1034A00005B0F0BD4029A9D0D3E90003A1F1400740
:1034B000C1F1600603FA06F6F8403043603958BFA0
:1034C00023FA01F023FA07F14FF0000358BF00215F
:1034D000C2E90033C2E9020105B0F0BDD0E9002124
:1034E00052EA010309D0B2FA82F02030002918BF55
:1034F000B1FA81F0C0F180007047D0E9021051EAC2
:10350000000204BF00207047B1FA81F12031002889
:1035100018BFB0FA80F1C1F14000704780B5D0E922
:1035200000C3D1E900E25A408CEA0E031A431CBFE3
:10353000002080BDD0E90202D1E902135A40484080
:103540001043B0FA80F0400980BDB0B5D0E9003C2E
:10355000D1E9002E8CEA0E0483EA02052C4307D140
:10356000D0E90202D1E90213081A73EB020002E06B
:10357000D01A7EEB0C004FF0000038BF0120B0BD28
:10358000B0B50C460546FFF7E0FF00281CBF012040
:10359000B0BD28462146FFF7C1FFB0BD2DE9F0417F
:1035A00090E8005191E8E000C468CB6815EB08058D
:1035B00046EB0C0617EB0E07634155F1000346F18D
:1035C0000007C2E90037D0E90230D1E90271DB1906
:1035D0004841C2E90230BDE8F0812DE9F04190E8B0
:1035E000005191E8E000C468CB68B8EB05056CEBCE
:1035F0000606BEEB070774EB03034FF0000338BF6A
:1036000001236F1E66F10004002B04BF2F463446D1
:10361000C2E90074D0E90230D1E90271DB1B8841B4
:10362000C2E90230BDE8F08110B5D0E900CED1E9A1
:10363000004343EA0E0344EA0C04C2E90043D0E924
:103640000230D1E9021420431943C2E9021010BD2F
:103650002DE9F04D94B004460020CDE90000039020
:10366000012002902046984692460E46FFF736FF0C
:1036700005463046FFF732FF074608A8FFF73BFE36
:1036800004A82146FFF72EFE30462146FFF75DFFD6
:1036900048B140462146FFF725FE5046FFF72BFE76
:1036A00014B0BDE8F08DEC1B10AD304621462A4623
:1036B000FFF727FE68460CAA2146FFF722FE04A961
:1036C0002846FFF742FF48B110A801210246FFF744
:1036D00091FE0CA801210246FFF78CFE04A831469A
:1036E000FFF74EFF30B304AF10AC0CAD0DF1200B63
:1036F0000FE000BF204601212246FFF77BFE28464F
:1037000001212A46FFF776FE38463146FFF738FF9B
:1037100080B138462146FFF733FF0028EAD038460B
:1037200021463A46FFF759FF584629465A46FFF7C1
:103730007BFFDFE708A95046FFF7D4FD04A9404608
:10374000FFF7D0FD14B0BDE8F08D00002DE9F04D7D
:103750008CB00E46014608A81D469346FFF7C2FDF1
:1037600004A8FFF7C8FD6846FFF7C5FDB11E00209D
:103770000E290390029627D8174C6F1E002508AE1D
:103780007C440DF1100A00BFBD4220D83046694686
:1037900032465346FFF75CFF9DF8180005F101081B
:1037A000205C0BF805003046FFF78FFD00284546EA
:1037B000EAD0B8454FF0000006D80BF8080058468C
:1037C000414600F0DDFB01200CB0BDE8F08D00208B
:1037D0000CB0BDE8F08D00BF8F0A01002DE9F04567
:1037E00095B09A4614460F460A29064636D108A8CF
:1037F00010210EF0FDFF01200DF1100800250A90A8
:10380000404610210B950EF0F3FF0220079506901D
:103810004FF0FF300CADCDE91000CDE9120010A83B
:103820006B4641462A46FFF713FF30462946FFF70D
:103830008CFE98B16D4610A831462A46FFF7CDFEA2
:1038400008A928462A46FFF7A9FE2D2004F8010BF7
:10385000AAF1010328460A21224603E030463946F0
:1038600022465346FFF772FF15B0BDE8F085F0B56C
:1038700085B00D46C9B21446064601F0C3F8C81714
:1038800001AFC5F11001C2B238460EF0ACFF781B93
:10389000103031462A460EF0A2FF38462146FFF787
:1038A00006FD05B0F0BDF0B585B001AF0D4606468A
:1038B000C1F11001384614460EF08EFF781B10300F
:1038C00031462A460EF08BFF38462146FFF7EFFCC3
:1038D00005B0F0BDB0B50C460546FFF7E8FC05F1B4
:1038E000100004F11001FFF7E2FCB0BD10B5044672
:1038F0001030FFF7EAFC00280EBF00202046FFF73B
:10390000E4FC10BDB0B50C460546FFF7EBFC05F135
:10391000100004F11001FFF7E5FCB0BD10B504463E
:10392000FFF7E9FC04F11000FFF7E5FC10BD2DE9FD
:10393000F04591B01446B1F5807F05D32046FFF7DE
:10394000EDFF11B0BDE8F0850D46064639B1802D7A
:1039500008D106F110012046FFF7C4FC30E02046F4
:1039600031461FE07F2D22D80DF130083046294620
:103970004246FFF7C6FC10360DF1200AC5F1800162
:1039800030465246FFF736FD6F46404651463A46AE
:10399000FFF704FE07F1100230462946FFF7B1FC9D
:1039A00020463946FFF7AEFF11B0BDE8F085802D07
:1039B000C4D006F11000A5F180012246FFF7A1FC5A
:1039C00004F11000FFF797FC11B0BDE8F0852DE978
:1039D000F04190B01446B1F5807F05D32046FFF743
:1039E0009DFF10B0BDE8F0810E46054639B1802E2E
:1039F00008D104F110002946FFF774FC2EE02046A0
:103A000029461DE07F2E20D8E8462846314642460A
:103A1000FFF7F0FC0CAF05F1100031463A46FFF716
:103A2000E9FCC6F1800108AE28463246FFF769FC82
:103A300008F1100238463146FFF7B0FD20464146F6
:103A4000FFF760FF10B0BDE8F081802EC6D0A6F170
:103A5000800104F110022846FFF7CCFC2046FFF756
:103A60004AFC10B0BDE8F081B0B584B00446FFF761
:103A70002CFCB8B104F110016C462046FFF732FC73
:103A80002046FFF722FC002418BB6D462846012182
:103A90002A46FFF7AFFC28460134FFF716FC002842
:103AA000F4D016E06D4628462146FFF71BFC284659
:103AB000FFF70BFC802460B96D4600BF284601214A
:103AC0002A46FFF797FC28460134FFF7FEFB002843
:103AD000F4D0204604B0B0BDB0B50C460546FFF7A3
:103AE0001DFD002804BF0020B0BD05F1100004F149
:103AF0001001FFF713FDB0BDB0B50C460546FFF74A
:103B00000DFD002807BF2846214605F1100004F1ED
:103B10001001FFF71AFDB0BDB0B50C460546FFF722
:103B2000EBFF00281CBF0120B0BD28462146FFF74F
:103B3000D3FFB0BDF0B589B014460E460546FFF779
:103B40002DFD1035103604AF284631463A46FFF7B2
:103B500025FD28463946FFF7F8FC50B10020CDE995
:103B60000000039001200290694620462246FFF79C
:103B700015FD04F1100228463146FFF70FFD09B08C
:103B8000F0BDF0B589B014460E460546FFF725FD99
:103B90001035103604AF284631463A46FFF71DFD72
:103BA00038462946FFF7D1FC50B10020CDE900008E
:103BB000039001200290694620462246FFF70DFD42
:103BC00004F1100228463146FFF707FD09B0F0BDA9
:103BD00070B514460D460646FFF726FD06F11000A7
:103BE00005F1100104F11002FFF71EFD70BD000089
:103BF0002DE9F04DA2B08B46074602A84021019264
:103C00000EF0EAFD002612AD1AAC00BF6FF00800FE
:103C100000EAC60807EB080006F0010A00EBCA013B
:103C200050F83A204B68204600F074F90BEB08007E
:103C300000EBCA0150F83A204B68284600F06AF9B8
:103C400001360835042E04F10804DFD102AC1AA9AC
:103C500012AA204600F018F8019F203400256FF0CA
:103C6000080600BF06EAC50005F00101384400EB74
:103C7000C101204600F05DF90135042D04F108046E
:103C8000F0D122B0BDE8F08D80B520230CF0F8FF14
:103C9000002808BF80BD0DF05FF800002DE9F04D51
:103CA000A8B004466846984692460E46FFF736FE90
:103CB0000020CDE904000790012006902046FFF780
:103CC000D3FE05463046FFF7CFFE074610A8FFF7A4
:103CD00025FE08A82146FFF715FE30462146FFF7CE
:103CE0000BFF48B140462146FFF70CFE5046FFF758
:103CF00015FE28B0BDE8F08DEC1B20AD3046214606
:103D00002A46FFF714FE684618AA2146FFF70FFE61
:103D100008A92846FFF7F0FE48B120A80121024675
:103D2000FFF755FE18A801210246FFF750FE08A82C
:103D30003146FFF7F1FE28B308AF20AC18AD0DF106
:103D4000400B0EE0204601212246FFF740FE2846A8
:103D500001212A46FFF73BFE38463146FFF7DCFEDD
:103D600080B138462146FFF7D7FE0028EAD0384612
:103D700021463A46FFF705FF584629465A46FFF7BF
:103D800027FFDFE710A95046FFF7BCFD08A9404612
:103D9000FFF7B8FD28B0BDE8F08D00002DE9F04D2B
:103DA00098B00E46014610A81D469346FFF7AAFD9F
:103DB00008A8FFF7B3FD6846FFF7B0FDB01E0E2858
:103DC0004FF00000CDE90400CDE9066030D87DB3A6
:103DD0001C4C002610AF7C440DF1200A3846694681
:103DE0003A465346B046FFF759FF9DF83800013672
:103DF000205C0BF808003846FFF778FDAE4201D290
:103E00000028EBD0B5420BD1042D14D30E495846EF
:103E100079442A460EF06DFD002018B0BDE8F08D03
:103E200000200BF806005846314600F0A9F80120A2
:103E300018B0BDE8F08D00208BF8000018B0BDE888
:103E4000F08D00BF39040100590601002DE9F0454D
:103E5000A9B09A4614460F460A2906463AD110A838
:103E600020210EF0C5FC01200DF120080025169040
:103E70004046202117950EF0BBFC02200F950E90B6
:103E80004FF0FF3018ADCDE92000CDE92200CDE99B
:103E90002400CDE9260020A86B4641462A46FFF7BC
:103EA000FDFE30462946FFF727FE98B16D4620A853
:103EB00031462A46FFF765FE10A928462A46FFF735
:103EC00039FE2D2004F8010BAAF1010328460A212E
:103ED000224603E03046394622465346FFF75EFF4E
:103EE00029B0BDE8F085F0B589B001AF0D460646B2
:103EF000C1F12001384614460EF06EFC781B2030CC
:103F000031462A460EF06BFC38462146FFF7E2FCAC
:103F100009B0F0BD190E0170190C4170190A8170B9
:103F2000110E0171110C4171110AC3708171C271BE
:103F30007047C2790A7082794A7042798A70027930
:103F4000CA70C2780A7182784A7142788A710078A0
:103F5000C8717047427890F800C083781204C17825
:103F600042EA0C6242EA03221144027943791206C2
:103F700042EA03428379C07942EA0322104470473F
:103F8000013908BF70470022435C10F802C0835417
:103F900000F801C0013201398A42F5D370470000B0
:103FA00080B5074819F80000002808BF0CF040FD54
:103FB00004490020794400220CF016F880BD00BFAF
:103FC000540300000818010080B50349002079441B
:103FD00000220CF009F880BD9E19010080B503494C
:103FE0000020794400220BF0FFFF80BD261A01005B
:103FF00080B503490020794400220BF0F5FF80BD15
:10400000961B010080B503490020794400220BF083
:10401000EBFF80BD9A1B010080B503490020794465
:1040200000220BF0E1FF80BD921A010080B5034928
:104030000020794400220BF0D7FF80BD0A1E01004A
:1040400080B503490020794400220BF0CDFF80BDEC
:104050005621010080B503490020794400220BF06D
:10406000C3FF80BD4E22010080B503490020794482
:1040700000220BF0B9FF80BD0625010010B50B4AE8
:104080000B4B00290B4C0C497A447B4479447C440B
:104090001CBF1346214600284FF000004FF00002DD
:1040A00008BF19460BF0A0FF10BD00BFF0230100B0
:1040B000B223010012240100D023010080B503497E
:1040C0000020794400220BF08FFF80BD261E0100E6
:1040D00080B503490020794400220BF085FF80BDA4
:1040E000BA1E010080B5002000F002F880BD00007B
:1040F0002DE9F0412C4E80467E4430460EF088F883
:1041000000782A4F2A4D002826487D4409EB0004F8
:10411000294604F12B004FF009027F4408BF3946BD
:104120000EF0E7FB30460EF073F840782946002881
:1041300004F134004FF0090208BF39460EF0D9FBF4
:1041400030460EF065F880782946002804F13D00DD
:104150004FF0090208BF39460EF0CBFB30460EF097
:1041600057F8C0782946002804F146004FF00902AC
:1041700008BF39460EF0BDFB30460EF049F8007915
:104180000922002808BF3D4604F14F0029460EF0E1
:10419000B0FB08490020794442460BF025FFBDE8FA
:1041A000F08100BF8C050000044501003FFF0000C6
:1041B00026F5000086170100FF200EF0F5F880B507
:1041C00000F002F880BD000080B5044878440EF08D
:1041D0001FF80349794400F05DF880BD30440100C8
:1041E0002816010080B500F001F880BD80B50548B3
:1041F00078440EF00DF804490130794400F04AF893
:1042000080BD00BF0C4401003A16010080B500F0EB
:1042100001F880BD80B5054878440DF0F9FF0449E8
:104220000230794400F036F880BD00BFE44301005D
:104230004A16010080B500F001F880BD80B5054840
:1042400078440DF0E5FF04490330794400F022F88A
:1042500080BD00BFBC4301005A16010080B500F0CC
:1042600001F880BD80B5054878440DF0D1FF0449C0
:104270000430794400F00EF880BD00BF9443010083
:104280006A16010080B5FFF78BFE80BD80B5FFF791
:1042900087FE80BD10B582B002780C4682F0010125
:1042A0008DF807100DF1070101220DF0E3FF204604
:1042B000FFF71EFF02B010BD80B582B00748094A63
:1042C000484400F1080C06487A44484464213023ED
:1042D000CDF800C00DF06CFD02B080BD14000000F0
:1042E0008C05000040FF000010B50446FFF7E4FF16
:1042F00020460CF059F910BD80B5002000F08EFF6B
:1043000080BD80B5002001F0E5F880BD80B50020BB
:1043100001F0C6F880BD80B5002001F0DBF880BD5B
:1043200080B5002001F026FA80BD80B5002001F0A4
:104330003BFA80BD80B500F001F880BD10B5064C99
:1043400019F8040028B10BF04BFD002009F8040017
:1043500010BD02F091FC10BD6828000080B5044833
:1043600000214844C0F8DC1002F0AAFC80BD00BF68
:104370005403000080B500F001F880BD80B5084806
:1043800019F80000012807D1064800214844C0F868
:10439000DC1002F0AFFC80BD00F032F880BD00BF41
:1043A000682800005403000080B502F00FFD80BDB6
:1043B00080B502F089FD80BD10B506490020794422
:1043C000002200240BF010FE014809F8004010BD47
:1043D00068280000EE18010010B50749074A794423
:1043E0007A44002000240BF0FFFD024809F8004049
:1043F00010BD00BF68280000CE18010000180100A1
:1044000080B50648012109F800100549054A79449C
:104410007A4400200BF0E8FD80BD00BF6828000052
:104420009E180100E017010080B50749074A79444A
:104430007A4400200BF0D8FD0248022109F8001050
:1044400080BD00BF682800007E18010038180100F8
:1044500080B50749074A79447A4400200BF0C4FD2F
:104460000248012109F8001080BD00BF6828000043
:1044700056180100CC17010080B500F001F880BD8E
:1044800010B504F063FD01280CD0022818BF10BD40
:104490000B4C19F8040058B10BF0A2FC002009F8ED
:1044A000040010BD054800214844C0F8DC1010BDD0
:1044B0000BF090FC012009F8040010BD540300002B
:1044C0006928000080B5002004F0F4FF80BD80B5AD
:1044D000002004F0F6FF80BD10B5064900207944A5
:1044E000002200240BF080FD014809F8004010BDB7
:1044F000692800009218010010B50749074A79445D
:104500007A44002000240BF06FFD024809F80040B7
:1045100010BD00BF6928000072180100F0170100EB
:1045200080B50749074A79447A4400200BF05CFDC6
:104530000248012109F8001080BD00BF6928000071
:104540004A1801000818010080B582B008480A4ADC
:10455000484400F12C0C07487A4448444FF48071D9
:104560002023CDF800C00DF023FC02B080BD00BFB9
:10457000140000008C050000B0FC000080B582B083
:1045800008480A4A484400F14C0C07487A44484419
:104590004FF480712023CDF800C00DF009FC02B06B
:1045A00080BD00BF140000008C0500007CFC0000F2
:1045B00010B50446FFF7C8FF20460BF0F5FF10BD0D
:1045C00010B50446FFF7DAFF20460BF0EDFF10BDF3
:1045D00080B5002004F0CAFF80BD80B5002005F042
:1045E000A3F880BD80B5002006F04AF880BD80B5F4
:1045F000002006F071F880BD80B5002006F040F87C
:1046000080BD80B5002006F067F880BD10B5044677
:10461000FEF7C6F820460BF0C7FF10BD80B501209D
:1046200000F07CF980BD80B5002000F077F980BDF6
:1046300080B5002005F074FF80BD80B5002006F035
:104640000BF880BD2DE9F04583B0DFF830A10446BA
:1046500009EB0A014B4891F8C310DFF81C8178443C
:104660004FF0010649F8080071B16CB9464878442A
:104670000DF0CEFD407808B1012605E0434809EB76
:10468000080178440226486006F101059CB14048C3
:1046900009EB0801784441F826003E4801EB860208
:1046A000784441F825003C483C4978447944341D1D
:1046B000C2E9020126E03A4809EB0807784447F8C6
:1046C0002600FEF71BF8CDE9000109EB0A0000F116
:1046D000A501684601F07CF8B41C002807EB8500B2
:1046E0000DD03049794401602F4878440DF090FD99
:1046F000007938B109EB080000EB8400F41C2B4969
:10470000794401602A4878440DF082FD807830B108
:10471000284809EB0801784441F824000134FDF7EA
:10472000EDFF80F0010008430FD0154859F8000054
:10473000D0E9040180F00100084306D11E4809EBCE
:104740000801784441F8240001341C4809EB0801B1
:10475000784441F824001A4801EB8402194B78444C
:1047600004327B444FF0FF3789C2002000220BF057
:104770003BFC03B0BDE8F0856C2800005C01000044
:1047800004000000521901008E3F0100761A01005A
:1047900064190100681901007619010084190100EB
:1047A0000C19010038100100123F0100E01801004F
:1047B000F63E0100C61901001E190100F81801009B
:1047C000361901006219010080B5002006F01CF8BE
:1047D00080BD80B5002000F07DFE80BD80B500204A
:1047E00006F030FC80BD80B5002005F035FF80BDAF
:1047F00080B5002006F026FC80BD80B5002005F0C5
:104800002BFF80BD10B50446FEF750F920460BF093
:10481000CBFE10BD10B5044600F004F820460BF0A6
:10482000C3FE10BD80B582B00E48114A59F8000091
:104830000D49D0E9040C494400900C48CDF804C05F
:1048400009EB000309EB0200C1304FF4807200F065
:104850007BFB00281CBF02B080BD4FF4D4400CF09D
:104860007BFA00BF040000008C050000B8060000C1
:104870006404000010B50446FEF732F920460BF040
:1048800093FE10BD80B582B00748094A09EB000CC1
:1048900006487A4448444FF480712023CDF800C084
:1048A0000DF086FA02B080BD640400008C050000A3
:1048B00076F9000080B582B008480A4A484400F101
:1048C000200C07487A4448444FF480712023CDF8E7
:1048D00000C00DF06DFA02B080BD00BF640400009E
:1048E0008C05000044F9000010B50446FFF7CAFF2C
:1048F00020460BF059FE10BD10B50446FFF7DAFF55
:1049000020460BF051FE10BD80B5002006F064FC7F
:1049100080BD80B5002005F09FFE80BD80B52A498E
:1049200009EB010292F8432038B1012A11D109EBB9
:1049300001000021A0F8421014E0012A17D109EB70
:104940000100002180F84310FDF778FF0BF048FAD2
:1049500080BD09EB010090F8420060B30138494482
:1049600081F84200FDF76AFF0BF034FA80BD09EBD5
:10497000010090F8412090F84200013A824212DD95
:104980000130494481F84200FDF758FF0BF028FA46
:104990000E48002209EB000119F800004A600138B6
:1049A0000BF06AFD80BD09EB0100012180F8431086
:1049B0000BF010FA80BD09EB01004FF48071A0F8F4
:1049C00042100BF00DFA80BD640400005403000097
:1049D00010B592B10A4C02387C4400BF0B78013A02
:1049E0004FEA1313E35C00F8023F11F8013B03F0B8
:1049F0000F03E35C4370F1D102300021017010BD60
:104A000037F80000A9B14A1E072AA0F101034FF0B0
:104A100000004FF0000228BF082100BF13F801CFAB
:104A2000120242EA106201394CEA0020F6D1114626
:104A300070470020002170472DE9F04D98469246BE
:104A40000F460646002200BFD5B26C1C44452FD24B
:104A50009346304639460A2200230DF02FFDD6F149
:104A600009024FF00002BA4100EB8002A6EB4202BD
:104A700042F030020AF805200BF1010206460F460B
:104A8000E2D3D0B200215FEA0B620AF800100FD027
:104A90004FF0FF300AEB00014A781AF805300AF8A7
:104AA00005204B70811C013DA94200F10100F1D3AA
:104AB0000020444538BF0120BDE8F08D2DE9F045C8
:104AC00089B092460A460146202A4FF0000039D8A4
:104AD00001AECDE90700CDE90500CDE90300CDE940
:104AE0000100B01A203098460DF079FE304600F0F3
:104AF00063F830B1B8F1020F27D2002009B0BDE849
:104B0000F085002036F8101009BA090C26F81010AC
:104B100001301028F6D101AE304600F04DF8B0FA61
:104B200080F14FEA5114D0B14746A8EB07050AEBD4
:104B3000070150462A460DF054FE00200AF80500F1
:104B400084F0010009B0BDE8F0851A495046794467
:104B500042460DF0CEFE012009B0BDE8F085B8F167
:104B6000000FEDD0124D47460020002136F81020EE
:104B700042EA0141A1FB0523DA0802EB820326F891
:104B8000102001301028A1EB4301EFD1013F41F08B
:104B900030000AF80700304600F00EF8B0FA80F155
:104BA00000284FEA5114C0D1002FDDD1C8E700BF63
:104BB000CDCCCCCC88F10000017800291EBF0120AB
:104BC00080F001007047411C002200BF1F2A4FF0F7
:104BD000000038BF012003D08B5C0132002BF5D0E0
:104BE00080F00100704700002DE9F04D9B4614460F
:104BF0000E46012907460FD1387830280CD1BBF179
:104C0000020F4FF0000038BFBDE8F08D3021217059
:104C100060700120BDE8F08DDDF820C0B44505D2FC
:104C200006F1020EDE4507D9002040E00CF1030A30
:104C3000DA4513D9002072E0B6EB0C021ED0ACEBC3
:104C400006034FF0FF3200BFB918A51801324978AA
:104C5000981801306970F7D1531C10E03020BCEB7C
:104C6000060820704FF02E00607048D0A01C41460E
:104C700030220DF0B8FD08F1020C42E00023BCF137
:104C8000000F9C461EBF03F1010C2E20E054B342DE
:104C900060460AD2D819471EF31A624617F8011F58
:104CA000501CA154013B0246F8D100212154DE459D
:104CB00084BF0020BDE8F08D002384454FF0000143
:104CC00011D24242ACF10100002100BF27187F78C9
:104CD0000130002908BF0146302F02EB000718BF42
:104CE00019460137F2D1002993D0481E235C0022D7
:104CF0002E2B625408BF22540120BDE8F08D4FF0E6
:104D0000020C60464EB1791E634600BF11F8012FB8
:104D1000581CE254013E0346F8D100212154DA45E3
:104D200084BF0020BDE8F08DC6E72DE9F04D9AB0B4
:104D300001AC0D460746204664211E4692460DF002
:104D40004BFD3846294622466423FFF7B7FE80B361
:104D5000DDE9228B01A864210DF0FCFD07463046F9
:104D60000B210DF0F7FDC4B2054622464046314600
:104D70005C4588BF5A460DF032FD002C1EBF013540
:104D8000202008F80400E8B208EB0002C043F9B2A2
:104D900000EB0B0301A8CDF800A0FFF725FF0028CA
:104DA0001EBF0BEB0801002201F8012C1AB0BDE870
:104DB000F08D00201AB0BDE8F08D70B58AB00C46B9
:104DC000064610464FF4807115460BF04DFF58B95A
:104DD000202006F1090202AE01902846012140235D
:104DE00000960BF035FF10B100200AB070BD06F13F
:104DF0000C01204614220DF0F2FC01200AB070BD17
:104E000070B58AB00D46064610464FF480711446C0
:104E10000BF02AFF58B9202006F1090202AE0190DA
:104E200020460121402300960BF012FF10B1002014
:104E30000AB070BDDDE90E1306F10C0000912946A1
:104E40002246019300F002F80AB070BD2DE9F0454A
:104E50008FB092460C46DDE91621054622F001038B
:104E600083F01E030B4318D102AF10463A4633239A
:104E7000FFF7E2FDD8B3384633210DF06BFD304922
:104E80003B18C0F13302794418460DF00FFD384647
:104E900033210DF05FFD074600E000270DF1080803
:104EA000284E07EB080002387E444FF0FF3100BF68
:104EB0006A18527801311309F35C02F00F02B25CF8
:104EC00000F8023F13294270F2D150464FF480712E
:104ED0000BF0CAFE58B9202007F128030190504674
:104EE00001214246CDF800800BF0B2FE18B100203F
:104EF0000FB0BDE8F08500204FF0040C0DE000BFBE
:104F000018F803108CEA8703D940B25C090748BF40
:104F1000203A2254013028280BD04308E95C10F0D5
:104F2000010701F00F0208BF0A09092AE8D8B25C9C
:104F3000EFE7002084F8280001200FB0BDE8F085DD
:104F4000AEF4000067F30000B0B582B014460D4621
:104F50002A2A10D9DDE9062C3021297078216970C0
:104F6000A91C00921A46CDF804C0FFF76FFF10B1DC
:104F7000012002B0B0BD04492846794422460DF014
:104F8000B8FC002002B0B0BDB4F2000080B5142A15
:104F900028BF1422891A20310DF023FC80BD80B572
:104FA000202A28BF20220DF01CFC80BD0C48019C4B
:104FB00078440DF02DF90078084940F00E0009F80A
:104FC000010009EB0100012141700A2181700421D7
:104FD000C1704FF4104021600BF0BEFEE8290000C4
:104FE0004C36010080B500F007F8024949F801008D
:104FF00080BD00BFA828000080B582B001A80421B0
:105000000BF042FE019802B080BD0000014859F843
:1050100000007047A828000080B5FFF7F7FF0146A1
:10502000074878440CF010FDFFF7F0FF00F00AF895
:1050300000F016F8202006210CF04CF980BD00BFCE
:1050400052E000000549020E09F801204944020C13
:105050004A70020A8A70C870704700BFE8290000D1
:10506000034890214844017100214171704700BFFD
:10507000E8290000F0B5CDB014460D4606460CF008
:105080000DFB45AF392031462A463B460DF03AF933
:105090000CF004FB6D46284630210DF09DFB4ECFF1
:1050A00005F110004EC097E84E0033AF4EC02846C1
:1050B000394600F02FF818AE3046394600F036F881
:1050C000284660210DF094FB384648210DF090FBF6
:1050D00002208DF82F0006F1390128462A4600F0FB
:1050E00031F805F1300000F037F86FF07F0200284A
:1050F000C8BF6FF05F029DF8690006F1090100F07A
:105100001F0010448DF86900204630220DF067FB27
:105110004DB0F0BD80B50B460146392030220BF072
:1051200087FD002808BF80BD0BF016FE80B50A463B
:105130000146392001230BF077FD002808BF80BD10
:105140000BF00AFE80B530230BF09AFD002808BF53
:1051500080BD0BF001FE000080B582B0064901ABB6
:10516000794430220BF084FD002802BF019802B080
:1051700080BD0BF0F1FD00BF2C14010070B58CB0A8
:1051800015461C4A0E4619F80210044600298DF8EF
:105190002F3008BFFCF7ECF9022C1AD2CEB96E46BC
:1051A0000DF12F0128463246FCF7E0FAA8B1124A69
:1051B0009DF800104A44301D0832FFF75BFF84B1B0
:1051C000109CFEF70BFF206840F0100020600CB030
:1051D00070BD4FF4D6400BF0BFFD4FF4D5400BF03F
:1051E000BBFD119C00F00AF820604FF410400BF05A
:1051F000B3FD00BF090000001400000080B506499F
:10520000044849444844083130220DF0E8FA30207F
:1052100080BD00BFE82900001400000010B5FFF7B2
:10522000EDFF0A49044609EB0100902201190255DD
:1052300000204870FCF79CF9A01C81B220200CF0E3
:1052400049F8FEF7ADFE002010BD00BFE8290000C0
:105250002DE9F04DA2B01546614A0E4619F802102C
:10526000804600298DF8873008BFFCF781F9B8F136
:10527000020F80F08F80022E80F090800EAC0DF136
:10528000870128462246FCF771FA002800F08F803B
:105290008246701EDFF84CB1B0FA80F0400909EB8D
:1052A0000B0686F8950006F14C070CF0F7F9211D66
:1052B00096F895509DF838200DF16704212023467B
:1052C000002D18BF06F1750500950CF0F7FF04AD31
:1052D0002046294600F096F80CF0E0F9284600F048
:1052E0009DF8284628210DF083FA204620210DF054
:1052F0007FFA0CF0D3F93C4C3C4959F8040009EB17
:105300000102D0E904033946009030460193FFF7CB
:1053100077FD00284FD059F804009DF88720D0E988
:105320000401082A039102900BD350460821FFF78D
:1053300069FB03919DF887100290A1F108008DF898
:1053400087009DF88710D1BBB8F1000F3FD009EB63
:105350000B0000F14C072648284A2A9D48447A440D
:105360002B21282300970CF023FD59F80400DDE9D8
:105370000232D0E9040151405840014302A808BF5D
:105380000846FEF749FE286840F01000286022B069
:10539000BDE8F08D17484146784402E01648314692
:1053A00078440CF051FB4FF4D6400BF0D5FC4FF491
:1053B000D5400BF0D1FC6FF077000BF0CDFC10481E
:1053C00078440CF041FB4FF4D5400BF0C5FC2B9C0E
:1053D00000F034F820604FF410400BF0BDFC00BF2B
:1053E000090000001400000004000000B8060000DE
:1053F0008C05000028FF000070E600000900010095
:1054000018E9000080B50B460146212020220BF050
:105410000FFC002808BF80BD0BF09EFC80B506493C
:1054200002464944212001230BF0FEFB002808BF5F
:1054300080BD0BF091FC00BF14000000F0B581B0FE
:10544000154C164D412009EB040609EB050709F838
:105450000400701C07F1080141220DF0C0F928205A
:1054600086F8420006F1430007F14C0128220DF0B6
:10547000B6F997F8950058B109EB040009EB05015E
:105480006B30753120220DF0AAF98B2001B0F0BDF0
:105490006B2001B0F0BD00BFE8290000140000003F
:1054A00010B5FFF7CBFF0A49044609EB0100902233
:1054B0000119025500204870FCF75AF8A01C81B26F
:1054C00020200BF007FFFEF76BFD002010BD00BF92
:1054D000E829000080B50848692109F8001048440F
:1054E00085214170FCF744F8202002210BF0F2FEE8
:1054F000FEF756FD002080BDE829000010B500240D
:105500001F234FF0010C07E0C25C0A55013B5A1CF7
:1055100004F1010408BF10BD5FFA84FEBEF11F0F45
:1055200008D0BEF1000FEFD1C27F6CF39F120A705A
:10553000ECE700BF027802F0F802CA77E6E7000065
:105540002DE9F04DAAB002288DF8A73080F0C68072
:105550008B46022980F0BE800EAD04460DF1A701F6
:1055600010462A46FCF702F9002857D08246BBF1C4
:10557000010F039404D19DF8A7001F2840F2AA80D0
:10558000DFF87881291D09EB08059DF8382095F88A
:1055900095400DF1870721203B4605F14C06002C74
:1055A00018BF05F1750400940CF088FE04AC2120AE
:1055B0003946224600F0AEF82120214600F0B4F82A
:1055C0004F48504959F8000009EB0102D0E90403A3
:1055D0003146009028460193FFF712FC002800F0A6
:1055E0008180BBF1000F1DD009EB080000F1090418
:1055F0002046514620220DF0F4F80DF18705204693
:10560000294620220BF04CFB044604A828210DF06B
:10561000EFF8284620210DF0EBF80CB34FF4D540FD
:105620000BF09AFB0DF187050DF167042846214622
:10563000FFF764FF04AE81202146324600F06AF88D
:105640008120314600F070F8204620210DF0D0F87E
:10565000304628210DF0CCF8284620210DF0C8F85E
:105660000398002842D0284D284A09EB0800329CB4
:1056700000F14C0709EB05007A442B212823009701
:105680000CF096FB0DF18707781E002109EB08024C
:105690000A4492F82820013911F1200300F8012F63
:1056A000F4D11B4A09EB05002B307A444E2120230C
:1056B00000970CF07DFBBBF1000F02D0FEF7A2FCBF
:1056C00001E0FEF795FC206840F0100020602AB051
:1056D000BDE8F08D4FF4CE400BF03EFB4FF4D640CA
:1056E0000BF03AFB6FF077000BF036FB339C00F0C9
:1056F00029F820604FF410400BF02EFB140000003E
:1057000004000000B80600008C050000EFFC00005B
:10571000F3EE000080B5134620220BF089FA002832
:1057200008BF80BD0BF018FB80B50A460449012371
:1057300049440BF079FA002808BF80BD0BF00CFB40
:10574000140000000948DFF828C04844013800224E
:1057500009EB0C03134493F82830013A12F12001AD
:1057600000F8013FF4D12020704700BFE829000075
:105770001400000010B5FFF7E5FF0A49044609EBE5
:10578000010090220119025500204870FBF7F0FE3D
:10579000A01C81B220200BF09DFDFEF701FC002033
:1057A00010BD00BFE829000080B50848692109F84C
:1057B0000010484485214170FBF7DAFE20200221C9
:1057C0000BF088FDFEF7ECFB002080BDE82900000F
:1057D00070B5104E0C4619F80610002571B1FCF793
:1057E00085FF58B109EB060000F10801204614229C
:1057F0000DF004F8B0FA80F0400900E0002009EB59
:10580000060149F80650C1E90155C1E90355C1E94E
:10581000055570BDAC28000070B5A0B001281F92DE
:105820008DF87B3006D11FA80DF17B0100F06AF8DE
:1058300028B955E02D4859F80000002841D02B48E0
:105840009DF87B2009EB00018B88CD88D418AC42F1
:105850000BD927484FF4D54129F8001000F092F8F1
:10586000264878440CF0F0F83AE009EB000659F8C5
:1058700000001F9918440CF0B2FFA0B2A842B480F7
:1058800023D11C4D1C4809EB05014844486001A880
:1058900000F086F8D8B101A800F0ECF8B8B1012406
:1058A00009F8054009EB0500416800F108031448B8
:1058B000142278440CF0C8F800F064F8FFF792FB6B
:1058C0000FE00B484FF4D64108E0012409E000F056
:1058D00059F8FFF787FB06484FF4D54129F8001027
:1058E0000024204600F03CF820B070BDC82800001D
:1058F00060080000AC280000D028000040ED000047
:10590000AAEF0000B0B5144A59F802202AB100F0FD
:1059100039F812484FF4D64119E0054608780C468C
:10592000012803D80D484FF4D54110E0286800F055
:10593000E1F800F0C7F838B1286802302860207814
:10594000023820700120B0BD044846F6842129F8B1
:1059500000100020B0BD00BFC82800006008000093
:1059600080B50749002839F8011018BF4FF41041DD
:10597000084600F0C5F8202002210BF0ABFC80BDEA
:1059800060080000B0B5054C09EB0405E888FCF799
:105990002FFE002049F804006860B0BDC828000050
:1059A0002DE9F04DA0B032490446794405A86C2297
:1059B0000CF015FF0020029004F10800019000F0A7
:1059C00045F92A4D09EB05008088002843D003AE35
:1059D000771C4FF000080DF1080B00200AE000BF13
:1059E0000020D04609EB0501C246DDF80880898811
:1059F000884530D2C0B202280AD0012824D080BB0A
:105A00005846314600F026F958B30120EAE700BFB6
:105A100059F8050031464044049005A8224600F09C
:105A20003FF9F0B19DF80D009DF80C2008EB000146
:105A3000152A0291D4D059F80500019A5044A1EBDF
:105A40000A01FBF76BFDCBE75846394600F002F937
:105A500038B10220C5E705A800F04EF920B0BDE836
:105A6000F08D002020B0BDE8F08D00BFC8280000F8
:105A7000120C0100B0B59CB00446083014A900F027
:105A8000F9F9217803290DD101AD284600F008FA73
:105A90006268637814A9284600F012FA38B1012030
:105AA0001CB0B0BD054878440BF0CEFF03E00448BD
:105AB00078440BF0C9FF00201CB0B0BD8EE7000099
:105AC000C5ED000010B50446FCF77EFD074949F816
:105AD000010010B14944CC8004E0054946F6842217
