:02000004C0D06A
:1000000080B502F069F8002080BDF0B581B01C46D3
:1000100015460E46074640210CF0CEF97D637E6002
:100020000698B8633C6301203870304600F002F84F
:1000300001B0F0BD80B5012109020AF0ABFD002836
:1000400000D180BD0AF022FE10B582B0816A00297D
:1000500019D0426A137801AC2370491E521C4262C7
:100060008162417C002905D0C168491CC160817C46
:10007000002904D1406801A9012200F00DF801A86F
:10008000007802B010BD034878440BF053FB012008
:100090000AF0FCFD58CA000010B582B013460A46AB
:1000A00004460021009101910AF068FD002804D166
:1000B00020460AF05DFD02B010BD0AF0E7FD000029
:1000C000B0B50546806A904220D31446002905D079
:1000D0006A6A0846114622460CF078F9687C0028C6
:1000E00002D0A87C002804D1696A68682246FFF71C
:1000F000D3FF686A00196862A86A001BA862687C5E
:10010000002802D0E8680019E860B0BD03487844D0
:100110000BF010FB01200AF0B9FDC046E8C9000051
:10012000F0B58DB0009316460F46044601AD284643
:100130000CF07CFAA885000407D001A80021818575
:100140000B980BF0DFFF032410E001A80BF0DAFF9F
:100150006762A6620099E1620B90204600F01AF8EF
:1001600004460B48784421460BF0E4FA0BF0BEFF3E
:1001700001A9884202D10B980BF0C4FF01A8808D21
:10018000002802D120460DB0F0BD0AF07FFDC04628
:10019000A8C90000F0B585B0044606463C364A487A
:1001A0007844049049487844019049487844029042
:1001B000039606E002980BF0BDFA00252F46002DAD
:1001C0007ED03078C02802D121780C290BD00228AB
:1001D00006D001280DD121780B2904D0022808D19E
:1001E00021780C2905D104980BF0A4FA02270025E8
:1001F000E5E7C02805D12078092802D1A06A0028A7
:1002000039D0A06A0028D5D0607C002807D12046CC
:1002100000F096F8042800D007460428E7D1216BA7
:10022000002910D02046884706462B4878440BF01A
:1002300081FA01200025022E06D325D0032E26D1D7
:100240002648784425E00026002E039E01D0012593
:10025000B5E721781F4878440BF06CFA3178012912
:100260001CD0022920D0C02924D1204600F0D0F88B
:100270000028ECD022E0606BC22100254554019893
:100280000BF058FA02279AE70746039E97E71448AF
:1002900078440BF04FFA0327039E90E7204600F0C6
:1002A00017F90028D3D009E0204600F06FF90028A4
:1002B000CDD003E00B4878440BF03CFA032796E7D7
:1002C000F8B205B0F0BDC04678C9000083C900008F
:1002D00087C9000046C900001CC900001DC90000F4
:1002E000E9C80000F9C80000B0B58CB004466D46FE
:1002F00028460CF09BF9A885000407D06846002129
:1003000081850A980BF0FEFE032407E068460BF097
:10031000F9FE0A902046FFF73DFF04460BF0E6FE8B
:100320006946884202D10A980BF0ECFE6846808D3F
:10033000002802D120460CB0B0BD0AF0A7FC000096
:10034000F0B583B004460546183500272C4E7E4490
:1003500002E00020002823D1A06A002822D02046F5
:10036000FFF772FE216A4A1C226261180876216A30
:1003700001AA284602F009F8002806D001A8007852
:10038000002808D003200127E4E7206A0528E0D1EF
:100390001C48784400E030460BF0CCF90120D9E746
:1003A00003282AD1F8071DD02146083123461033EF
:1003B00002AA284602F008F800281AD00020029964
:1003C0000029014606D1616A491E6162A16A491C81
:1003D000A16201212062E060A17401206074042008
:1003E00003B0F0BD084878440BF0A4F9002003B036
:1003F000F0BD064878440BF09DF9032003B0F0BD32
:1004000087C8000059C8000021C8000021C80000AA
:1004100010B50446007806280CDC032817DC0128F8
:100420003CD0022826D0032849D1204600F056F9B6
:10043000002010BD092815DC072820D0082823D06B
:1004400009283CD1204600F0A5FA002010BD042860
:1004500030D005281DD0062831D1204600F0D4F92F
:10046000002010BD0A38022829D2204600F06CFA7C
:10047000002010BD204600F005F9002010BD2046E8
:1004800000F0F4F9002010BD204600F021FA002011
:1004900010BD204600F082F9002010BD204600F07B
:1004A000DBF82C20215C0020C9070DD12178491CE4
:1004B000217010BD204600F041F9002010BD034816
:1004C00078440BF037F9012010BDC04667C7000023
:1004D00010B50446007805280CDC022817DD032837
:1004E00027D004282AD0052848D1204600F026F934
:1004F000002010BD072813DD082824D0092827D0A4
:100500000A283BD1204600F0ADFA002010BD01289A
:1005100023D0022832D1204600F0B4F8002010BDCC
:10052000062826D0072829D1204600F06DF90020A2
:1005300010BD204600F062FA002010BD204600F0F9
:10054000CDF8002010BD204600F090F9002010BD2D
:10055000204600F0BDF9002010BD204600F07CF8D8
:100560002C20215C0020C9070DD12178491C217065
:1005700010BD204600F072FA002010BD02487844F9
:100580000BF0D8F8012010BDA9C6000010B5044634
:10059000007805280CDD082817DC062829D0072854
:1005A0002CD008284FD1204600F02EF9002010BD95
:1005B000022815DD032826D0042829D0052842D199
:1005C000204600F0C1F9002010BD092825D00A28D6
:1005D00028D00B2837D1204600F044FA002010BD67
:1005E000012824D002282ED1204600F04BF800200C
:1005F00010BD204600F0A2F8002010BD204600F0FB
:100600002DFA002010BD204600F0F8F9002010BDA2
:10061000204600F063F8002010BD204600F026F9C7
:10062000002010BD204600F053F9002010BD2046E8
:1006300000F012F82C20215C0020C90708D1217895
:10064000491C217010BD034878440BF073F8012059
:1006500010BDC046DFC5000080B5017C002907D071
:1006600000214174816841610178491C017080BD9D
:10067000034878440BF05EF801200AF007FBC046FF
:10068000D2C5000010B50446007C002818D1A0682F
:10069000212818D2E168884208D9401AA26A824209
:1006A00000D3024600212046FFF70AFDA068E1685A
:1006B000814204D1002060742078401C207010BD5D
:1006C0000448784401E0044878440BF033F80120F2
:1006D0000AF0DCFAA0C50000B5C5000010B504465C
:1006E000007C00281CD1A06821281CD2E168884227
:1006F00009D9401AA26A824200D30246616B633173
:100700002046FFF7DDFCA068E168814207D1616BFC
:1007100083228854002060742078401C207010BD13
:100720000448784401E0044878440BF003F80120C1
:100730000AF0ACFA78C500008EC5000010B504467A
:10074000007C00281CD1A06821281CD2E2689042BD
:1007500009D9616B8918801AA26A824200D30246C5
:100760002046FFF7ADFCA068E168814207D1616BCC
:1007700020228854002060742078401C207010BD16
:100780000448784401E0044878440AF0D3FF01208B
:100790000AF07CFA52C500006BC5000010B5044693
:1007A000007C00281DD1A168212921D2E068814266
:1007B0000AD9091AA26A8A4200D30A46616B09184B
:1007C00021312046FFF77CFCA068E168814207D117
:1007D000616B41228854002060742078401C207096
:1007E00010BD074878440AF0A5FF01200AF04EFA30
:1007F000044878440AF09EFF01200AF047FAC046F8
:1008000030C5000041C5000010B50446007C00283A
:100810001DD1A16815291DD2E06881420AD9091AA3
:10082000A26A8A4200D30A46616B0918A5312046A4
:10083000FFF746FCA068E168814207D1616BB922ED
:100840008854002060742078401C207010BD05483A
:10085000784401E0044878440AF06CFF01200AF073
:1008600015FAC04607C500001AC5000010B50446B9
:10087000007C00281DD1A16821291DD2E068814299
:100880000AD9091AA26A8A4200D30A46616B09187A
:1008900042312046FFF714FCA068E168814207D18D
:1008A000616B62228854002060742078401C2070A4
:1008B00010BD0548784401E0044878440AF03AFF46
:1008C00001200AF0E3F9C046D7C40000EDC40000DF
:1008D00010B50446194878440AF02CFF207C002803
:1008E00024D1A068E168884212D9401AA26A8242E3
:1008F00000D30246012A07D1606A0078002803D19C
:10090000606BC3210023435400212046FFF7D8FB2E
:10091000A068E168814208D1094878440AF00AFFDA
:10092000002060742078401C207010BD0548784479
:100930000AF000FF01200AF0A9F9C046EFC4000048
:10094000D4C40000A5C4000010B50446007C0028F3
:1009500016D1A068E168884208D9401AA26A82428A
:1009600000D3024600212046FFF7AAFBA068E168F9
:10097000814204D1002060742078401C207010BD9A
:10098000034878440AF0D6FE01200AF07FF9C046F9
:1009900080C4000010B50446007C002820D1A16866
:1009A000092920D2E06881420DD9091AA26A8A4237
:1009B00000D30A46082A00D30822616B0918BA310D
:1009C0002046FFF77DFBA068E168814207D1616B9B
:1009D000C2228854002060742078401C207010BD12
:1009E0000448784401E0044878440AF0A3FE01205A
:1009F0000AF04CF942C4000054C4000010B504468B
:100A0000007C00281CD1A06821281CD2E168884203
:100A100009D9401AA26A824200D30246616B84312E
:100A20002046FFF74DFBA068E168814207D1616B6A
:100A3000A4228854002060742078401C207010BDCF
:100A40000448784401E0044878440AF073FE012029
:100A50000AF01CF914C400002CC4000080B5FFF794
:100A60009DFE80BD10B50446007C002816D0A0680D
:100A7000E168884208D9401AA26A824200D302463D
:100A800000212046FFF71CFBA068E168814204D1E9
:100A9000002060742078401C207010BD034878440A
:100AA0000AF048FE01200AF0F1F8C046F6C3000043
:100AB00070B514460D46064620210BF07DFC75618D
:100AC000B46170BD70B514460D46064618210BF092
:100AD00073FCF560346170BD80B520210BF06CFCB7
:100AE00080BD80B518210BF067FC80BDF0B581B0EA
:100AF0001C4615460E46074620210BF05DFC069865
:100B0000FE603D617C61B86101B0F0BDF0B587B0B9
:100B1000029303920191064638210BF04DFC164DCD
:100B20002C46A734204600F029F80027002800D0E2
:100B30003C46B4604C35284600F020F82021019A4C
:100B40007254002800D03D46F56001F013FB05917A
:100B5000049004A801F032FB0146304610300B220D
:100B60000BF0ECFD0D9830630C98F0620298B062C7
:100B70000398706207B0F0BD14020020B0B50146C2
:100B800000780122002810460FD1491C00231C4682
:100B90005A2C03D318465A2C03D106E001205A2CB4
:100BA00003D00D5D641C002DF2D05040B0BD00009C
:100BB000F0B581B00E460746E4212B48012500918F
:100BC000455472692B487844042421460AF0B2FD4A
:100BD00026480178032906D000293DD13846314600
:100BE00000F056F805E03846314600F09DF8002840
:100BF00000D00027002F09D01D480078002805D01C
:100C00001D4878440AF096FD002522E0002F06D00A
:100C10001A48784414213A460AF08CFD19E0184825
:100C200078440AF087FD174878440F4F39460AF098
:100C300081FDFF200230314600F0EAF80546032826
:100C400007D31148784439460AF074FD00983C54A3
:100C50002546284601B0F0BD0C4878440AF06AFDEC
:100C600000200BF011FAC046B00500200B02002056
:100C700009020020F0C20000DEC20000F2C2000043
:100C800002C300000BC3000001C300006BC20000E0
:100C9000F0B581B00F4606461D4C2546443514225A
:100CA00029460BF0A3FB002816D17A6910785178F9
:100CB000090208189178D3781B02591809040818FA
:100CC000A16D884214D1174878440AF033FDE4201E
:100CD0000421215401B0F0BD0E487844142421466B
:100CE00032460AF027FD0C48784421462A460AE09D
:100CF0000A487844042529460AF01CFD583408485F
:100D00007844294622460AF015FD00200BF0BCF974
:100D1000B0050020C7C30000CDC30000DCC3000045
:100D2000E2C3000033C40000F0B587B0059106901F
:100D300036487844029040680BF0DEF84142414169
:100D400000285DD00646002425460EE0019D6D1C5E
:100D5000ECB2039961430298401840680BF0CCF85C
:100D600006464142414100284AD001950091182091
:100D7000039006980028E9D003984443029800198C
:100D80000490007A0028E1D0049F083701240598D8
:100D9000456930680BF0B0F80178427812025118BA
:100DA0008278C078000280180004401829786A7898
:100DB00012025118AA78EB781B029A1812045118E3
:100DC000814208D10498006800280ED00BF094F8F6
:100DD0008047002809D106980028B7D03878611CD0
:100DE000361D84420C46D2D3B0E704990931064C33
:100DF0001E2220460BF0A2FCE4200421215400997D
:100E00000120884307B0F0BDB005002096C4000063
:100E1000F0B595B005469E4814909E481390E42482
:100E20009D4E305D022807D89D4878440AF082FC28
:100E30009948005D15B0F0BD0F46FF210C46043403
:100E4000A54216DC0846023085422CD081204000A5
:100E5000854248D0A54200D0A1E001919148784454
:100E60000AF068FC13A8786014A838600120B877ED
:100E700050E041208000854229D008460630854256
:100E80003DD083204000854200D088E00191864813
:100E900078440AF04FFC13A8786014A838603146F3
:100EA00044311C2039E00191844878440AF042FC26
:100EB000A020386130464430F86013A8B86014A808
:100EC00078608320400038801C20314625E0019165
:100ED000774878440AF02EFC13A8786014A838608C
:100EE0000120787516E00191704878440AF022FCE0
:100EF00013A8786014A83860012038750AE00191C1
:100F00006C4878440AF016FC13A8786014A838607E
:100F10000120387731464431082039505F48017844
:100F200000291FD0032933D102940397644F7F44D3
:100F3000787A00285DD03946093157480BF090FB8C
:100F400000284BD00126F4B2182060433918487AA3
:100F500000284ED0093150480BF082FB761C002847
:100F6000F1D13CE012971195109604AE30460BF08B
:100F70005DFBB08500041AD004A8002181850E987D
:100F80000BF0C0F84F48784443490AF0D3FB15E012
:100F90004F4878440AF0CEFB002015B0F0BD46481B
:100FA000784429460AF0C6FB012015B0F0BD04A81C
:100FB0000BF0A8F80E9010A80BF036F802940397E7
:100FC0000BF094F804A9884202D10E980BF09AF81D
:100FD00004A8808D00280CD009F058FE00241820A9
:100FE0006043381840690AF087FF02462846039993
:100FF00090473548784429460AF09CFB0126029A1E
:1010000095420EDC01980230854203991CD0812064
:10101000400085422CD0954231D1887F00282AD1CA
:1010200034E0412080008542039C18D001980630AE
:10103000854227D0832040008542304626D1342087
:10104000205C042821D0A7E74878411E02468A4147
:101050000428114600D10146084615B0F0BD617D57
:101060001A4878440AF066FB607D002803D10DE041
:10107000087D00280AD0042807D0062805D030466D
:1010800015B0F0BD207F042886D1042015B0F0BD36
:10109000A00700205C030020B00500200B02002008
:1010A00032C1000066C1000086C10000BAC0000065
:1010B00009C10000F4C0000096C00000DEC00000BE
:1010C0009AC20000CAC0000095C0000033C00000F2
:1010D000DCC00000F0B5FFB090B00D460446002023
:1010E000A0614B48784421460AF024FB2169494815
:1010F00078440AF01FFB484878440AF01BFB20693B
:10110000002837D0A0680378591E09292DD89900E6
:10111000227B521E8A4228D102950393002B0AD0CB
:10112000471C17AD039E384600F080F801C5761EB7
:101130003F1D002EF7D117AF04AA3846039900F0DF
:1011400080F80646342138460BF04CF9002E2AD19F
:10115000212004A9202217AB09F0F8FC00280ED0AA
:1011600017A834210BF03EF91DE02F4878440AF00F
:10117000E1FA1CE0294878440AF0DCFA17E004AFF1
:101180004C2138460BF02EF9212017AE01253946A7
:1011900032462B4609F0D4FC0746342130460BF08A
:1011A00021F9002F06D004A84C210BF01BF97FB0C9
:1011B00010B0F0BD0299086949690090019104A836
:1011C00017A924AA02F070FF0028C9D004A84C2156
:1011D0000BF008F9216908784A78120210180B4AB6
:1011E000904200D1891C17A80BF03AFA002804D0CD
:1011F0000B4878440AF09EFA04E00A4878440AF062
:1012000099FAA56117A83421CFE7C04630780000CD
:1012100044C1000052C100005FC10000FEC00000D8
:10122000AAC00000B7C000001FC100000178090675
:10123000427812045118827812028918C07808186E
:10124000704780B500F001F880BDF0B591B014464C
:101250000D46064605AF38460BF0E8F9B88587B26B
:10126000002F0AD005A8002181850F980AF04AFFB7
:10127000402120460BF0B6F80EE005A80AF042FF28
:101280000F90002700940197029703972121384679
:1012900032462B460AF08AFE0AF028FF05A988424A
:1012A00002D10F980AF02EFF05A8808D002802D1E8
:1012B000384611B0F0BD09F0E9FC0000F0B587B088
:1012C0000F46054604460E343226204631460BF0C2
:1012D00073F8297B212905D31D4878440AF02AFA9E
:1012E00007B0F0BD687B002812D00A2138460BF009
:1012F0007BFAC2B2029603AE3046394617460BF06F
:1013000061F80020F055029E06A81221017007E046
:101310002979286803AA06AB01F0A7FC002810D0A1
:1013200006A80278297BA8680094019603AB02F016
:1013300051FE002809D1322120460BF03DF807B0BC
:10134000F0BD044878440AF0F5F907B0F0BDC04696
:10135000EABF0000B8BF0000F0B5B9B00D460446C2
:1013600007AEC82130460BF027F8A1692B22304682
:101370000BF0E4F92A20305C0026002842D1207BC3
:1013800020283FD8207D08283CD82179206803AA4E
:1013900006AB01F06AFC00282FD006A80278217B5A
:1013A000A0684F23019307AB2B33009303AB02F0EC
:1013B00011FE0026002825D003AF0B22384629460F
:1013C0000BF0BCF906A8122202702069217D32239D
:1013D000019307AB7A3300933B4602F0FBFD0028F4
:1013E00010D009F06FFC203408480460084807A9B1
:1013F000C8220AF0E7FF012604E0064878440AF014
:1014000099F90026304639B0F0BDC04600020020F0
:10141000D806002000BF00000249096808700AF0E1
:1014200011FEC0460002002082B01449086000F09E
:1014300031F813480021017012480124047009F0AA
:1014400031FD114878440AF057FDC078012809D0D1
:10145000200601900D4878440AF04EFD01A90422AF
:101460000AF06EFD0A4878440AF064F9002008F09A
:1014700049F9012008F046F900F072FA0402002050
:101480000A02002009020020F8F40000E6F400003F
:10149000B2BE000080B50E48002101700D480170F9
:1014A0000D4801700D48032202700D4801700D486F
:1014B00001602120C1000C480AF07EFF0B4840214A
:1014C0000AF07AFF0A48C4210AF076FF80BDC046C0
:1014D00009020020080200200A0200200B0200205E
:1014E0000C02002010020020140200201C03002027
:1014F0005C03002080B504494870000A0870202071
:10150000022109F0EDFD80BD680A0020F0B581B030
:1015100004461648401C40210AF04EFFE07821287E
:1015200001D0042700E00527E119202521282E46B7
:1015300000D006460D48801B213032460AF046FF97
:10154000B81C8119C8B20019401E0078212800D1AA
:10155000491CC9B26118212800D005460348401B28
:1015600041302A460AF032FF01B0F0BD680A00207F
:10157000B0B50546072028400024012813D00228D2
:1015800013D1002908D00A480AF08AFD28060AD596
:101590000AF0CAFC2046B0BDFF21523104480022A7
:1015A0000AF096FD04462046B0BD022009F06EFB0D
:1015B000680A0020F0B581B00090B520C743002430
:1015C0000F4D03E05B37641C002F14D029198120D4
:1015D0004000095C0029F5D0E9190E1814223046A4
:1015E00000990AF003FF0028ECD106487844214610
:1015F0000AF0A0F800E00026304601B0F0BDC04679
:10160000140200203EBD0000F0B581B000920D46EE
:101610000978002911D00178009A1170491E0A2911
:1016200002D3164878440AE02978491E2970C9B2C5
:10163000009A12789200914207D20F4878440AF03B
:1016400079F80026304601B0F0BD461C00980078BD
:101650000028F7D00098071D00240021304600F034
:101660000FF801C72878001F2870641C361D0098E9
:1016700000788442F1D3E5E707BD00002DBD0000EE
:10168000425C1206401841780904891882781202D7
:101690008918C07808187047F0B58FB00C46054619
:1016A00003AF38460AF0C2FF0646B88580B200286C
:1016B0001FD0052800D123E1354603A800218185EC
:1016C0000D980AF01FFDA3480078411E8841A249E9
:1016D0000F7807400F20000330400921090388429A
:1016E00005D003214903884236D1FFF7D3FE300AE3
:1016F00037E003A80AF006FD0D90944A1078E02820
:1017000013D0F02800D00DE15078072844DC0228DF
:1017100074D0042800D010E11379D1789078009526
:101720000194521D05F08EF879E050780B2841DDC8
:10173000112852DC0C2800D1BEE00E2800D181E037
:10174000102800D0F9E01379D178907800950194B1
:10175000521D03F09BF910E0FFF79CFE7005400F4F
:1017600068302168794A5054206880184570206894
:10177000801C2060002F00D0CBE00AF0B7FC03A94A
:10178000884202D10D980AF0BDFC03A8808D002884
:1017900000D0B3E00FB0F0BD082838D00A2800D040
:1017A000CBE01379D178907800950194521D05F023
:1017B000C7FB34E0052837DD062800D18CE0082877
:1017C0004ED00A2800D0B8E01379D17890780095EF
:1017D0000194521D03F0A8F8CFE7122800D184E04D
:1017E000162852D0182800D0A7E01379D178907825
:1017F00000950194521D02F06FFFBEE71379D17876
:10180000907800950194521D04F0E8FE07E01379EA
:10181000D178907800950194521D04F07DFF0D98C9
:101820000AF070FC0FB0F0BD022837D0042800D0B9
:1018300083E01379D178907800950194521D03F0DC
:10184000CDFF9AE781204000414900230B521379D4
:10185000D178907800950194521D02F091FD8CE7AB
:10186000812040003A4900230B522868102101438F
:1018700029601379D1789078521D03F0FFFB00287E
:1018800000D07AE7FFF706FE77E71379D1789078F2
:1018900000950194521D03F0FBF96EE78120400092
:1018A0002B4900230B521379D1789078009501943D
:1018B000521D02F0CBFD60E7D178002941D1812093
:1018C0004000234B00261E52137990780095019416
:1018D000521D03F045FF50E71379D17890780095B9
:1018E0000194521D02F0B0FC47E71379D17890784B
:1018F00000950194521D03F0EDF83EE709F0C6F99A
:1019000003A8002181850D980AF0FCFB052009F051
:10191000BDF981B2202009F0E3FB002806D10020A8
:10192000FFF77AFD3720400209F0B0F90B48784400
:1019300009F000FFFF200AF0A7FB6D20000209F06C
:10194000A5F96B20000209F0A1F9C046680A002041
:1019500014020020090200200A02002032BA00000E
:101960008EB000260D960C9603E06846808D002808
:1019700055D16D4628460AF059FEA88585B2002D3E
:1019800023D0052D4DD00446684686850A980AF076
:10199000B9FB0F200003204009210F03B84205D0F6
:1019A00003214903884232D1FFF774FD200ABD426A
:1019B00003D010210C9A8A430C920D99204A50545E
:1019C00050184470881C0D9018E068460AF09AFB85
:1019D0000A900DA801880D960CA8007809F080FBEC
:1019E0000C96002825D0052804D315490979491DEE
:1019F000814221D10CA80DA9FFF74EFE0AF076FB1B
:101A000069468842B1D10A980AF07CFBADE7FFF73E
:101A100041FD6005400F6830BD42CAD1CDE709F0F5
:101A200035F9684686850A980AF06CFB052009F0AE
:101A30002DF9044809F02AF90248401C09F026F95A
:101A4000680A00208269000080B509F09FFA80BD15
:101A5000F0B581B0F84D28780C2813DD0D2868D03A
:101A60000E2800D1ADE0152812D1F4488079012864
:101A70000ED1F1480321FFF703FE000708D405202B
:101A800009F004F9052800D1BEE00C2800D145E298
:101A9000EB4C002767600120207020460AF0B6FA60
:101AA00004200AF03DFB6060692800D0D4E009F012
:101AB00011FA09F011FAC225FD4E775304200AF0FD
:101AC0002FFB6060002800D128E2972800D125E292
:101AD000C42404E0FFF7B8FF705B401C705330591A
:101AE000002800D11AE2C820305C715B814200D32B
:101AF00014E20AF0E1FA002800D00FE20AF038FA06
:101B0000AA2804D10AF074FAAA2800D006E23059B3
:101B1000715B49014018D0217158002902D08847D3
:101B20000028D9D00128D5D13059715B490140181E
:101B3000D0E7C34C002767600120207020460AF0E0
:101B400065FA04200AF0ECFA6060002800D1E5E1B3
:101B5000692800D15FE1972800D1DFE1C425F84C66
:101B600004E0FFF771FFA05B401CA0536059002800
:101B700000D1CBE1C820205CC226A15B814200D30A
:101B8000C4E10AF099FA002800D0BFE10AF0F0F9A8
:101B9000AA2804D10AF02CFAAA2800D0B6E160598C
:101BA000A15B49014018D0216158002902D0884723
:101BB0000028D8D00128D4D16059A15B4901401830
:101BC000CFE7DE4D00266E600120287028460AF01F
:101BD0001DFA04200AF0A4FA6860692800D09DE08C
:101BE00009F078F909F078F9C224D54E0020305375
:101BF00004200AF095FA6860002800D18EE1972849
:101C000000D18BE1C4255FE0CC4C00276760012048
:101C1000207020460AF0FAF904200AF081FA606088
:101C2000002800D17AE1972800D177E1692800D017
:101C300033E109F04FF909F04FF9C225C04E77534F
:101C400004200AF06DFA6060002800D166E1972850
:101C500000D163E1C424B4E0C425B94C04E0FFF72B
:101C6000F3FEA05B401CA0536059002800D14DE159
:101C7000C820205CC226A15B814200D346E10AF065
:101C80001BFA002800D041E10AF072F9AA2804D119
:101C90000AF0AEF9AA2800D038E16059A15B4901E9
:101CA0004018D0216158002902D088470028D8D098
:101CB0000128D4D16059A15B49014018CFE7FFF753
:101CC000C3FE305B401C30537059002800D125E121
:101CD000C820305C315B814200D31FE10AF0ECF98F
:101CE000002800D01AE10AF043F9AA2804D10AF02A
:101CF0007FF9AA2800D011E17059315B49014018E1
:101D0000D0217158002902D088470028D9D0012855
:101D1000D5D17059315B49014018D0E70446DC2029
:101D2000874D295800290FD00A46643A00D232461E
:101D30002A50642908D8D8216958002904D0E02203
:101D4000AA582A5000208847002C00D1E6E0972CA2
:101D500000D1E3E0C42404E0FFF776FEA85B401C5A
:101D6000A8532859002800D1E1E0C820285CC226E9
:101D7000A95B814200D3DAE00AF09EF9002800D086
:101D8000D5E00AF0F5F8AA2804D10AF031F9AA281A
:101D900000D0CCE02859A95B49014018D0216958EE
:101DA000002902D088470028D8D00128D4D128594A
:101DB000A95B49014018CFE7FFF746FE705B401C66
:101DC00070533059002800D1A8E0C820305C715B06
:101DD000814200D3A2E00AF06FF9002800D09DE014
:101DE0000AF0C6F8AA2804D10AF002F9AA2800D0FD
:101DF00094E03059715B49014018D0217158002995
:101E000002D088470028D9D00128D5D13059715B3C
:101E100049014018D0E709F05DF809F05DF8C225E6
:101E2000474E775304200AF07BF96060002875D094
:101E3000972873D0C4240AE020040020BC0B0020A3
:101E4000A0040020FFF700FE705B401C7053305967
:101E5000002863D0C820305C715B81425ED20AF0FA
:101E60002BF900285AD10AF083F8AA2803D10AF0E6
:101E7000BFF8AA2852D13059715B49014018D021CE
:101E80007158002902D088470028DDD00128D9D117
:101E90003059715B49014018D4E7D420284C2058B0
:101EA000002803D0E978490809F0BAF8C42506E00B
:101EB000A8040020FFF7C8FDA05B401CA053605998
:101EC000002823D0C820205CC226A15B81421DD2FD
:101ED0000AF0F2F8002819D10AF04AF8AA2803D12A
:101EE0000AF086F8AA2811D16059A15B490140186F
:101EF000D0216158002902D088470028DCD0012871
:101F0000D8D16059A15B49014018D3E7C820205CB3
:101F1000C221615A814201D30AF0CEF80AF0CCF80E
:101F2000002801D108F0DAFE012001B0F0BDC82080
:101F3000285CC221695A8142EED2EFE7A00400205A
:101F4000A804002010B58CB06C4620460AF06EFB49
:101F5000A08500040DD00AF0C9F86946884202D174
:101F60000A980AF0CFF86846808D002808D10CB096
:101F700010BD68460AF0C6F80A90FF200AF084F8FF
:101F800008F084FE0021C170482282705422427001
:101F900045220270012241608160C160026141619D
:101FA0007047000070B594B0002804D08068002805
:101FB00001D02C4908602B4D2868002804D10EACB4
:101FC0002046FFF7DFFF2C60FFF764FA4120800016
:101FD000254900260E54254C2120C10020460AF038
:101FE000EBF902AD28460AF021FBA88580B205284E
:101FF00008D102A886850C980AF084F80C980AF09B
:1020000081F8E9E700280BD002A886850C980AF031
:1020100079F80C980AF076F8FFF794FF14B070BDC9
:1020200002A80AF06FF80C9008F03CFF10487844C2
:1020300009F062FFC07800280AD101200006019053
:102040000C48784409F058FF01A9042209F078FFF0
:10205000002007F057FB012007F054FB01F04CFA79
:10206000FFF77EFC0402002014020020A8040020D8
:102070000EE90000FAE8000086B0044680680028F7
:1020800004D16D462846FFF77DFFA56011487844CE
:1020900009F050FB606802280FD0042807D00328FD
:1020A00009D1A168E068FFF715F809F0CBFFA16836
:1020B000E068FFF703F909F0C5FFA168E068FFF7E2
:1020C0004BF9002802D0A068FFF7AEF9FF2009F015
:1020D000DBFFC046E1B2000010B5044662B608F06E
:1020E000D0FD002C09D0012000022168814209D1D5
:1020F000606801280AD1204600E00020FFF752FF67
:10210000002010BDFFF71EFF002010BD2046FFF786
:10211000B3FF80B500F008F8002803D0006809F08C
:10212000EBFE80BD002080BDB0B506C807487844EE
:1021300046238468C56855404C402C4304D05B1E40
:102140001030002BF5D10020B0BDC0466EE300007A
:1021500080B5FFF7E9FF002803D0406809F0CCFE06
:1021600080BD002080BD80B5FFF7DEFF411E8841A5
:1021700080BD000080B53C210D48415C4A1E022A0A
:1021800006D2A4210B48415C843001F0BBFD80BD28
:10219000C02906D1406BC221415CBA3001F0B2FDCA
:1021A00080BD0548784409F0C5FA0020014680BD8D
:1021B0001C0300205C030020FFB1000080B5FFF786
:1021C000C7FF002801D10148006880BD040200203B
:1021D000B0B5044606C80A48006803694569554019
:1021E0004B402B4301D10120B0BD1030FFF7BBFFA6
:1021F000002803D02046FFF7B6FFB0BD0020B0BDD9
:102200000402002010B58AB04F2000900C490B4604
:102210002B3302AC2B222046FEF768FCFF20063051
:102220002146FEF7F5FD002801D00AB010BD054893
:10223000784409F07FFA002004F086F90AB010BD56
:10224000D80600201CB5000070B590B00C460546BD
:1022500042200E49095C0092019302AE30462A46A4
:102260002346FEF753FC832040003146FEF7D0FDA5
:10227000002801D010B070BD0548784409F05AFA22
:10228000002004F061F910B070BDC046B005002018
:10229000F8B4000080B5044802462B322B214F23AE
:1022A000FFF7D2FF80BDC046D8060020B0B50C466F
:1022B000054618210AF080F82C60B0BD0168C27D87
:1022C0000A700168827D4A700168427D8A700168E7
:1022D000027DCA700168C27C0A710168827C4A7101
:1022E0000168427C8A710168007CC8717047F0B552
:1022F00083B015460446416808980A1862603F2A70
:102300000DD84020821A2846194609F06BFF226931
:102310000243226160690843606103B0F0BD403A46
:10232000811A28460025EF4300978F40F943CE17C6
:102330006260A160E66001900293194609F046FFD1
:10234000B8432269024322613140606908436061F9
:102350002046FFF7B3FF25616561206808302060E3
:10236000606800280FD0009D8540E943CB17A1602D
:10237000E36040210A1A0198A8430299194009F024
:1023800031FF2061616103B0F0BD0078C308172BF5
:1023900017D3BF2805D80346B63B8B4209D9002086
:1023A0007047F8280DD30346F63B8B4207D900202F
:1023B0007047BC2805D30020107001207047FC280E
:1023C000F9D201201070704770B5047864B2002C07
:1023D00006D400201060187001240C60204670BDE7
:1023E000E6B2B72E08D801241460007800221A70D3
:1023F00080380860204670BDBF2E0FD800241C70A6
:10240000B63E16600278B92A10DCB82A3BD0B92A49
:1024100050D182784078000280183DE0F72E13D822
:102420000124146000781C70C038E2E7BA2A2CD06E
:10243000BB2A3FD14278120683781B049A18C378CE
:102440001B02D218007926E001251D70F63E1660A9
:1024500002780024F92A08DCF82A20D0F92A29D1A8
:10246000827840780002801822E0FA2A19D0FB2AEC
:1024700020D14278120683781B049A18C3781B0275
:10248000D218007913E0407806E04278120483788D
:102490001B029A18C07810180860012070BD40789F
:1024A00006E04278120483781B029A18C07810184C
:1024B00008602C46204670BD80B582B0054881304A
:1024C000009005486421054A7A44202309F0F6FA71
:1024D00002B080BDB0050020D8060020D0B20000B8
:1024E00080B582B00548A130009005486421054AB6
:1024F0007A44202309F0E2FA02B080BDB005002042
:10250000D8060020A8B20000F0B58BB0034602291F
:102510003AD314460A4618682049884234D158688C
:102520001F49884230D100250095212002AE19466E
:10253000334609F02BFD1B4878442021324609F030
:10254000F9F820360196184E7E440198057002A8CD
:102550002121202722463B4608F016FB304639460B
:10256000224609F0E7F8204600F024F86D1C002808
:10257000EBD5204600F030F80C4878442021224664
:1025800009F0D8F80BB0F0BD06CB0948784409F043
:10259000D1F8D520C00108F079FBC046550A00806B
:1025A000D32A86A28CB20000A0B200007DB2000047
:1025B00013B2000080B582B006497944202201ABF5
:1025C00008F0EEFA002802D1019802B080BD08F0B0
:1025D0005DFBC046F7B2000080B5054A7A44202171
:1025E0000B4608F0E3FA002800D180BD08F04EFB4E
:1025F000F5B20000F0B5A1B01C4605920F460646A4
:1026000032480568324878441421324609F092F87D
:10261000304600F067F800280794069707D02D4849
:10262000784409F087F81220049003950DE03046B5
:10263000FEF7C0FF002845D00246C17F1432039246
:1026400025487844049109F075F8269F02970821DF
:1026500018AE0598324600F0F1FE10AC06982146FF
:1026600000F075FC08AD304621462A4600F0CBFD4F
:102670000A2164262846079D2A46334600F08CFE30
:1026800016487844294609F055F83846039F3946DC
:1026900032460AF053F828460AF078F804463846DD
:1026A0000AF074F804990091029F3A1828462146CE
:1026B000334601F00CFC0A487844394609F03AF8F0
:1026C00021B0F0BDD520C00108F0E0FA04020020DE
:1026D00002B2000006B2000003B20000F4B1000034
:1026E000E3B10000B0B50146007801220028104691
:1026F0000FD1491C00231C46132C03D31846132C5E
:1027000003D106E00120132C03D00D5D641C002DC5
:10271000F2D05040B0BD0000F0B59BB01F4615464A
:102720000E4604460846114600F030F8002801D055
:102730001BB0F0BD4122574313487844C1190AA881
:10274000019009F03FFE08F065FE00200990089016
:10275000079006900590049003900290274602ACE3
:10276000601B203031462A4609F02CFE019D284688
:10277000214600F023F808F04DFE384639462A4637
:1027800000F030F81BB0F0BDB7B10000B0B54B1E83
:102790000A469A4100290ED00378002B0BD1012361
:1027A0001C468C421A4600D30022A14203D0055D8C
:1027B000641C002DF5D001205040B0BD80B582B022
:1027C0000A4601465120202308F0CCF9002807D101
:1027D000512001A909F0C0FB002801D102B080BD41
:1027E00008F054FA80B582B013460A4601465120DB
:1027F00008F09AF9002807D1512001A909F0ACFB93
:10280000002801D102B080BD08F040FAF0B593B0C5
:1028100016460C46019002AD1349794441222846E0
:1028200009F0D0FD0127284621463A463B46FFF7EE
:1028300073FF611C1F24002328462246FFF76CFF0C
:102840000323284631463A46FFF766FF711C0223F0
:1028500028462246FFF760FF691C2022019809F0F4
:10286000B1FD13B0F0BDC046DEB10000B0B590B010
:10287000044608AD294600F06AFB284600F026FC15
:10288000F82820D307210840401E03281DD808A897
:1028900004216A4600F089FB019B009A204600F063
:1028A000E4FD039B029A2046083000F0DEFD059B04
:1028B000049A2046103000F0D8FD079B069A183481
:1028C000204600F0D2FD10B0B0BDD520C00108F008
:1028D000DDF90000F0B597B01F4615460391064696
:1028E00000201690324878442024214608F022FF28
:1028F00030487844214601973A4608F01BFF2E489D
:1029000078441C9A2146029208F014FF1D9C002C6A
:102910001CD02A487844009620263146224608F0EA
:1029200009FF0EAF38462946019AFFF76FFF24488A
:1029300078443146009E3A4608F0FCFE3846394657
:102940002246FFF763FF1F48784406E00EA8294699
:10295000019AFFF75BFF1C48784420240EAD214606
:102960002A4608F0E7FE28462946029AFFF74EFF5E
:102970001648784421462A4608F0DCFE2846FFF730
:1029800075FF04AC0398214600F024F808F042FDDE
:1029900016AB20462946324600F028F804460C487B
:1029A00078442146324608F0C5FE204617B0F0BDF7
:1029B00053B100005FB1000069B1000069B10000CF
:1029C00061B100005FB1000039B1000053B10000F7
:1029D0003BB1000080B50B4601465120202208F093
:1029E000B5F8002800D180BD08F050F910B586B0C8
:1029F0001C460B464821059104A9039105A90291A3
:102A00000192202100910749032208F081F8002853
:102A100006D1002C01D004982060059806B010BDA6
:102A200008F034F901060000F0B58FB01F461546D6
:102A30000E46059000F0FCF8002E05D0142130461B
:102A4000FFF7A4FE00280DD07148784408F072FE0C
:102A50000021009101916F4A7A440423059800F007
:102A6000F1F840E0022D039708DD052D0FD0042D6D
:102A700010D0032D08D1624C7C440DE05E4C7C44A8
:102A8000002D09D0022D07D05C487844AEE05D4CA3
:102A90007C4401E05C4C7C445C4878441421029105
:102AA000324608F047FE06AF24210491384609F06B
:102AB00083FC2078617809020818A178E278120274
:102AC0005118090408180690384610303146029A09
:102AD00009F078FC00210091019105983A46049B89
:102AE00000F0B0F8039F169E15980490052D01D0B4
:102AF000032D19D100200D9006AF03950125FD7718
:102B00000C900B900A90099008900790069042480C
:102B10007844202421463A4608F00CFE00960194A1
:102B200005982946039D0AE03C4878442024214624
:102B30003A4608F0FFFD00960194012105983A46B7
:102B4000234600F07FF80498002804D03078032151
:102B50000140317040E0032D33D330780321014030
:102B60003170059800F064F8281F022803D20395FD
:102B70002D4D7D4404E0032D36D10395284D7D4431
:102B800014980290284609F001FE034600240094A0
:102B90000194059F384621462A4600F053F80094D8
:102BA000019420253846214632462B4600F04AF84B
:102BB0000096019501213846029A2B4600F042F812
:102BC000039DFE200540042DC0D104980028BDD1EE
:102BD0000020707004203070144878442021324660
:102BE00008F0A8FD0FB0F0BD0E487844294608F063
:102BF000A1FD0FB0F0BDC04633B1000067B00000CA
:102C00003DB100002DB1000023B1000074B0000000
:102C1000DFB0000069B1000033B0000019B000005F
:102C20007EDD000078AF000053B00000B1AF0000BF
:102C300080B50121090207F0ADFF002800D180BD59
:102C400008F024F810B582B0044605980190049865
:102C50000090204607F092FF002804D1204607F09C
:102C600087FF02B010BD08F011F8F0B581B005463D
:102C70000020002918D00E462C788C4214D2611EF8
:102C8000C9B2082910D81746691C1046224600937D
:102C900009F098FB009A00203855611CC9B2B14276
:102CA00002D2685C1070012001B0F0BDB0B50C46D6
:102CB000054600F0FAFB03C408352846083C00F03E
:102CC000F4FBA060E160B0BD8168C2680A4301D036
:102CD0000020704706C80A435042504170470A68B6
:102CE00002604A6842608A688260C968C160704751
:102CF0000021016041608160C1607047F0B581B022
:102D00001446802904D32046FFF7F2FF01B0F0BD3E
:102D10000D460646002909D0402D0DD1B06800218E
:102D2000A160F268E16005C401B0F0BD2046314603
:102D3000FFF7D5FF01B0F0BD3F2D1AD803CE2A46CC
:102D4000083E09F04FFA074600914020421BB06848
:102D5000F16809F03BFAC0192060009841416160B8
:102D6000B068F1682A4609F03DFAA060E16001B060
:102D7000F0BD402DC7D0B0680022A260F168E260CB
:102D8000403D2A4609F02EFA03C401B0F0BDF0B56B
:102D900087B01446802904D32046FFF7A9FF07B067
:102DA000F0BD0D46064600290AD0402D0BD100206B
:102DB000206060603068A0607068E06007B0F0BDBF
:102DC000204631461EE03F2D20D8376871680191BA
:102DD00038462A4609F0FAF903910290B068F16882
:102DE0002A4609F0F3F9064600914020421B384676
:102DF000019909F0F7F930180490009841410591C4
:102E000002A92046FFF76BFF07B0F0BD402DC3D0ED
:102E100030680022226071686260403D2A4609F0F5
:102E2000D5F9A060E16007B0F0BDB0B50CC930C8FD
:102E30005D405440083808392C4309D18A68C96874
:102E40008368C06848405340034358425841B0BD6E
:102E50000020B0BDF0B50B684A6805684468264696
:102E600056402F465F40374308D18268C0688B6860
:102E7000C9689A1A814104D20120F0BD581BA241B1
:102E8000FAD30020F0BDF0B584B0009242684B68E0
:102E900005680E6875195341CA680392C6688A6846
:102EA0000292826801920022029F019CE719039F0F
:102EB0007E415541009C25605341636082688B6868
:102EC0009A18A260C068C9684141E16004B0F0BDD1
:102ED000F0B584B003924C6842680D680668731BB5
:102EE000A241002600935B1E02931446B441CB68B6
:102EF0000193C7688B688568EB1A019B9F4100D2DC
:102F00000126002E039D029B00D1009B2B60002E0A
:102F100000D114466C608A6883689A1AAA60C968EE
:102F2000C0688841E86004B0F0BD10B503680C6863
:102F30001C43146043684C681C43546083688C686D
:102F40001C439460C068C9680143D16010BDB0B52E
:102F50000C460546FFF7AAFE1035103428462146D8
:102F6000FFF7A4FEB0BD10B504461030FFF7ACFE6D
:102F7000002803D02046FFF7A7FE10BD002010BD9B
:102F8000B0B50C460546FFF7AAFE103510342846AA
:102F90002146FFF7A4FEB0BD10B50446FFF7A8FE1A
:102FA00010342046FFF7A4FE10BDF0B593B01446D0
:102FB0000546080A04D02046FFF7EEFF13B0F0BD27
:102FC0000E46002907D0802E08D11035204629460C
:102FD000FFF785FE2DE0204629461DE07F2E1FD8F5
:102FE0000EAA019228463146FFF788FE8020811BF9
:102FF00010350AAA00922846FFF7C9FE02AF0198D1
:1030000000993A46FFF73FFF3A46103228463146CC
:10301000FFF774FE20463946FFF7B2FF13B0F0BD4C
:10302000802EC8D01035803E284631462246FFF714
:1030300065FE10342046FFF75BFE13B0F0BDF0B51F
:1030400093B014460546080A04D02046FFF7A4FFB3
:1030500013B0F0BD0E46002924D0802E05D12046A5
:1030600010302946FFF73BFE2BE07F2E20D802AA26
:10307000019228463146FFF78AFE284610300EAFEF
:1030800031463A46FFF783FE8020811B0AAE284670
:103090003246FFF733FE019D2A461032384631464C
:1030A000FFF7F1FE20462946FFF76AFF13B0F0BD97
:1030B000802ECAD0803E2246103228463146FFF785
:1030C00066FE2046FFF714FE13B0F0BDB0B584B025
:1030D0000446FFF7F9FD00281AD010346D46284643
:1030E0002146FFF7FCFD2846FFF7EEFD00240028EF
:1030F0000BD101216D4628462A46FFF748FE641C85
:103100002846FFF7E1FD0028F3D0204604B0B0BD0B
:103110006D4628462146FFF7E2FD2846FFF7D4FD1D
:1031200080240028F1D101216D4628462A46FFF768
:103130002EFE641C2846FFF7C7FD0028F3D0E4E705
:10314000B0B50C460546FFF770FE002806D01035D6
:10315000103428462146FFF768FEB0BD0020B0BD00
:10316000B0B50C460546FFF760FE002801D01035CB
:10317000103428462146FFF76DFEB0BDB0B50C46B1
:103180000546FFF7EDFF002801D00120B0BD28461D
:103190002146FFF7D5FFB0BDF0B589B014460D4606
:1031A0000646FFF795FE1036103504AF3046294627
:1031B0003A46FFF78DFE38463146FFF74BFE0028B2
:1031C0000AD00020039001210291019000906946ED
:1031D00020462246FFF77CFE103430462946224620
:1031E000FFF776FE09B0F0BD70B514460D460646F1
:1031F000FFF79BFE10361035103430462946224624
:10320000FFF793FE70BDF0B5A5B001920391029057
:1032100005A8402109F0D0F8002515AE1DAC049694
:10322000EF0008203E46064087430298C0198259A5
:1032300080194368204600F018F90398C019825994
:103240008019049E4368304600F00FF908340836B0
:103250006D1C042DE3D105AC1DA915AA204600F074
:1032600012F820340025019E680800013018E90793
:10327000090F4118204600F007F908346D1C042D91
:10328000F2D125B0F0BD80B5202307F095FC0028D1
:1032900000D180BD07F0FAFCF0B5ABB0009301920D
:1032A0000E46074602A8FFF777FE0020099001218D
:1032B0000891079006903846FFF708FF044630460D
:1032C000FFF704FF054612A8FFF766FE0AA8394675
:1032D000FFF756FE30463946FFF742FF002808D078
:1032E00000983946FFF74CFE0198FFF755FE2BB0CA
:1032F000F0BD009F641B22AD304621462A46FFF7F1
:1033000054FE02A81AAA2146FFF74FFE0AA9284632
:10331000FFF726FF00280AD0012422A821460246F2
:10332000FFF78DFE1AA821460246FFF788FE0AA87D
:103330003146FFF723FF00283D46019F1AD112A90D
:103340003846FFF71DFE0AA92846FFF719FE2BB0E5
:10335000F0BD012422A821460246FFF770FE1AA8FC
:1033600021460246FFF76BFE0AA83146FFF706FF2B
:103370000028E4D00AA822A9FFF700FF0028E8D01F
:1033800022A90AA80246FFF707FF1AA912A80246B7
:10339000FFF72AFFDDE70000F0B59BB01D46019264
:1033A0000E46014612A8FFF7EBFD0AA8FFF7F4FD51
:1033B00002A8FFF7F1FD00200990079006900896FB
:1033C000B11E0E292ED8002D2CD000261948784485
:1033D000009002A912AF0AAC38463A462346FFF7DE
:1033E0005BFF207E0099085C01998855761C384661
:1033F000FFF7B9FDAE4201D20028EAD0B5420AD1AA
:10340000042D11D30C49794401982A4609F096F904
:1034100000201BB0F0BD002101988155314600F01D
:103420005AF801201BB0F0BD0020019908701BB0B4
:10343000F0BDC04601A80000DAA70000F0B589B0D1
:1034400014460D4606462020411A01AF384608F0C2
:10345000B3FF781B203031462A4608F0B3FF3846C8
:103460002146FFF774FD09B0F0BDC271C370110AA7
:103470008171110C4171110E0171190A8170190CC1
:103480004170190E01707047C2790A7082794A70D2
:1034900042798A700279CA70C2780A7182784A7158
:1034A00042788A710078C8717047417909040279BD
:1034B00012065118827912028918C2798A18017885
:1034C000090643781B04591883781B02C918C07871
:1034D000091810467047B0B5491E0BD00122831859
:1034E0005B1E1C78455C1D704454531C491E8A4267
:1034F0001A46F4D3B0BD000080B506480078002815
:1035000001D107F069FA044979440020024606F027
:1035100015FE80BDA804002008A8000080B503495E
:1035200079440020024606F009FE80BD0CA9000087
:1035300080B5034979440020024606F0FFFD80BDB6
:10354000C8A9000080B5034979440020024606F06E
:10355000F5FD80BD80AB000080B5034979440020B3
:10356000024606F0EBFD80BD84AB000080B5034948
:1035700079440020024606F0E1FD80BD44AA000027
:1035800080B5034979440020024606F0D7FD80BD8E
:10359000A0AD000080B5034979440020024606F042
:1035A000CDFD80BD64B1000080B5034979440020A1
:1035B000024606F0C3FD80BDD4B2000080B50349C9
:1035C00079440020024606F0B9FD80BDB8B5000080
:1035D00080B50A46002908D10C497944002A08D050
:1035E0000B4A7A44002808D008E007497944002AA9
:1035F000F6D1084A7A44002800D11146002002463C
:1036000006F09CFD80BDC0468CB400005AB400009A
:103610006EB4000020B4000080B503497944002056
:10362000024606F08BFD80BD18AE000080B5034950
:1036300079440020024606F081FD80BDACAE00005A
:1036400080B5002000F002F880BD0000F0B583B026
:1036500001901D4E7E44304608F04EFC00781B4D14
:103660007D441B49794402910028294600D00299E3
:10367000144F38462B300924224609F05FF83046B3
:1036800008F03AFC40780028294600D002993846D4
:103690003430224609F052F8304608F02DFC80788C
:1036A000002800D0029D3D3738462946224609F0C1
:1036B00045F8002007497944019A06F03FFD03B020
:1036C000F0BDC046D8060020E8D2000015A60000D4
:1036D00009A6000032A70000FF2008F0D5FC80B545
:1036E00000F002F880BD000080B50448784408F07E
:1036F00003FC0349794400F035F880BD50D2000046
:1037000054A6000080B500F001F880BD80B50548E2
:10371000784408F0F1FB401C0349794400F022F89A
:1037200080BDC0462CD200005EA6000080B500F02F
:1037300001F880BD80B50548784408F0DDFB801CA9
:103740000349794400F00EF880BDC04604D2000061
:1037500066A6000080B5FFF7CFFE80BD80B5FFF7FD
:10376000CBFE80BD10B582B00C46037801225340D9
:1037700001A90B7008F0E4FB2046FFF767FF02B0D9
:1037800010BD000080B582B00548083000900548A3
:103790006421054A7A44302308F090F902B080BDD4
:1037A00014020020D806002004A0000010B5044632
:1037B000FFF7E8FF204606F035FE10BD80B500207B
:1037C00000F02CFE80BD80B5002000F057FF80BDCA
:1037D00080B5002000F03AFF80BD80B5002000F0E9
:1037E0004DFF80BD80B5002001F074F880BD80B52C
:1037F000002001F087F880BD80B500F001F880BDA1
:1038000010B5064C2078002804D006F0C5FB002037
:10381000207010BD01F0A0FD10BDC0464809002079
:1038200080B5D420024900220A5001F0B7FD80BDC6
:10383000A804002080B500F001F880BD80B50748DD
:103840000078012806D1D420054900220A5001F051
:10385000BBFD80BD00F030F880BDC04648090020A7
:10386000A804002080B501F011FE80BD80B501F0F4
:1038700085FE80BD10B506497944002420462246C5
:1038800006F05CFC0148047010BDC04648090020E9
:10389000B0A9000010B5002405497944054A7A44CE
:1038A000204606F04BFC0148047010BD480900207A
:1038B0008EA90000C2A8000080B505480121017052
:1038C000002004497944044A7A4406F037FC80BD5C
:1038D0004809002064A90000A8A8000080B50020C5
:1038E00005497944054A7A4406F028FC014802213A
:1038F000017080BD4809002046A90000FEA8000014
:1039000080B5002005497944054A7A4406F016FC42
:1039100001480121017080BD4809002022A9000052
:1039200096A8000080B582B005482C30009005486C
:103930006421054A7A44202308F0C0F802B080BD13
:1039400014020020D8060020649E000080B582B0DA
:1039500005484C30009005486421054A7A442023EC
:1039600008F0ACF802B080BD14020020D806002098
:103970003C9E000010B50446FFF7D4FF204606F039
:1039800051FD10BD10B50446FFF7E0FF204606F0DC
:1039900049FD10BD80B5002001F002FE80BD80B55C
:1039A000002001F0CBFE80BD80B5002002F0DEFDDE
:1039B00080BD80B5002002F005FE80BD80B50020EE
:1039C00002F0D4FD80BD80B5002002F0FBFD80BD7B
:1039D00010B50446FEF716FC204606F023FD10BD88
:1039E00080B5012000F032F980BD80B5002000F0E4
:1039F0002DF980BD80B5002002F01AFD80BD80B594
:103A0000002002F0A1FD80BD70B50546314C344860
:103A100078442060C3203049085C012600280CD07F
:103A2000002D0AD12F48784408F066FA4078002823
:103A300003D12D48784460600226B0002118701C24
:103A4000002D0ED08000294A7A442250284878441C
:103A50000860284878448860351DF01C2649794460
:103A600005E0264A7A440A60B51C2549794480005D
:103A700021502448784408F03FFA8078002804D088
:103A8000A8002149794421506D1CFEF773FB0122E7
:103A9000504008430BD0114800680169406951400B
:103AA000014304D1A8001949794421506D1CA80094
:103AB0001749794421502118164A7A44164B7B4401
:103AC0000020C543091D2CC12146024606F036FBE5
:103AD00070BDC0464C0900205C0300200402002099
:103AE000ECAA000016CF000010AC00000CAB0000E8
:103AF000F6AA000018AB00001EAB0000B0AA000040
:103B0000C0AA0000C8CE0000A4AB000004AB0000B7
:103B1000E2AA000026AB000052AB000080B50020F6
:103B200002F0E2FD80BD80B5002000F0A7FD80BD61
:103B300080B5002003F0C8F980BD80B5002002F0F8
:103B400003FD80BD80B5002003F0BEF980BD80B5C7
:103B5000002002F0F9FC80BD10B50446FEF7ACFC75
:103B6000204606F05FFC10BD10B5044600F004F8D6
:103B7000204606F057FC10BD80B582B00A480068A8
:103B800001694069009101900848C13008496422E8
:103B9000084B00F037FB002801D002B080BD352073
:103BA000400207F073F8C04604020020B005002070
:103BB000D8060020A007002010B50446FEF790FCB0
:103BC000204606F02FFC10BD80B582B0054800905D
:103BD00005486421054A7A44202307F06FFF02B0AC
:103BE00080BDC046B0050020D8060020C29B000062
:103BF00080B582B005482030009005486421054A10
:103C00007A44202307F05AFF02B080BDB00500209F
:103C1000D8060020989B000010B50446FFF7D4FF9B
:103C2000204606F0FFFB10BD10B50446FFF7E0FF8D
:103C3000204606F0F7FB10BD80B5002003F0FCF92C
:103C400080BD80B5002002F07FFC80BD10B543220E
:103C50001E498B5C002805D04220012B0BD100228D
:103C60000A520DE0012B10D100208854FEF712FB00
:103C700006F092F910BD0A5C002A20D0521E0A54A8
:103C8000FEF708FB06F082F910BD42200B5C4124D0
:103C90000C5D641E9C420DDD5A1C0A54FEF7FAFAB4
:103CA00006F07AF90A48002141600078401E06F0CB
:103CB0004DFB10BD0120885406F068F910BD0122AB
:103CC00012020A5206F068F910BDC046B005002085
:103CD000A8040020B0B5002A0ED0094B7B440C7814
:103CE00024091C5D04700C780F2525405C5D447030
:103CF000801C491C521EF2D100210170B0BDC0468B
:103D0000F39E0000B0B5002911D04A1E072A00D347
:103D100008210024224603782502EB18240E120203
:103D20001219491E401C00291C46F4D101E0002351
:103D30001A4618461146B0BDF0B587B00293044646
:103D4000002001920546C7B27B1C029883422BD209
:103D5000009306950A250026204605912A463346FB
:103D600008F06AFA049003912A46069D334608F04B
:103D700083FA019A201A30210143D155681C092188
:103D8000091B3146059B9941049C0399DAD3C0B2C3
:103D900016542806009B07D0D05D915DD1559055F3
:103DA0007F1E761CBE42F7D30298834202D30020C6
:103DB00007B0F0BD012007B0F0BD0000F0B58BB03A
:103DC00014460A46202901D9002638E01D4601463E
:103DD00000260A9609960896079606960596049672
:103DE000039603AFB81A203008F0ECFA384600F01A
:103DF00055F8002809D0022D21D3274979442046BF
:103E00002A4608F09BFC012619E0002003A90A5A63
:103E100052BA0A52801C2028F8D103A800F03EF8BC
:103E20004742474100280DD02E46A119AD1B204620
:103E30002A4608F0CBFA0020605501267E40304625
:103E40000BB0F0BD0095002DF7D0009E01940296B6
:103E50000024204603AD295B000446180A2730469B
:103E6000394608F06BF928534743F01BA41C202C5B
:103E7000F0D130210843029E761E019CA05503A874
:103E800000F00CF847424741002802D1002EDED155
:103E9000D3E7009DC9E7C04694AD0000B0B5014628
:103EA00000780122002810460FD1491C00231C462F
:103EB0001F2C03D318461F2C03D106E001201F2C12
:103EC00003D00D5D641C002DF2D05040B0BDF0B5A4
:103ED00083B0029314460E460746012907D138786D
:103EE000302804D1029802283DD200256FE0089BBB
:103EF000B34222D2B11C0025029801918142294689
:103F000045D80020F11A04D03A5C2254401C81426A
:103F1000FAD1002B024602D02E212154421CB0427D
:103F2000114632D2331A38181146067866545B1E91
:103F3000401C491C002BF8D127E0D91C0025029811
:103F400001918142294622D8991B2E206070302091
:103F5000207000290DD0A01C3022009108F03AFA00
:103F60000098821C06E0002060703020207001253F
:103F70002DE00222002E114607D0114638786054F9
:103F80007F1C761E491C002EF8D100206054029838
:103F9000019B83421BD88A420ED2002303E0521CAD
:103FA0009142034609D0002B104600D01846A35C6E
:103FB000302BF4D00020F2E700200125002806D0A5
:103FC00000212154401E225C2E2A00D12154284673
:103FD00003B0F0BDF0B59DB0039302920D460746C5
:103FE00004AC64262046314608F0E6F938462946F6
:103FF00022463346FFF7E2FE00282CD0239C229D68
:1040000004A8642108F0F0FB01900B21039808F04C
:10401000EBFB0746C6B2A642224600D832462846E7
:10402000039908F0CFF9002E02D02020A8557F1C5C
:1040300002980090F8B22A18C04303190198C1B23F
:1040400004A8FFF744FF002803D06119491E00228D
:104050000A701DB0F0BD00201DB0F0BDF0B58BB0F2
:1040600016460C46074601200102104606F092FD56
:104070000025002815D102942020019003A800906B
:10408000093701244023304621463A4606F076FDA2
:10409000002806D103A90C311422029808F092F9E5
:1040A000254628460BB0F0BDF0B58BB014460D4642
:1040B000074601200102104606F06CFD002600288C
:1040C00017D12020019003A8009009370121402337
:1040D00020463A4606F052FD00280AD11198109960
:1040E0000091019003A80C302946224600F004F804
:1040F000064630460BB0F0BDF0B593B00392049184
:10410000054601231898014699431E224A401999F1
:104110000A430027002A3A4619D1059306AA3324F8
:104120002346FFF709FE00285FD006AE3046214641
:1041300008F05AFB3318221A30497944184608F01F
:10414000D3FA3046214608F04FFB0246059B06A8ED
:10415000059280182A4E7E44E95D0F240A09214009
:10416000715C4170B15C0170801C7F1C142FF3D115
:104170001902039F384606F00DFD002100283AD1B0
:104180002020019006A802900090059B2833012270
:1041900038460F4605921146029A06F0EFFC394662
:1041A000002828D10020049F059B05E0715C059B39
:1041B0003954401C28281AD002461A404308E95CAA
:1041C000002A03D021400929F0D902E00909092970
:1041D000ECD906AFFB5C920004275740FB401A075E
:1041E000715C00D52039049FE1E7002103E028201D
:1041F000002139541946084613B0F0BD5F91000004
:10420000799A000070B582B014460D462A2A10D95A
:104210000799069A78266E7030262E7000920191CA
:10422000A91C1A46FFF768FF002802D0012002B03F
:1042300070BD044979442846224608F07FFA0020E0
:1042400002B070BD5EA900000B48784407F054FE30
:104250000078084901224A700A228A700422CA7032
:104260000E2303430B70019802600920000306F03F
:104270000DFDC046680A0020F2C60000F0B5CFB0C0
:1042800001920C46054607F0C5F8392047AE29468D
:104290002246334607F0A0FE07F0BCF802AF3025F7
:1042A0003846294608F088F8384610301ECE1EC021
:1042B0001ECE1EC035AC3846214600F02DF81AAE91
:1042C0003046214600F034F86021384608F08AF87C
:1042D0004821204608F086F82F2002213954314623
:1042E000393138463A4600F02FF83037384600F07A
:1042F00035F8002801DC7F2000E05F20C043717AA0
:104300001F220A40801870720936019831462A46E9
:1043100008F058F84FB0F0BD80B50B460146392083
:10432000302206F013FC002800D180BD06F0AEFC60
:1043300080B50A4601463920012306F001FC002819
:1043400000D180BD06F0A2FC80B5302306F034FC1D
:10435000002800D180BD06F099FC000080B582B035
:1043600006497944302201AB06F01AFC002802D13C
:10437000019802B080BD06F089FCC04636A8000056
:1043800070B58CB015460E4604460BA803701A484B
:104390000078002801D1FDF77DF8022C1AD2002EFA
:1043A00018D10BA96A462846FDF72EF9002815D02A
:1043B00068460178001D114A0832FFF75FFF002CA4
:1043C00011D0109CFFF7B4F8206810210143216040
:1043D0000CB070BD6B20000206F058FC6B20000290
:1043E000803806F053FC119C00F00AF82060092088
:1043F000000306F04BFCC046090200201402002016
:1044000010B50449083104483024224607F0DAFF89
:10441000204610BD14020020680A0020B0B5FFF746
:10442000EFFF04460848902101550019002545700A
:10443000FDF730F8A01C81B2202006F051FEFFF7F6
:104440005BF82846B0BDC046680A0020F0B5A5B0AC
:1044500015460E46074624A80370534800780028E6
:1044600001D1FDF717F8022F7BD2022E7DD224A9AD
:1044700011AA2846FDF7C8F8002800D187E00546B4
:10448000701E414241419524484E315506F0C2FF0D
:10449000305D0028039701D03046753011A90A78A5
:1044A0000090091D21201CAF3B4607F06FFD07ACB3
:1044B0003846214600F08AF806F0ACFF204600F0AE
:1044C00091F82821204607F08DFF2021384607F07B
:1044D00089FF06F09FFF364C206801694069009112
:1044E000019037464C37334A30463946FFF7DCFDFA
:1044F000002844D02068016940690590049124A8EF
:104500000078082809D308212846FFF7FBFB249AE6
:10451000083A24AB1A700591049024A80178002968
:1045200031D10398002836D02A9D009722482B21AC
:10453000254A7A44282307F0C1FA206802694069B5
:10454000059B434004995140194304A8002900D118
:104550000846FFF70BF8286810210143296025B0B1
:10456000F0BD16487844394602E015487844314693
:1045700007F0E0F8D520C001803006F087FB7720F7
:10458000C04306F083FB0F48784407F0D3F8D520EA
:10459000C00106F07BFB2B9C00F032F82060092064
:1045A000000306F073FBC04609020020140200203D
:1045B00004020020A0070020D806002064A6000006
:1045C00078A6000078A60000FEA6000080B50B4685
:1045D00001462120202206F0B9FA002800D180BD32
:1045E00006F054FB80B5024621200449012306F061
:1045F000A7FA002800D180BD06F048FB1402002075
:10460000B0B5104C41222270601C0F4D2946083174
:1046100007F0D8FE42202822225420464330294663
:104620004C3107F0CFFE9520285C002808D06B3471
:10463000753520222046294607F0C4FE8B20B0BDE8
:104640006B20B0BD680A002014020020B0B5FFF74F
:10465000D7FF0446084890210155001900254570F0
:10466000FCF718FFA01C81B2202006F039FDFEF7F0
:1046700043FF2846B0BDC046680A002080B5074801
:104680008521417069210170FCF704FF202002217F
:1046900006F026FDFEF730FF002080BD680A0020EE
:1046A000B0B500221F2305E0C45C8C545B1E521C75
:1046B000202A0FD0D4B21F2C07D0002CF4D1C47FF5
:1046C0003F25254040350D70F0E70478F82525405A
:1046D000CD77EBE7B0BD0000F0B5ADB005462CA836
:1046E0000370022D00D3B0E00C46022900D3A8E0ED
:1046F0002CA911AB10461A46FCF786FF002850D0B3
:1047000003902CA8012C03D100781F2800D898E032
:104710009520564E305C00280694059501D0304611
:10472000753011A90A780090091D212424AF204674
:104730003B4607F02BFC07AD204639462A4600F0E1
:10474000A1F82046294600F0A7F849480068016909
:1047500040690091019034464C34464A3046214627
:10476000FFF7A2FC002875D00494069800281CD0FE
:1047700035460935202428460399224607F026FEAF
:1047800024AF28463946224606F022FA054607A8F5
:10479000282107F027FE3846214607F023FE002D8A
:1047A00021D0D520C00106F071FA24A803901CAFD7
:1047B0003946FFF775FF812407AD204639462A4662
:1047C00000F060F82046294600F066F820243846BC
:1047D000214607F007FE2821284607F003FE03982C
:1047E000214607F0FFFD0598002837D0329F049836
:1047F0000090214D2B21214A7A4428242846234623
:1048000007F05CF924A8315D0170401C641E082C7F
:10481000F9D124A800902B354E21194A7A4420233F
:10482000284607F04BF90698002802D0FEF794FEC0
:1048300001E0FEF787FE38681021014339602DB092
:10484000F0BD6720000206F021FAD520C0018030BB
:1048500006F01CFA7720C04306F018FA339C00F0EB
:1048600029F820600920000306F010FA1402002045
:1048700004020020A0070020D806002038A4000071
:10488000E2AD000080B51346202206F05FF9002853
:1048900000D180BD06F0FAF980B50A46044901232B
:1048A00006F04EF9002800D180BD06F0EFF9C046B1
:1048B0001402002028200549054A135C0B70491C8E
:1048C000401E0828F9D120207047C046680A002001
:1048D00014020020B0B5FFF7EDFF04460848902110
:1048E0000155001900254570FCF7D4FDA01C81B2CC
:1048F000202006F0F5FBFEF7FFFD2846B0BDC046C0
:10490000680A002080B5074885214170692101703F
:10491000FCF7C0FD2020022106F0E2FBFEF7ECFDD3
:10492000002080BD680A0020A6B01D4608924120E4
:1049300084003E49085D0126374687430F553D48B0
:104940007844394606F0F6FE002D6AD006940796A4
:10495000089C26780B2E64D231461C31681EC0B2EA
:1049600081425ED80395701C0590601C049025461A
:104970001CAA202306F008F95B2078432B490C1869
:104980002746603738460499324607F01FFD00205D
:10499000B85507460598291820464C30142207F0D0
:1049A00015FD31461531284600F04AF86B21605458
:1049B00031461931284600F043F82597249024A861
:1049C000FDF706FC00281BD009AF384600F044F87C
:1049D00072191D320398801B1D38C3B21CA93846BA
:1049E00000F04AF8002818D010490698085C08180A
:1049F00081214900079A42540920000306F046F934
:104A00000B48006801694069259B249A0091019038
:104A10000948784406F08EFE03E00848784406F022
:104A200089FED520C00106F031F9C04614020020ED
:104A300004020020F7A2000047A2000061A20000CB
:104A4000425C1206401841780904891882781202E3
:104A50008918C0780818704780B503462120054999
:104A60007944412206F078F8002800D180BD06F094
:104A70000DF9C04636A2000010B582B0144600936E
:104A80002022234606F04AF802B010BD042B0AD1BA
:104A900001430CD1104600F011F8074908600920C5
:104AA000000306F0F3F86720000206F0EFF86B2031
:104AB000000206F0EBF8C04610020020017809065B
:104AC000427812045118827812028918C0780818A6
:104AD00070470000F0B5ABB01E4615465748784405
:104AE00006F028FE2C7856487844214606F022FE2F
:104AF00027461937B7426DD2009601941E2C6ED20C
:104B000023AE202328463946324606F03DF810AC45
:104B1000204600F0A3F8E9190098C71B20460C4670
:104B2000314622463B4600F0A9F800285DD0019CA2
:104B30006E1C3E4D28463146224607F047FC0027B2
:104B40002F5543487844294606F0F4FD38480F9025
:104B50000E9502AC204607F069FDA08500044ED1F9
:104B600002AC204607F0CEFA0C900EA807F05CFAD3
:104B700007F0BCFAA04202D10C9807F0C3FA02A8D1
:104B8000808D002850D1319D0198341831487844E7
:104B900006F0D0FD254E304644301422214607F061
:104BA00015FCA07DE17D227D637D224C27701B02D8
:104BB0009A180902081800048018B0652868411C7A
:104BC00029601D4990220A542868421C2A600F540B
:104BD0002BB0F0BD1B4878443946324609E00198B5
:104BE000421C194878441E2103E01848784439468D
:104BF000224606F09FFDD520C00106F047F802A826
:104C000087850C9807F07EFA13487844294606F009
:104C100091FDAF832F606F60AF60EF602F616F61B8
:104C2000AF61D520C001FC3806F030F8B005002097
:104C3000FF0100000B020020680A0020F9A100001B
:104C400004A200002EA100004DA1000073A10000ED
:104C50003AA200002DA200008EA1000080B50346FC
:104C6000212005497944412205F076FF002800D132
:104C700080BD06F00BF8C04665A1000010B582B0FB
:104C8000144600932022234605F048FF02B010BDD1
:104C9000F0B5B3B01E461546BC48784406F04AFD50
:104CA00000203290319030902F902E902D902C90AB
:104CB00007902B9018A84C2107F07EFB3746032E57
:104CC00000D8F4E02C78B3487844214606F032FD51
:104CD000012C00D0EFE06C78B0487844214606F013
:104CE00029FD012C00D0E9E0A87801462531B14228
:104CF00000D9E7E0049106961E2800D3E8E00146BB
:104D00001B310391064607461737C01C02900596D3
:104D1000E91C994C2046324607F054FB0798A055F1
:104D2000A2487844314606F005FDA1487844214662
:104D300006F000FD02982E18204644301424314617
:104D4000224607F03FFB9B4878442146324606F056
:104D5000F1FCE85DE9194A78120210188A78C978DE
:104D60000902891809040818834A90655832924844
:104D70007844042106F0DEFC03982C18082620460F
:104D80003146FEF7BFFF179116908C4878443146A4
:104D9000224606F0CFFC16A8FDF71AFA002800D12B
:104DA0009DE0059F384623302E5C86487844314686
:104DB00006F0C0FC022E00D09EE03C46243482481F
:104DC00078444121814A7A4406F0B4FC2E5D804843
:104DD0007844314606F0AEFC012E00D08FE07D48CD
:104DE0007844049C21462A4606F0A4FC2BAA2023E2
:104DF0002846214605F0C8FE2637069EB74200D950
:104E000086E02C5D77487844214606F093FC2046E6
:104E10004338062800D380E03819B04200D984E036
:104E200018AE304600F0F6F8EA192BA930462346B2
:104E300000F0E6F800287DD0059800F0FBF8504916
:104E40000870411E02294C4D79D2002821D16A48B0
:104E50007844294606F06EFC4A481590149508AC33
:104E6000204607F0E3FBA08500046DD108AC204686
:104E700007F048F9129014A807F0D6F807F036F9B1
:104E8000A04202D1129807F03DF908A8808D0028B1
:104E900070D1399801684A1C02603B4A90235354F0
:104EA00001684B1C03600798505433B0F0BD38487C
:104EB0007844032108E03848784401E038487844D1
:104EC00021461FE0374878443A4606F033FC1BE0A1
:104ED000421C354878441E2106F02CFC14E027487B
:104EE000006801694069179B169A00910190344847
:104EF000784406F01FFC07E03848784401E0384861
:104F00007844314606F016FCD520C00105F0BEFEFF
:104F10003148784406F00EFCF6E7334878444321E4
:104F20004822234606F006FCEEE73048784406F0B7
:104F300001FCE9E72E48784406F0FCFBE4E72D4845
:104F4000784406F0F7FBDFE708A8079C84851298F1
:104F500007F0D8F829487844294606F0EBFBAC83E3
:104F60002C606C60AC60EC602C616C61AC61D52035
:104F7000C001FC3805F08AFEB005002004020020C4
:104F80000B020020FF010000680A00203DA0000085
:104F90005A9F0000B78300008C9F00007FA1000093
:104FA000A89F0000B89F0000E49F0000D69F00006B
:104FB000BAA10000AFA1000096A100008AA10000E4
:104FC000699D000079A1000088A10000C8A200002E
:104FD00086A100009FA100007CA0000036A0000078
:104FE00065A00000B1A10000AEA00000E4A0000098
:104FF000FBA0000008A100002E9F0000429E0000C0
:1050000010B582B0144600932022234605F086FD99
:1050100002B010BD80B503462120054979444122E4
:1050200005F09AFD002800D180BD05F02FFEC04696
:1050300072A0000010B507280CD00446062811D134
:105040000B480C497944062207F0D0F900280DD00E
:10505000072C07D1064808497944072207F0C6F90A
:10506000002801D0002010BD022010BD012010BD7D
:10507000B00500203BA000002EA0000070B582B05B
:1050800015460146214E0024347001A80370802982
:105090000BD000291CD101A9284600F043F80028B4
:1050A0002DD0411B3170054603E0194800780228D5
:1050B00016D101A80178284600F0B2F800281ED0C9
:1050C000144800780124C00711D100F0DFF816E081
:1050D0001248784406F02EFBD520C00180300CE049
:1050E0000F48784406F026FBD520C00105E00A48A9
:1050F000C06C002806D00920000300F077F8204695
:1051000002B070BDFEF7EAFBF9E7C046880900204F
:10511000080200208909002014020020F69A0000ED
:10512000ED9F0000F0B581B00D460446D520C601C4
:10513000274F3878002804D03046FB3880B200F082
:1051400055F802203870234F204629463A46FCF78E
:105150005BFA002807D004462878032809D820489D
:10516000784406F0E7FA304600F040F8002001B03D
:10517000F0BD204600F038F9F8642878001F287048
:1051800000F03EF900250095164979441A22284678
:105190002B4600F043F9FB6C0F4E64362821124A6F
:1051A0007A44304606F08AFC304607F0EFFA0246B1
:1051B0000095284631462B4600F030F900F00EF9F4
:1051C00006480178FC220A400270201D01B0F0BDA3
:1051D0000802002014020020D806002089090020BF
:1051E000E38100009E9F0000599F000010B5044617
:1051F00009200003844205D007480078800701D5C4
:10520000FEF77AF905484470210A01702020022136
:1052100005F066FF10BDC04689090020680A00201D
:1052200070B582B00C46174EF56C8D420CD2164804
:10523000784421462A4606F07DFAD520C001FFF7C2
:10524000D5FFA5420DD31AE001460020009022466A
:10525000034600F0E3F8F06C001BF06404D0A542B4
:105260000DD2002002B070BD202000902C3601200D
:1052700000210A46334600F0D1F8A542F1D30120BF
:1052800002B070BD14020020CC9E0000F0B581B0C9
:1052900000F07AF8002832D02D487844471C2D4879
:1052A00078440090274C07E02022294607F092F826
:1052B00000F06AF8002822D000F0C8F800281ED0BC
:1052C000054600F0C9F80678B85D000700D520262D
:1052D000B85D9721084205D000F0C8F80021417060
:1052E000067008E000F0C2F8042DDDD32946009ACC
:1052F000334606F0E3FB2078401C2070D8E700F02E
:10530000A5F8114C002802D0E06C00280CD10F4DFC
:105310002878800706D4FEF7ADFA287802210143E9
:10532000297001E0FEF7B6FA00F02EF8002806D149
:10533000E06C002803D009200003FFF757FF01B0FD
:10534000F0BDC04688090020140200208909002011
:105350007A750000819E000080B509480078C0077A
:105360000AD10848C06C002803D100F00DF80028CD
:1053700002D0FEF7C5FA80BDFEF7B0FA80BDC04688
:1053800089090020140200200248007802490979A6
:10539000081A704788090020680A002080B508486C
:1053A000017801220A4302700648C06C002804D02C
:1053B00009200003FFF71AFF80BDFEF78FFA80BDBA
:1053C000890900201402002080B500F007F8FFF7DB
:1053D000DBFF002801D0FFF759FF80BD0148002105
:1053E00001707047D806002001780906427812043F
:1053F0005118827812028918C07808187047000086
:1054000080B501200102044805F0C4FB002800D14A
:1054100080BD05F03BFCC046A007002010B582B05F
:1054200014460A4601460498009301900648234614
:1054300005F0A4FB002804D1034805F099FB02B055
:1054400010BD05F023FCC046A007002080B500F089
:1054500015F86321081A80BD02480078024908182F
:10546000401D704788090020680A002080B500F0C0
:1054700005F80149081880BDD806002080B502480B
:1054800007F084F980BDC046D8060020F0B5ADB065
:1054900005F0C0FF2148027800240094011D21205E
:1054A00025AE334606F072FD05F0B4FF02AF30467C
:1054B000394600F037F820253046294606F092FF9D
:1054C000019405F0A7FF0CAE01AA3846314600F062
:1054D00035F82821384606F085FF0199C80703D022
:1054E0001C20890703D403E01B20890700D5801CFA
:1054F0000B4F38703046FCF709F842203C544120ED
:1055000090213954FBF7C6FF4321284605F0E8FDFA
:10551000FDF7F2FF20462DB0F0BDC046140200207A
:10552000680A002080B50B4601462120202205F0A4
:105530000DFB002800D180BD05F0A8FB10B586B09A
:1055400014466422059204AA039205AA02920191CC
:1055500020210091074B2C330749032205F0D8FA8C
:10556000002805D1002C01D00498206006B010BDA1
:1055700005F08CFB140200200106000080B5FBF74B
:1055800089FF064885214170692101702020022190
:1055900005F0A6FDFDF7B0FF002080BD680A0020E1
:1055A000F0B5B7B005F036FF00F078F800240094AD
:1055B0003749794402222046234600F07DF80094C2
:1055C000314F2C372025204639462A46234600F005
:1055D00073F800952C4E4C36012027AB02933146D0
:1055E0002A4600F069F82B48784429463A4606F0E6
:1055F000A1F8294878442946324606F09BF805F080
:1056000009FF214802780094011D21202FAF3B465D
:1056100006F0BCFC05F0FEFE04AE3846314600F054
:1056200063F83846294606F0DDFE039405F0F2FEE5
:105630000EAF03AB304602993A4600F061F82821DC
:10564000304606F0CFFE0399C80703D01C20890717
:1056500003D403E01B20890700D5801C0B4E30705B
:105660003846FBF753FF42203454412090213154F7
:10567000FBF710FF4321284605F032FDFDF73CFF04
:10568000204637B0F0BDC04614020020680A002052
:10569000919B00005D9B00006C9B000080B5012089
:1056A0000102044805F076FA002800D180BD05F01B
:1056B000EDFAC046A007002010B582B014460A4695
:1056C00001460498009301900648234605F056FAD7
:1056D000002804D1034805F04BFA02B010BD05F0D4
:1056E000D5FAC046A007002080B50B460146212010
:1056F000202205F02BFA002800D180BD05F0C6FA63
:1057000010B586B01C460B466421059104A903918F
:1057100005A902910192202100910749032205F079
:10572000F7F9002805D1002C01D00498206006B0BC
:1057300010BD05F0ABFAC0460106000080B5FBF7CE
:10574000A9FE0648852141706921017020200221AF
:1057500005F0C6FCFDF7D0FE002080BD680A0020E1
:10576000F0B581B069460B7000282AD1154619485A
:105770000078002801D0FBF78DFE6E46164C2846B7
:1057800031462246FBF740FF00281FD005463078FF
:105790003F281BD9069F20462C302026294632461A
:1057A00006F014FE4C34203520462946324606F0D9
:1057B0000DFEFDF7E5FE386810210143396001B0A8
:1057C000F0BDD520C001803005F060FAD520C001C1
:1057D00005F05CFA0802002014020020F0B583B046
:1057E00014460E46054602A8037006F001FCAA28DE
:1057F0007AD1802D43D0002D72D101964F4E307852
:10580000002801D0FBF746FE0127377002A94C4A59
:105810002046FBF7F9FE002800D183E00446E4208F
:1058200048490F54C320484A002111540091474E63
:1058300047494A4B7B443046FAF7E7FB02A8007819
:1058400000286BD0207840B200280ED4C7B2781E52
:1058500001286BD8204600F091F83C20375402987C
:10586000401E02A90870641C02E03C20C021315493
:105870003C20315C3C48784405F05CFF019E002EE2
:105880002ED1802D03D12D480078012835D12F4805
:105890000078002834D06F20C0002F4909680A69B9
:1058A000496942400A435342534102A802782748BB
:1058B0002146FAF735FC012806DC0AD000282AD157
:1058C0000920000305F0E2F9022822D1002000F0AF
:1058D000E5F90898016810220A43026003B0F0BDA0
:1058E0006B20000205F0D2F92348784405F022FF2E
:1058F000D520C001FE3805F0C9F91C48784401E004
:105900001B48784405F016FFD520C001FB3805F090
:10591000BDF9032806D01748784401E010487844C0
:1059200005F008FFD520C00105F0B0F90D48784416
:10593000394605F0FFFE074805F0A8F908020020E7
:1059400014020020B00500205C0300201C0300208E
:10595000A00700200165000004020020A50100004E
:10596000257A0000639800003E990000C49800006A
:10597000D9980000DB9800009298000080B582B0B2
:1059800002460021009101910648012305F0F6F836
:10599000002804D1034805F0EBF802B080BD05F003
:1059A00075F9C046A007002010B500228B5C002BC3
:1059B00003D1521C082AF9D10822082A06D1002155
:1059C0008170302141700170022010BD89180823B8
:1059D0009C1A2246FEF77EF9600010BDF0B58DB02E
:1059E00004463C20205C002601280AD002280DD065
:1059F000C02829D1217808290BD0022806D00128F7
:105A000022D12178092904D002281DD120780A2822
:105A10001AD1A068002817D0616BC32201278F54C8
:105A2000042811D3B920874D285C00280CD0E068E9
:105A300000284CD1A06A03280AD88548784405F08C
:105A400079FE0320002540E03046C0B20DB0F0BD25
:105A50000497E4277C4901200390C8557D48784489
:105A600006F04AFA407800280CD1A268616A05A8BD
:105A70000290FBF71DF8A53528460299FBF798F828
:105A80007149C855704DE95D7348784405F052FE80
:105A9000E85D002812D00328049F0DD3294640203A
:105AA00000250D54CD87042220462946FAF708FB2D
:105AB000A0680428284608D0039D06E0674878447B
:105AC00005F038FE03200025049F002DBDD0E568B9
:105AD0006348784406F010FA002D10D040785A49F7
